{
	"contracts/Contract interaction/Low-level call/Demo.sol": {
		"Demo": {
			"abi": [
				{
					"stateMutability": "payable",
					"type": "fallback"
				},
				{
					"inputs": [],
					"name": "age",
					"outputs": [
						{
							"internalType": "uint256",
							"name": "",
							"type": "uint256"
						}
					],
					"stateMutability": "view",
					"type": "function"
				},
				{
					"inputs": [],
					"name": "getName",
					"outputs": [
						{
							"internalType": "string",
							"name": "",
							"type": "string"
						}
					],
					"stateMutability": "view",
					"type": "function"
				},
				{
					"inputs": [],
					"name": "name",
					"outputs": [
						{
							"internalType": "string",
							"name": "",
							"type": "string"
						}
					],
					"stateMutability": "view",
					"type": "function"
				},
				{
					"inputs": [
						{
							"internalType": "address",
							"name": "",
							"type": "address"
						}
					],
					"name": "payments",
					"outputs": [
						{
							"internalType": "uint256",
							"name": "",
							"type": "uint256"
						}
					],
					"stateMutability": "view",
					"type": "function"
				},
				{
					"inputs": [
						{
							"internalType": "address",
							"name": "_payer",
							"type": "address"
						}
					],
					"name": "receiveMoney",
					"outputs": [],
					"stateMutability": "payable",
					"type": "function"
				},
				{
					"inputs": [
						{
							"internalType": "string",
							"name": "_newName",
							"type": "string"
						},
						{
							"internalType": "uint256",
							"name": "_newAge",
							"type": "uint256"
						}
					],
					"name": "setData",
					"outputs": [],
					"stateMutability": "nonpayable",
					"type": "function"
				},
				{
					"stateMutability": "payable",
					"type": "receive"
				}
			],
			"devdoc": {
				"kind": "dev",
				"methods": {},
				"version": 1
			},
			"evm": {
				"assembly": "    /* \"contracts/Contract interaction/Low-level call/Demo.sol\":57:580  contract Demo {... */\n  mstore(0x40, 0x80)\n    /* \"contracts/Contract interaction/Low-level call/Demo.sol\":75:105  string public name = \"Michael\" */\n  mload(0x40)\n  dup1\n  0x40\n  add\n  0x40\n  mstore\n  dup1\n  0x07\n  dup2\n  mstore\n  0x20\n  add\n  0x4d69636861656c00000000000000000000000000000000000000000000000000\n  dup2\n  mstore\n  pop\n  0x00\n  swap1\n  dup1\n  mload\n  swap1\n  0x20\n  add\n  swap1\n  tag_1\n  swap3\n  swap2\n  swap1\n  tag_2\n  jump\t// in\ntag_1:\n  pop\n    /* \"contracts/Contract interaction/Low-level call/Demo.sol\":127:129  30 */\n  0x1e\n    /* \"contracts/Contract interaction/Low-level call/Demo.sol\":109:129  uint public age = 30 */\n  0x01\n  sstore\n    /* \"contracts/Contract interaction/Low-level call/Demo.sol\":57:580  contract Demo {... */\n  callvalue\n  dup1\n  iszero\n  tag_3\n  jumpi\n  0x00\n  dup1\n  revert\ntag_3:\n  pop\n  jump(tag_4)\ntag_2:\n  dup3\n  dup1\n  sload\n  tag_5\n  swap1\n  tag_6\n  jump\t// in\ntag_5:\n  swap1\n  0x00\n  mstore\n  keccak256(0x00, 0x20)\n  swap1\n  0x1f\n  add\n  0x20\n  swap1\n  div\n  dup2\n  add\n  swap3\n  dup3\n  tag_8\n  jumpi\n  0x00\n  dup6\n  sstore\n  jump(tag_7)\ntag_8:\n  dup3\n  0x1f\n  lt\n  tag_9\n  jumpi\n  dup1\n  mload\n  not(0xff)\n  and\n  dup4\n  dup1\n  add\n  or\n  dup6\n  sstore\n  jump(tag_7)\ntag_9:\n  dup3\n  dup1\n  add\n  0x01\n  add\n  dup6\n  sstore\n  dup3\n  iszero\n  tag_7\n  jumpi\n  swap2\n  dup3\n  add\ntag_10:\n  dup3\n  dup2\n  gt\n  iszero\n  tag_11\n  jumpi\n  dup3\n  mload\n  dup3\n  sstore\n  swap2\n  0x20\n  add\n  swap2\n  swap1\n  0x01\n  add\n  swap1\n  jump(tag_10)\ntag_11:\ntag_7:\n  pop\n  swap1\n  pop\n  tag_12\n  swap2\n  swap1\n  tag_13\n  jump\t// in\ntag_12:\n  pop\n  swap1\n  jump\t// out\ntag_13:\ntag_14:\n  dup1\n  dup3\n  gt\n  iszero\n  tag_15\n  jumpi\n  0x00\n  dup2\n  0x00\n  swap1\n  sstore\n  pop\n  0x01\n  add\n  jump(tag_14)\ntag_15:\n  pop\n  swap1\n  jump\t// out\n    /* \"#utility.yul\":7:327   */\ntag_6:\n    /* \"#utility.yul\":51:57   */\n  0x00\n    /* \"#utility.yul\":88:89   */\n  0x02\n    /* \"#utility.yul\":82:86   */\n  dup3\n    /* \"#utility.yul\":78:90   */\n  div\n    /* \"#utility.yul\":68:90   */\n  swap1\n  pop\n    /* \"#utility.yul\":135:136   */\n  0x01\n    /* \"#utility.yul\":129:133   */\n  dup3\n    /* \"#utility.yul\":125:137   */\n  and\n    /* \"#utility.yul\":156:174   */\n  dup1\n    /* \"#utility.yul\":146:227   */\n  tag_18\n  jumpi\n    /* \"#utility.yul\":212:216   */\n  0x7f\n    /* \"#utility.yul\":204:210   */\n  dup3\n    /* \"#utility.yul\":200:217   */\n  and\n    /* \"#utility.yul\":190:217   */\n  swap2\n  pop\n    /* \"#utility.yul\":146:227   */\ntag_18:\n    /* \"#utility.yul\":274:276   */\n  0x20\n    /* \"#utility.yul\":266:272   */\n  dup3\n    /* \"#utility.yul\":263:277   */\n  lt\n    /* \"#utility.yul\":243:261   */\n  dup2\n    /* \"#utility.yul\":240:278   */\n  eq\n    /* \"#utility.yul\":237:321   */\n  iszero\n  tag_19\n  jumpi\n    /* \"#utility.yul\":293:311   */\n  tag_20\n  tag_21\n  jump\t// in\ntag_20:\n    /* \"#utility.yul\":237:321   */\ntag_19:\n    /* \"#utility.yul\":58:327   */\n  pop\n    /* \"#utility.yul\":7:327   */\n  swap2\n  swap1\n  pop\n  jump\t// out\n    /* \"#utility.yul\":333:513   */\ntag_21:\n    /* \"#utility.yul\":381:458   */\n  0x4e487b7100000000000000000000000000000000000000000000000000000000\n    /* \"#utility.yul\":378:379   */\n  0x00\n    /* \"#utility.yul\":371:459   */\n  mstore\n    /* \"#utility.yul\":478:482   */\n  0x22\n    /* \"#utility.yul\":475:476   */\n  0x04\n    /* \"#utility.yul\":468:483   */\n  mstore\n    /* \"#utility.yul\":502:506   */\n  0x24\n    /* \"#utility.yul\":499:500   */\n  0x00\n    /* \"#utility.yul\":492:507   */\n  revert\n    /* \"contracts/Contract interaction/Low-level call/Demo.sol\":57:580  contract Demo {... */\ntag_4:\n  dataSize(sub_0)\n  dup1\n  dataOffset(sub_0)\n  0x00\n  codecopy\n  0x00\n  return\nstop\n\nsub_0: assembly {\n        /* \"contracts/Contract interaction/Low-level call/Demo.sol\":57:580  contract Demo {... */\n      mstore(0x40, 0x80)\n      jumpi(tag_1, lt(calldatasize, 0x04))\n      shr(0xe0, calldataload(0x00))\n      dup1\n      0x06fdde03\n      eq\n      tag_3\n      jumpi\n      dup1\n      0x15996b35\n      eq\n      tag_4\n      jumpi\n      dup1\n      0x17d7de7c\n      eq\n      tag_5\n      jumpi\n      dup1\n      0x262a9dff\n      eq\n      tag_6\n      jumpi\n      dup1\n      0xaf22068e\n      eq\n      tag_7\n      jumpi\n      dup1\n      0xe2982c21\n      eq\n      tag_8\n      jumpi\n      jump(tag_2)\n    tag_1:\n      jumpi(tag_2, calldatasize)\n      stop\n    tag_2:\n        /* \"contracts/Contract interaction/Low-level call/Demo.sol\":531:540  msg.value */\n      callvalue\n        /* \"contracts/Contract interaction/Low-level call/Demo.sol\":508:516  payments */\n      0x02\n        /* \"contracts/Contract interaction/Low-level call/Demo.sol\":508:528  payments[msg.sender] */\n      0x00\n        /* \"contracts/Contract interaction/Low-level call/Demo.sol\":517:527  msg.sender */\n      caller\n        /* \"contracts/Contract interaction/Low-level call/Demo.sol\":508:528  payments[msg.sender] */\n      0xffffffffffffffffffffffffffffffffffffffff\n      and\n      0xffffffffffffffffffffffffffffffffffffffff\n      and\n      dup2\n      mstore\n      0x20\n      add\n      swap1\n      dup2\n      mstore\n      0x20\n      add\n      0x00\n      keccak256\n        /* \"contracts/Contract interaction/Low-level call/Demo.sol\":508:540  payments[msg.sender] = msg.value */\n      dup2\n      swap1\n      sstore\n      pop\n        /* \"contracts/Contract interaction/Low-level call/Demo.sol\":57:580  contract Demo {... */\n      stop\n        /* \"contracts/Contract interaction/Low-level call/Demo.sol\":75:105  string public name = \"Michael\" */\n    tag_3:\n      callvalue\n      dup1\n      iszero\n      tag_13\n      jumpi\n      0x00\n      dup1\n      revert\n    tag_13:\n      pop\n      tag_14\n      tag_15\n      jump\t// in\n    tag_14:\n      mload(0x40)\n      tag_16\n      swap2\n      swap1\n      tag_17\n      jump\t// in\n    tag_16:\n      mload(0x40)\n      dup1\n      swap2\n      sub\n      swap1\n      return\n        /* \"contracts/Contract interaction/Low-level call/Demo.sol\":375:469  function receiveMoney(address _payer) external payable {... */\n    tag_4:\n      tag_18\n      0x04\n      dup1\n      calldatasize\n      sub\n      dup2\n      add\n      swap1\n      tag_19\n      swap2\n      swap1\n      tag_20\n      jump\t// in\n    tag_19:\n      tag_21\n      jump\t// in\n    tag_18:\n      stop\n        /* \"contracts/Contract interaction/Low-level call/Demo.sol\":182:258  function getName() public view returns(string memory) {... */\n    tag_5:\n      callvalue\n      dup1\n      iszero\n      tag_22\n      jumpi\n      0x00\n      dup1\n      revert\n    tag_22:\n      pop\n      tag_23\n      tag_24\n      jump\t// in\n    tag_23:\n      mload(0x40)\n      tag_25\n      swap2\n      swap1\n      tag_17\n      jump\t// in\n    tag_25:\n      mload(0x40)\n      dup1\n      swap2\n      sub\n      swap1\n      return\n        /* \"contracts/Contract interaction/Low-level call/Demo.sol\":109:129  uint public age = 30 */\n    tag_6:\n      callvalue\n      dup1\n      iszero\n      tag_26\n      jumpi\n      0x00\n      dup1\n      revert\n    tag_26:\n      pop\n      tag_27\n      tag_28\n      jump\t// in\n    tag_27:\n      mload(0x40)\n      tag_29\n      swap2\n      swap1\n      tag_30\n      jump\t// in\n    tag_29:\n      mload(0x40)\n      dup1\n      swap2\n      sub\n      swap1\n      return\n        /* \"contracts/Contract interaction/Low-level call/Demo.sol\":262:371  function setData(string calldata _newName, uint _newAge) public {... */\n    tag_7:\n      callvalue\n      dup1\n      iszero\n      tag_31\n      jumpi\n      0x00\n      dup1\n      revert\n    tag_31:\n      pop\n      tag_32\n      0x04\n      dup1\n      calldatasize\n      sub\n      dup2\n      add\n      swap1\n      tag_33\n      swap2\n      swap1\n      tag_34\n      jump\t// in\n    tag_33:\n      tag_35\n      jump\t// in\n    tag_32:\n      stop\n        /* \"contracts/Contract interaction/Low-level call/Demo.sol\":133:174  mapping (address => uint) public payments */\n    tag_8:\n      callvalue\n      dup1\n      iszero\n      tag_36\n      jumpi\n      0x00\n      dup1\n      revert\n    tag_36:\n      pop\n      tag_37\n      0x04\n      dup1\n      calldatasize\n      sub\n      dup2\n      add\n      swap1\n      tag_38\n      swap2\n      swap1\n      tag_20\n      jump\t// in\n    tag_38:\n      tag_39\n      jump\t// in\n    tag_37:\n      mload(0x40)\n      tag_40\n      swap2\n      swap1\n      tag_30\n      jump\t// in\n    tag_40:\n      mload(0x40)\n      dup1\n      swap2\n      sub\n      swap1\n      return\n        /* \"contracts/Contract interaction/Low-level call/Demo.sol\":75:105  string public name = \"Michael\" */\n    tag_15:\n      0x00\n      dup1\n      sload\n      tag_41\n      swap1\n      tag_42\n      jump\t// in\n    tag_41:\n      dup1\n      0x1f\n      add\n      0x20\n      dup1\n      swap2\n      div\n      mul\n      0x20\n      add\n      mload(0x40)\n      swap1\n      dup2\n      add\n      0x40\n      mstore\n      dup1\n      swap3\n      swap2\n      swap1\n      dup2\n      dup2\n      mstore\n      0x20\n      add\n      dup3\n      dup1\n      sload\n      tag_43\n      swap1\n      tag_42\n      jump\t// in\n    tag_43:\n      dup1\n      iszero\n      tag_44\n      jumpi\n      dup1\n      0x1f\n      lt\n      tag_45\n      jumpi\n      0x0100\n      dup1\n      dup4\n      sload\n      div\n      mul\n      dup4\n      mstore\n      swap2\n      0x20\n      add\n      swap2\n      jump(tag_44)\n    tag_45:\n      dup3\n      add\n      swap2\n      swap1\n      0x00\n      mstore\n      keccak256(0x00, 0x20)\n      swap1\n    tag_46:\n      dup2\n      sload\n      dup2\n      mstore\n      swap1\n      0x01\n      add\n      swap1\n      0x20\n      add\n      dup1\n      dup4\n      gt\n      tag_46\n      jumpi\n      dup3\n      swap1\n      sub\n      0x1f\n      and\n      dup3\n      add\n      swap2\n    tag_44:\n      pop\n      pop\n      pop\n      pop\n      pop\n      dup2\n      jump\t// out\n        /* \"contracts/Contract interaction/Low-level call/Demo.sol\":375:469  function receiveMoney(address _payer) external payable {... */\n    tag_21:\n        /* \"contracts/Contract interaction/Low-level call/Demo.sol\":455:464  msg.value */\n      callvalue\n        /* \"contracts/Contract interaction/Low-level call/Demo.sol\":436:444  payments */\n      0x02\n        /* \"contracts/Contract interaction/Low-level call/Demo.sol\":436:452  payments[_payer] */\n      0x00\n        /* \"contracts/Contract interaction/Low-level call/Demo.sol\":445:451  _payer */\n      dup4\n        /* \"contracts/Contract interaction/Low-level call/Demo.sol\":436:452  payments[_payer] */\n      0xffffffffffffffffffffffffffffffffffffffff\n      and\n      0xffffffffffffffffffffffffffffffffffffffff\n      and\n      dup2\n      mstore\n      0x20\n      add\n      swap1\n      dup2\n      mstore\n      0x20\n      add\n      0x00\n      keccak256\n        /* \"contracts/Contract interaction/Low-level call/Demo.sol\":436:464  payments[_payer] = msg.value */\n      dup2\n      swap1\n      sstore\n      pop\n        /* \"contracts/Contract interaction/Low-level call/Demo.sol\":375:469  function receiveMoney(address _payer) external payable {... */\n      pop\n      jump\t// out\n        /* \"contracts/Contract interaction/Low-level call/Demo.sol\":182:258  function getName() public view returns(string memory) {... */\n    tag_24:\n        /* \"contracts/Contract interaction/Low-level call/Demo.sol\":221:234  string memory */\n      0x60\n        /* \"contracts/Contract interaction/Low-level call/Demo.sol\":249:253  name */\n      0x00\n        /* \"contracts/Contract interaction/Low-level call/Demo.sol\":242:253  return name */\n      dup1\n      sload\n      tag_49\n      swap1\n      tag_42\n      jump\t// in\n    tag_49:\n      dup1\n      0x1f\n      add\n      0x20\n      dup1\n      swap2\n      div\n      mul\n      0x20\n      add\n      mload(0x40)\n      swap1\n      dup2\n      add\n      0x40\n      mstore\n      dup1\n      swap3\n      swap2\n      swap1\n      dup2\n      dup2\n      mstore\n      0x20\n      add\n      dup3\n      dup1\n      sload\n      tag_50\n      swap1\n      tag_42\n      jump\t// in\n    tag_50:\n      dup1\n      iszero\n      tag_51\n      jumpi\n      dup1\n      0x1f\n      lt\n      tag_52\n      jumpi\n      0x0100\n      dup1\n      dup4\n      sload\n      div\n      mul\n      dup4\n      mstore\n      swap2\n      0x20\n      add\n      swap2\n      jump(tag_51)\n    tag_52:\n      dup3\n      add\n      swap2\n      swap1\n      0x00\n      mstore\n      keccak256(0x00, 0x20)\n      swap1\n    tag_53:\n      dup2\n      sload\n      dup2\n      mstore\n      swap1\n      0x01\n      add\n      swap1\n      0x20\n      add\n      dup1\n      dup4\n      gt\n      tag_53\n      jumpi\n      dup3\n      swap1\n      sub\n      0x1f\n      and\n      dup3\n      add\n      swap2\n    tag_51:\n      pop\n      pop\n      pop\n      pop\n      pop\n      swap1\n      pop\n        /* \"contracts/Contract interaction/Low-level call/Demo.sol\":182:258  function getName() public view returns(string memory) {... */\n      swap1\n      jump\t// out\n        /* \"contracts/Contract interaction/Low-level call/Demo.sol\":109:129  uint public age = 30 */\n    tag_28:\n      sload(0x01)\n      dup2\n      jump\t// out\n        /* \"contracts/Contract interaction/Low-level call/Demo.sol\":262:371  function setData(string calldata _newName, uint _newAge) public {... */\n    tag_35:\n        /* \"contracts/Contract interaction/Low-level call/Demo.sol\":339:347  _newName */\n      dup3\n      dup3\n        /* \"contracts/Contract interaction/Low-level call/Demo.sol\":332:336  name */\n      0x00\n        /* \"contracts/Contract interaction/Low-level call/Demo.sol\":332:347  name = _newName */\n      swap2\n      swap1\n      tag_55\n      swap3\n      swap2\n      swap1\n      tag_56\n      jump\t// in\n    tag_55:\n      pop\n        /* \"contracts/Contract interaction/Low-level call/Demo.sol\":359:366  _newAge */\n      dup1\n        /* \"contracts/Contract interaction/Low-level call/Demo.sol\":353:356  age */\n      0x01\n        /* \"contracts/Contract interaction/Low-level call/Demo.sol\":353:366  age = _newAge */\n      dup2\n      swap1\n      sstore\n      pop\n        /* \"contracts/Contract interaction/Low-level call/Demo.sol\":262:371  function setData(string calldata _newName, uint _newAge) public {... */\n      pop\n      pop\n      pop\n      jump\t// out\n        /* \"contracts/Contract interaction/Low-level call/Demo.sol\":133:174  mapping (address => uint) public payments */\n    tag_39:\n      mstore(0x20, 0x02)\n      dup1\n      0x00\n      mstore\n      keccak256(0x00, 0x40)\n      0x00\n      swap2\n      pop\n      swap1\n      pop\n      sload\n      dup2\n      jump\t// out\n    tag_56:\n      dup3\n      dup1\n      sload\n      tag_57\n      swap1\n      tag_42\n      jump\t// in\n    tag_57:\n      swap1\n      0x00\n      mstore\n      keccak256(0x00, 0x20)\n      swap1\n      0x1f\n      add\n      0x20\n      swap1\n      div\n      dup2\n      add\n      swap3\n      dup3\n      tag_59\n      jumpi\n      0x00\n      dup6\n      sstore\n      jump(tag_58)\n    tag_59:\n      dup3\n      0x1f\n      lt\n      tag_60\n      jumpi\n      dup1\n      calldataload\n      not(0xff)\n      and\n      dup4\n      dup1\n      add\n      or\n      dup6\n      sstore\n      jump(tag_58)\n    tag_60:\n      dup3\n      dup1\n      add\n      0x01\n      add\n      dup6\n      sstore\n      dup3\n      iszero\n      tag_58\n      jumpi\n      swap2\n      dup3\n      add\n    tag_61:\n      dup3\n      dup2\n      gt\n      iszero\n      tag_62\n      jumpi\n      dup3\n      calldataload\n      dup3\n      sstore\n      swap2\n      0x20\n      add\n      swap2\n      swap1\n      0x01\n      add\n      swap1\n      jump(tag_61)\n    tag_62:\n    tag_58:\n      pop\n      swap1\n      pop\n      tag_63\n      swap2\n      swap1\n      tag_64\n      jump\t// in\n    tag_63:\n      pop\n      swap1\n      jump\t// out\n    tag_64:\n    tag_65:\n      dup1\n      dup3\n      gt\n      iszero\n      tag_66\n      jumpi\n      0x00\n      dup2\n      0x00\n      swap1\n      sstore\n      pop\n      0x01\n      add\n      jump(tag_65)\n    tag_66:\n      pop\n      swap1\n      jump\t// out\n        /* \"#utility.yul\":7:146   */\n    tag_68:\n        /* \"#utility.yul\":53:58   */\n      0x00\n        /* \"#utility.yul\":91:97   */\n      dup2\n        /* \"#utility.yul\":78:98   */\n      calldataload\n        /* \"#utility.yul\":69:98   */\n      swap1\n      pop\n        /* \"#utility.yul\":107:140   */\n      tag_70\n        /* \"#utility.yul\":134:139   */\n      dup2\n        /* \"#utility.yul\":107:140   */\n      tag_71\n      jump\t// in\n    tag_70:\n        /* \"#utility.yul\":7:146   */\n      swap3\n      swap2\n      pop\n      pop\n      jump\t// out\n        /* \"#utility.yul\":166:719   */\n    tag_72:\n        /* \"#utility.yul\":224:232   */\n      0x00\n        /* \"#utility.yul\":234:240   */\n      dup1\n        /* \"#utility.yul\":284:287   */\n      dup4\n        /* \"#utility.yul\":277:281   */\n      0x1f\n        /* \"#utility.yul\":269:275   */\n      dup5\n        /* \"#utility.yul\":265:282   */\n      add\n        /* \"#utility.yul\":261:288   */\n      slt\n        /* \"#utility.yul\":251:373   */\n      tag_74\n      jumpi\n        /* \"#utility.yul\":292:371   */\n      tag_75\n      tag_76\n      jump\t// in\n    tag_75:\n        /* \"#utility.yul\":251:373   */\n    tag_74:\n        /* \"#utility.yul\":405:411   */\n      dup3\n        /* \"#utility.yul\":392:412   */\n      calldataload\n        /* \"#utility.yul\":382:412   */\n      swap1\n      pop\n        /* \"#utility.yul\":435:453   */\n      0xffffffffffffffff\n        /* \"#utility.yul\":427:433   */\n      dup2\n        /* \"#utility.yul\":424:454   */\n      gt\n        /* \"#utility.yul\":421:538   */\n      iszero\n      tag_77\n      jumpi\n        /* \"#utility.yul\":457:536   */\n      tag_78\n      tag_79\n      jump\t// in\n    tag_78:\n        /* \"#utility.yul\":421:538   */\n    tag_77:\n        /* \"#utility.yul\":571:575   */\n      0x20\n        /* \"#utility.yul\":563:569   */\n      dup4\n        /* \"#utility.yul\":559:576   */\n      add\n        /* \"#utility.yul\":547:576   */\n      swap2\n      pop\n        /* \"#utility.yul\":625:628   */\n      dup4\n        /* \"#utility.yul\":617:621   */\n      0x01\n        /* \"#utility.yul\":609:615   */\n      dup3\n        /* \"#utility.yul\":605:622   */\n      mul\n        /* \"#utility.yul\":595:603   */\n      dup4\n        /* \"#utility.yul\":591:623   */\n      add\n        /* \"#utility.yul\":588:629   */\n      gt\n        /* \"#utility.yul\":585:713   */\n      iszero\n      tag_80\n      jumpi\n        /* \"#utility.yul\":632:711   */\n      tag_81\n      tag_82\n      jump\t// in\n    tag_81:\n        /* \"#utility.yul\":585:713   */\n    tag_80:\n        /* \"#utility.yul\":166:719   */\n      swap3\n      pop\n      swap3\n      swap1\n      pop\n      jump\t// out\n        /* \"#utility.yul\":725:864   */\n    tag_83:\n        /* \"#utility.yul\":771:776   */\n      0x00\n        /* \"#utility.yul\":809:815   */\n      dup2\n        /* \"#utility.yul\":796:816   */\n      calldataload\n        /* \"#utility.yul\":787:816   */\n      swap1\n      pop\n        /* \"#utility.yul\":825:858   */\n      tag_85\n        /* \"#utility.yul\":852:857   */\n      dup2\n        /* \"#utility.yul\":825:858   */\n      tag_86\n      jump\t// in\n    tag_85:\n        /* \"#utility.yul\":725:864   */\n      swap3\n      swap2\n      pop\n      pop\n      jump\t// out\n        /* \"#utility.yul\":870:1199   */\n    tag_20:\n        /* \"#utility.yul\":929:935   */\n      0x00\n        /* \"#utility.yul\":978:980   */\n      0x20\n        /* \"#utility.yul\":966:975   */\n      dup3\n        /* \"#utility.yul\":957:964   */\n      dup5\n        /* \"#utility.yul\":953:976   */\n      sub\n        /* \"#utility.yul\":949:981   */\n      slt\n        /* \"#utility.yul\":946:1065   */\n      iszero\n      tag_88\n      jumpi\n        /* \"#utility.yul\":984:1063   */\n      tag_89\n      tag_90\n      jump\t// in\n    tag_89:\n        /* \"#utility.yul\":946:1065   */\n    tag_88:\n        /* \"#utility.yul\":1104:1105   */\n      0x00\n        /* \"#utility.yul\":1129:1182   */\n      tag_91\n        /* \"#utility.yul\":1174:1181   */\n      dup5\n        /* \"#utility.yul\":1165:1171   */\n      dup3\n        /* \"#utility.yul\":1154:1163   */\n      dup6\n        /* \"#utility.yul\":1150:1172   */\n      add\n        /* \"#utility.yul\":1129:1182   */\n      tag_68\n      jump\t// in\n    tag_91:\n        /* \"#utility.yul\":1119:1182   */\n      swap2\n      pop\n        /* \"#utility.yul\":1075:1192   */\n      pop\n        /* \"#utility.yul\":870:1199   */\n      swap3\n      swap2\n      pop\n      pop\n      jump\t// out\n        /* \"#utility.yul\":1205:1879   */\n    tag_34:\n        /* \"#utility.yul\":1285:1291   */\n      0x00\n        /* \"#utility.yul\":1293:1299   */\n      dup1\n        /* \"#utility.yul\":1301:1307   */\n      0x00\n        /* \"#utility.yul\":1350:1352   */\n      0x40\n        /* \"#utility.yul\":1338:1347   */\n      dup5\n        /* \"#utility.yul\":1329:1336   */\n      dup7\n        /* \"#utility.yul\":1325:1348   */\n      sub\n        /* \"#utility.yul\":1321:1353   */\n      slt\n        /* \"#utility.yul\":1318:1437   */\n      iszero\n      tag_93\n      jumpi\n        /* \"#utility.yul\":1356:1435   */\n      tag_94\n      tag_90\n      jump\t// in\n    tag_94:\n        /* \"#utility.yul\":1318:1437   */\n    tag_93:\n        /* \"#utility.yul\":1504:1505   */\n      0x00\n        /* \"#utility.yul\":1493:1502   */\n      dup5\n        /* \"#utility.yul\":1489:1506   */\n      add\n        /* \"#utility.yul\":1476:1507   */\n      calldataload\n        /* \"#utility.yul\":1534:1552   */\n      0xffffffffffffffff\n        /* \"#utility.yul\":1526:1532   */\n      dup2\n        /* \"#utility.yul\":1523:1553   */\n      gt\n        /* \"#utility.yul\":1520:1637   */\n      iszero\n      tag_95\n      jumpi\n        /* \"#utility.yul\":1556:1635   */\n      tag_96\n      tag_97\n      jump\t// in\n    tag_96:\n        /* \"#utility.yul\":1520:1637   */\n    tag_95:\n        /* \"#utility.yul\":1669:1734   */\n      tag_98\n        /* \"#utility.yul\":1726:1733   */\n      dup7\n        /* \"#utility.yul\":1717:1723   */\n      dup3\n        /* \"#utility.yul\":1706:1715   */\n      dup8\n        /* \"#utility.yul\":1702:1724   */\n      add\n        /* \"#utility.yul\":1669:1734   */\n      tag_72\n      jump\t// in\n    tag_98:\n        /* \"#utility.yul\":1651:1734   */\n      swap4\n      pop\n      swap4\n      pop\n        /* \"#utility.yul\":1447:1744   */\n      pop\n        /* \"#utility.yul\":1783:1785   */\n      0x20\n        /* \"#utility.yul\":1809:1862   */\n      tag_99\n        /* \"#utility.yul\":1854:1861   */\n      dup7\n        /* \"#utility.yul\":1845:1851   */\n      dup3\n        /* \"#utility.yul\":1834:1843   */\n      dup8\n        /* \"#utility.yul\":1830:1852   */\n      add\n        /* \"#utility.yul\":1809:1862   */\n      tag_83\n      jump\t// in\n    tag_99:\n        /* \"#utility.yul\":1799:1862   */\n      swap2\n      pop\n        /* \"#utility.yul\":1754:1872   */\n      pop\n        /* \"#utility.yul\":1205:1879   */\n      swap3\n      pop\n      swap3\n      pop\n      swap3\n      jump\t// out\n        /* \"#utility.yul\":1885:2249   */\n    tag_100:\n        /* \"#utility.yul\":1973:1976   */\n      0x00\n        /* \"#utility.yul\":2001:2040   */\n      tag_102\n        /* \"#utility.yul\":2034:2039   */\n      dup3\n        /* \"#utility.yul\":2001:2040   */\n      tag_103\n      jump\t// in\n    tag_102:\n        /* \"#utility.yul\":2056:2127   */\n      tag_104\n        /* \"#utility.yul\":2120:2126   */\n      dup2\n        /* \"#utility.yul\":2115:2118   */\n      dup6\n        /* \"#utility.yul\":2056:2127   */\n      tag_105\n      jump\t// in\n    tag_104:\n        /* \"#utility.yul\":2049:2127   */\n      swap4\n      pop\n        /* \"#utility.yul\":2136:2188   */\n      tag_106\n        /* \"#utility.yul\":2181:2187   */\n      dup2\n        /* \"#utility.yul\":2176:2179   */\n      dup6\n        /* \"#utility.yul\":2169:2173   */\n      0x20\n        /* \"#utility.yul\":2162:2167   */\n      dup7\n        /* \"#utility.yul\":2158:2174   */\n      add\n        /* \"#utility.yul\":2136:2188   */\n      tag_107\n      jump\t// in\n    tag_106:\n        /* \"#utility.yul\":2213:2242   */\n      tag_108\n        /* \"#utility.yul\":2235:2241   */\n      dup2\n        /* \"#utility.yul\":2213:2242   */\n      tag_109\n      jump\t// in\n    tag_108:\n        /* \"#utility.yul\":2208:2211   */\n      dup5\n        /* \"#utility.yul\":2204:2243   */\n      add\n        /* \"#utility.yul\":2197:2243   */\n      swap2\n      pop\n        /* \"#utility.yul\":1977:2249   */\n      pop\n        /* \"#utility.yul\":1885:2249   */\n      swap3\n      swap2\n      pop\n      pop\n      jump\t// out\n        /* \"#utility.yul\":2255:2373   */\n    tag_110:\n        /* \"#utility.yul\":2342:2366   */\n      tag_112\n        /* \"#utility.yul\":2360:2365   */\n      dup2\n        /* \"#utility.yul\":2342:2366   */\n      tag_113\n      jump\t// in\n    tag_112:\n        /* \"#utility.yul\":2337:2340   */\n      dup3\n        /* \"#utility.yul\":2330:2367   */\n      mstore\n        /* \"#utility.yul\":2255:2373   */\n      pop\n      pop\n      jump\t// out\n        /* \"#utility.yul\":2379:2692   */\n    tag_17:\n        /* \"#utility.yul\":2492:2496   */\n      0x00\n        /* \"#utility.yul\":2530:2532   */\n      0x20\n        /* \"#utility.yul\":2519:2528   */\n      dup3\n        /* \"#utility.yul\":2515:2533   */\n      add\n        /* \"#utility.yul\":2507:2533   */\n      swap1\n      pop\n        /* \"#utility.yul\":2579:2588   */\n      dup2\n        /* \"#utility.yul\":2573:2577   */\n      dup2\n        /* \"#utility.yul\":2569:2589   */\n      sub\n        /* \"#utility.yul\":2565:2566   */\n      0x00\n        /* \"#utility.yul\":2554:2563   */\n      dup4\n        /* \"#utility.yul\":2550:2567   */\n      add\n        /* \"#utility.yul\":2543:2590   */\n      mstore\n        /* \"#utility.yul\":2607:2685   */\n      tag_115\n        /* \"#utility.yul\":2680:2684   */\n      dup2\n        /* \"#utility.yul\":2671:2677   */\n      dup5\n        /* \"#utility.yul\":2607:2685   */\n      tag_100\n      jump\t// in\n    tag_115:\n        /* \"#utility.yul\":2599:2685   */\n      swap1\n      pop\n        /* \"#utility.yul\":2379:2692   */\n      swap3\n      swap2\n      pop\n      pop\n      jump\t// out\n        /* \"#utility.yul\":2698:2920   */\n    tag_30:\n        /* \"#utility.yul\":2791:2795   */\n      0x00\n        /* \"#utility.yul\":2829:2831   */\n      0x20\n        /* \"#utility.yul\":2818:2827   */\n      dup3\n        /* \"#utility.yul\":2814:2832   */\n      add\n        /* \"#utility.yul\":2806:2832   */\n      swap1\n      pop\n        /* \"#utility.yul\":2842:2913   */\n      tag_117\n        /* \"#utility.yul\":2910:2911   */\n      0x00\n        /* \"#utility.yul\":2899:2908   */\n      dup4\n        /* \"#utility.yul\":2895:2912   */\n      add\n        /* \"#utility.yul\":2886:2892   */\n      dup5\n        /* \"#utility.yul\":2842:2913   */\n      tag_110\n      jump\t// in\n    tag_117:\n        /* \"#utility.yul\":2698:2920   */\n      swap3\n      swap2\n      pop\n      pop\n      jump\t// out\n        /* \"#utility.yul\":3007:3106   */\n    tag_103:\n        /* \"#utility.yul\":3059:3065   */\n      0x00\n        /* \"#utility.yul\":3093:3098   */\n      dup2\n        /* \"#utility.yul\":3087:3099   */\n      mload\n        /* \"#utility.yul\":3077:3099   */\n      swap1\n      pop\n        /* \"#utility.yul\":3007:3106   */\n      swap2\n      swap1\n      pop\n      jump\t// out\n        /* \"#utility.yul\":3112:3281   */\n    tag_105:\n        /* \"#utility.yul\":3196:3207   */\n      0x00\n        /* \"#utility.yul\":3230:3236   */\n      dup3\n        /* \"#utility.yul\":3225:3228   */\n      dup3\n        /* \"#utility.yul\":3218:3237   */\n      mstore\n        /* \"#utility.yul\":3270:3274   */\n      0x20\n        /* \"#utility.yul\":3265:3268   */\n      dup3\n        /* \"#utility.yul\":3261:3275   */\n      add\n        /* \"#utility.yul\":3246:3275   */\n      swap1\n      pop\n        /* \"#utility.yul\":3112:3281   */\n      swap3\n      swap2\n      pop\n      pop\n      jump\t// out\n        /* \"#utility.yul\":3287:3383   */\n    tag_122:\n        /* \"#utility.yul\":3324:3331   */\n      0x00\n        /* \"#utility.yul\":3353:3377   */\n      tag_124\n        /* \"#utility.yul\":3371:3376   */\n      dup3\n        /* \"#utility.yul\":3353:3377   */\n      tag_125\n      jump\t// in\n    tag_124:\n        /* \"#utility.yul\":3342:3377   */\n      swap1\n      pop\n        /* \"#utility.yul\":3287:3383   */\n      swap2\n      swap1\n      pop\n      jump\t// out\n        /* \"#utility.yul\":3389:3515   */\n    tag_125:\n        /* \"#utility.yul\":3426:3433   */\n      0x00\n        /* \"#utility.yul\":3466:3508   */\n      0xffffffffffffffffffffffffffffffffffffffff\n        /* \"#utility.yul\":3459:3464   */\n      dup3\n        /* \"#utility.yul\":3455:3509   */\n      and\n        /* \"#utility.yul\":3444:3509   */\n      swap1\n      pop\n        /* \"#utility.yul\":3389:3515   */\n      swap2\n      swap1\n      pop\n      jump\t// out\n        /* \"#utility.yul\":3521:3598   */\n    tag_113:\n        /* \"#utility.yul\":3558:3565   */\n      0x00\n        /* \"#utility.yul\":3587:3592   */\n      dup2\n        /* \"#utility.yul\":3576:3592   */\n      swap1\n      pop\n        /* \"#utility.yul\":3521:3598   */\n      swap2\n      swap1\n      pop\n      jump\t// out\n        /* \"#utility.yul\":3604:3911   */\n    tag_107:\n        /* \"#utility.yul\":3672:3673   */\n      0x00\n        /* \"#utility.yul\":3682:3795   */\n    tag_129:\n        /* \"#utility.yul\":3696:3702   */\n      dup4\n        /* \"#utility.yul\":3693:3694   */\n      dup2\n        /* \"#utility.yul\":3690:3703   */\n      lt\n        /* \"#utility.yul\":3682:3795   */\n      iszero\n      tag_131\n      jumpi\n        /* \"#utility.yul\":3781:3782   */\n      dup1\n        /* \"#utility.yul\":3776:3779   */\n      dup3\n        /* \"#utility.yul\":3772:3783   */\n      add\n        /* \"#utility.yul\":3766:3784   */\n      mload\n        /* \"#utility.yul\":3762:3763   */\n      dup2\n        /* \"#utility.yul\":3757:3760   */\n      dup5\n        /* \"#utility.yul\":3753:3764   */\n      add\n        /* \"#utility.yul\":3746:3785   */\n      mstore\n        /* \"#utility.yul\":3718:3720   */\n      0x20\n        /* \"#utility.yul\":3715:3716   */\n      dup2\n        /* \"#utility.yul\":3711:3721   */\n      add\n        /* \"#utility.yul\":3706:3721   */\n      swap1\n      pop\n        /* \"#utility.yul\":3682:3795   */\n      jump(tag_129)\n    tag_131:\n        /* \"#utility.yul\":3813:3819   */\n      dup4\n        /* \"#utility.yul\":3810:3811   */\n      dup2\n        /* \"#utility.yul\":3807:3820   */\n      gt\n        /* \"#utility.yul\":3804:3905   */\n      iszero\n      tag_132\n      jumpi\n        /* \"#utility.yul\":3893:3894   */\n      0x00\n        /* \"#utility.yul\":3884:3890   */\n      dup5\n        /* \"#utility.yul\":3879:3882   */\n      dup5\n        /* \"#utility.yul\":3875:3891   */\n      add\n        /* \"#utility.yul\":3868:3895   */\n      mstore\n        /* \"#utility.yul\":3804:3905   */\n    tag_132:\n        /* \"#utility.yul\":3653:3911   */\n      pop\n        /* \"#utility.yul\":3604:3911   */\n      pop\n      pop\n      pop\n      jump\t// out\n        /* \"#utility.yul\":3917:4237   */\n    tag_42:\n        /* \"#utility.yul\":3961:3967   */\n      0x00\n        /* \"#utility.yul\":3998:3999   */\n      0x02\n        /* \"#utility.yul\":3992:3996   */\n      dup3\n        /* \"#utility.yul\":3988:4000   */\n      div\n        /* \"#utility.yul\":3978:4000   */\n      swap1\n      pop\n        /* \"#utility.yul\":4045:4046   */\n      0x01\n        /* \"#utility.yul\":4039:4043   */\n      dup3\n        /* \"#utility.yul\":4035:4047   */\n      and\n        /* \"#utility.yul\":4066:4084   */\n      dup1\n        /* \"#utility.yul\":4056:4137   */\n      tag_134\n      jumpi\n        /* \"#utility.yul\":4122:4126   */\n      0x7f\n        /* \"#utility.yul\":4114:4120   */\n      dup3\n        /* \"#utility.yul\":4110:4127   */\n      and\n        /* \"#utility.yul\":4100:4127   */\n      swap2\n      pop\n        /* \"#utility.yul\":4056:4137   */\n    tag_134:\n        /* \"#utility.yul\":4184:4186   */\n      0x20\n        /* \"#utility.yul\":4176:4182   */\n      dup3\n        /* \"#utility.yul\":4173:4187   */\n      lt\n        /* \"#utility.yul\":4153:4171   */\n      dup2\n        /* \"#utility.yul\":4150:4188   */\n      eq\n        /* \"#utility.yul\":4147:4231   */\n      iszero\n      tag_135\n      jumpi\n        /* \"#utility.yul\":4203:4221   */\n      tag_136\n      tag_137\n      jump\t// in\n    tag_136:\n        /* \"#utility.yul\":4147:4231   */\n    tag_135:\n        /* \"#utility.yul\":3968:4237   */\n      pop\n        /* \"#utility.yul\":3917:4237   */\n      swap2\n      swap1\n      pop\n      jump\t// out\n        /* \"#utility.yul\":4243:4423   */\n    tag_137:\n        /* \"#utility.yul\":4291:4368   */\n      0x4e487b7100000000000000000000000000000000000000000000000000000000\n        /* \"#utility.yul\":4288:4289   */\n      0x00\n        /* \"#utility.yul\":4281:4369   */\n      mstore\n        /* \"#utility.yul\":4388:4392   */\n      0x22\n        /* \"#utility.yul\":4385:4386   */\n      0x04\n        /* \"#utility.yul\":4378:4393   */\n      mstore\n        /* \"#utility.yul\":4412:4416   */\n      0x24\n        /* \"#utility.yul\":4409:4410   */\n      0x00\n        /* \"#utility.yul\":4402:4417   */\n      revert\n        /* \"#utility.yul\":4429:4546   */\n    tag_79:\n        /* \"#utility.yul\":4538:4539   */\n      0x00\n        /* \"#utility.yul\":4535:4536   */\n      dup1\n        /* \"#utility.yul\":4528:4540   */\n      revert\n        /* \"#utility.yul\":4552:4669   */\n    tag_76:\n        /* \"#utility.yul\":4661:4662   */\n      0x00\n        /* \"#utility.yul\":4658:4659   */\n      dup1\n        /* \"#utility.yul\":4651:4663   */\n      revert\n        /* \"#utility.yul\":4675:4792   */\n    tag_82:\n        /* \"#utility.yul\":4784:4785   */\n      0x00\n        /* \"#utility.yul\":4781:4782   */\n      dup1\n        /* \"#utility.yul\":4774:4786   */\n      revert\n        /* \"#utility.yul\":4798:4915   */\n    tag_97:\n        /* \"#utility.yul\":4907:4908   */\n      0x00\n        /* \"#utility.yul\":4904:4905   */\n      dup1\n        /* \"#utility.yul\":4897:4909   */\n      revert\n        /* \"#utility.yul\":4921:5038   */\n    tag_90:\n        /* \"#utility.yul\":5030:5031   */\n      0x00\n        /* \"#utility.yul\":5027:5028   */\n      dup1\n        /* \"#utility.yul\":5020:5032   */\n      revert\n        /* \"#utility.yul\":5044:5146   */\n    tag_109:\n        /* \"#utility.yul\":5085:5091   */\n      0x00\n        /* \"#utility.yul\":5136:5138   */\n      0x1f\n        /* \"#utility.yul\":5132:5139   */\n      not\n        /* \"#utility.yul\":5127:5129   */\n      0x1f\n        /* \"#utility.yul\":5120:5125   */\n      dup4\n        /* \"#utility.yul\":5116:5130   */\n      add\n        /* \"#utility.yul\":5112:5140   */\n      and\n        /* \"#utility.yul\":5102:5140   */\n      swap1\n      pop\n        /* \"#utility.yul\":5044:5146   */\n      swap2\n      swap1\n      pop\n      jump\t// out\n        /* \"#utility.yul\":5152:5274   */\n    tag_71:\n        /* \"#utility.yul\":5225:5249   */\n      tag_146\n        /* \"#utility.yul\":5243:5248   */\n      dup2\n        /* \"#utility.yul\":5225:5249   */\n      tag_122\n      jump\t// in\n    tag_146:\n        /* \"#utility.yul\":5218:5223   */\n      dup2\n        /* \"#utility.yul\":5215:5250   */\n      eq\n        /* \"#utility.yul\":5205:5268   */\n      tag_147\n      jumpi\n        /* \"#utility.yul\":5264:5265   */\n      0x00\n        /* \"#utility.yul\":5261:5262   */\n      dup1\n        /* \"#utility.yul\":5254:5266   */\n      revert\n        /* \"#utility.yul\":5205:5268   */\n    tag_147:\n        /* \"#utility.yul\":5152:5274   */\n      pop\n      jump\t// out\n        /* \"#utility.yul\":5280:5402   */\n    tag_86:\n        /* \"#utility.yul\":5353:5377   */\n      tag_149\n        /* \"#utility.yul\":5371:5376   */\n      dup2\n        /* \"#utility.yul\":5353:5377   */\n      tag_113\n      jump\t// in\n    tag_149:\n        /* \"#utility.yul\":5346:5351   */\n      dup2\n        /* \"#utility.yul\":5343:5378   */\n      eq\n        /* \"#utility.yul\":5333:5396   */\n      tag_150\n      jumpi\n        /* \"#utility.yul\":5392:5393   */\n      0x00\n        /* \"#utility.yul\":5389:5390   */\n      dup1\n        /* \"#utility.yul\":5382:5394   */\n      revert\n        /* \"#utility.yul\":5333:5396   */\n    tag_150:\n        /* \"#utility.yul\":5280:5402   */\n      pop\n      jump\t// out\n\n    auxdata: 0xa264697066735822122067343fb71357a5d6222665b1db1032a4e5a64e8ea7c0b857460f90d09f721d0f64736f6c63430008070033\n}\n",
				"bytecode": {
					"linkReferences": {},
					"object": "60806040526040518060400160405280600781526020017f4d69636861656c000000000000000000000000000000000000000000000000008152506000908051906020019061004f929190610067565b50601e60015534801561006157600080fd5b5061016b565b8280546100739061010a565b90600052602060002090601f01602090048101928261009557600085556100dc565b82601f106100ae57805160ff19168380011785556100dc565b828001600101855582156100dc579182015b828111156100db5782518255916020019190600101906100c0565b5b5090506100e991906100ed565b5090565b5b808211156101065760008160009055506001016100ee565b5090565b6000600282049050600182168061012257607f821691505b602082108114156101365761013561013c565b5b50919050565b7f4e487b7100000000000000000000000000000000000000000000000000000000600052602260045260246000fd5b6106fb8061017a6000396000f3fe6080604052600436106100595760003560e01c806306fdde03146100a657806315996b35146100d157806317d7de7c146100ed578063262a9dff14610118578063af22068e14610143578063e2982c211461016c57610060565b3661006057005b34600260003373ffffffffffffffffffffffffffffffffffffffff1673ffffffffffffffffffffffffffffffffffffffff16815260200190815260200160002081905550005b3480156100b257600080fd5b506100bb6101a9565b6040516100c89190610544565b60405180910390f35b6100eb60048036038101906100e6919061046f565b610237565b005b3480156100f957600080fd5b5061010261027e565b60405161010f9190610544565b60405180910390f35b34801561012457600080fd5b5061012d610310565b60405161013a9190610566565b60405180910390f35b34801561014f57600080fd5b5061016a6004803603810190610165919061049c565b610316565b005b34801561017857600080fd5b50610193600480360381019061018e919061046f565b610334565b6040516101a09190610566565b60405180910390f35b600080546101b69061060c565b80601f01602080910402602001604051908101604052809291908181526020018280546101e29061060c565b801561022f5780601f106102045761010080835404028352916020019161022f565b820191906000526020600020905b81548152906001019060200180831161021257829003601f168201915b505050505081565b34600260008373ffffffffffffffffffffffffffffffffffffffff1673ffffffffffffffffffffffffffffffffffffffff1681526020019081526020016000208190555050565b60606000805461028d9061060c565b80601f01602080910402602001604051908101604052809291908181526020018280546102b99061060c565b80156103065780601f106102db57610100808354040283529160200191610306565b820191906000526020600020905b8154815290600101906020018083116102e957829003601f168201915b5050505050905090565b60015481565b82826000919061032792919061034c565b5080600181905550505050565b60026020528060005260406000206000915090505481565b8280546103589061060c565b90600052602060002090601f01602090048101928261037a57600085556103c1565b82601f1061039357803560ff19168380011785556103c1565b828001600101855582156103c1579182015b828111156103c05782358255916020019190600101906103a5565b5b5090506103ce91906103d2565b5090565b5b808211156103eb5760008160009055506001016103d3565b5090565b6000813590506103fe81610697565b92915050565b60008083601f84011261041a57610419610672565b5b8235905067ffffffffffffffff8111156104375761043661066d565b5b60208301915083600182028301111561045357610452610677565b5b9250929050565b600081359050610469816106ae565b92915050565b60006020828403121561048557610484610681565b5b6000610493848285016103ef565b91505092915050565b6000806000604084860312156104b5576104b4610681565b5b600084013567ffffffffffffffff8111156104d3576104d261067c565b5b6104df86828701610404565b935093505060206104f28682870161045a565b9150509250925092565b600061050782610581565b610511818561058c565b93506105218185602086016105d9565b61052a81610686565b840191505092915050565b61053e816105cf565b82525050565b6000602082019050818103600083015261055e81846104fc565b905092915050565b600060208201905061057b6000830184610535565b92915050565b600081519050919050565b600082825260208201905092915050565b60006105a8826105af565b9050919050565b600073ffffffffffffffffffffffffffffffffffffffff82169050919050565b6000819050919050565b60005b838110156105f75780820151818401526020810190506105dc565b83811115610606576000848401525b50505050565b6000600282049050600182168061062457607f821691505b602082108114156106385761063761063e565b5b50919050565b7f4e487b7100000000000000000000000000000000000000000000000000000000600052602260045260246000fd5b600080fd5b600080fd5b600080fd5b600080fd5b600080fd5b6000601f19601f8301169050919050565b6106a08161059d565b81146106ab57600080fd5b50565b6106b7816105cf565b81146106c257600080fd5b5056fea264697066735822122067343fb71357a5d6222665b1db1032a4e5a64e8ea7c0b857460f90d09f721d0f64736f6c63430008070033",
					"opcodes": "PUSH1 0x80 PUSH1 0x40 MSTORE PUSH1 0x40 MLOAD DUP1 PUSH1 0x40 ADD PUSH1 0x40 MSTORE DUP1 PUSH1 0x7 DUP2 MSTORE PUSH1 0x20 ADD PUSH32 0x4D69636861656C00000000000000000000000000000000000000000000000000 DUP2 MSTORE POP PUSH1 0x0 SWAP1 DUP1 MLOAD SWAP1 PUSH1 0x20 ADD SWAP1 PUSH2 0x4F SWAP3 SWAP2 SWAP1 PUSH2 0x67 JUMP JUMPDEST POP PUSH1 0x1E PUSH1 0x1 SSTORE CALLVALUE DUP1 ISZERO PUSH2 0x61 JUMPI PUSH1 0x0 DUP1 REVERT JUMPDEST POP PUSH2 0x16B JUMP JUMPDEST DUP3 DUP1 SLOAD PUSH2 0x73 SWAP1 PUSH2 0x10A JUMP JUMPDEST SWAP1 PUSH1 0x0 MSTORE PUSH1 0x20 PUSH1 0x0 KECCAK256 SWAP1 PUSH1 0x1F ADD PUSH1 0x20 SWAP1 DIV DUP2 ADD SWAP3 DUP3 PUSH2 0x95 JUMPI PUSH1 0x0 DUP6 SSTORE PUSH2 0xDC JUMP JUMPDEST DUP3 PUSH1 0x1F LT PUSH2 0xAE JUMPI DUP1 MLOAD PUSH1 0xFF NOT AND DUP4 DUP1 ADD OR DUP6 SSTORE PUSH2 0xDC JUMP JUMPDEST DUP3 DUP1 ADD PUSH1 0x1 ADD DUP6 SSTORE DUP3 ISZERO PUSH2 0xDC JUMPI SWAP2 DUP3 ADD JUMPDEST DUP3 DUP2 GT ISZERO PUSH2 0xDB JUMPI DUP3 MLOAD DUP3 SSTORE SWAP2 PUSH1 0x20 ADD SWAP2 SWAP1 PUSH1 0x1 ADD SWAP1 PUSH2 0xC0 JUMP JUMPDEST JUMPDEST POP SWAP1 POP PUSH2 0xE9 SWAP2 SWAP1 PUSH2 0xED JUMP JUMPDEST POP SWAP1 JUMP JUMPDEST JUMPDEST DUP1 DUP3 GT ISZERO PUSH2 0x106 JUMPI PUSH1 0x0 DUP2 PUSH1 0x0 SWAP1 SSTORE POP PUSH1 0x1 ADD PUSH2 0xEE JUMP JUMPDEST POP SWAP1 JUMP JUMPDEST PUSH1 0x0 PUSH1 0x2 DUP3 DIV SWAP1 POP PUSH1 0x1 DUP3 AND DUP1 PUSH2 0x122 JUMPI PUSH1 0x7F DUP3 AND SWAP2 POP JUMPDEST PUSH1 0x20 DUP3 LT DUP2 EQ ISZERO PUSH2 0x136 JUMPI PUSH2 0x135 PUSH2 0x13C JUMP JUMPDEST JUMPDEST POP SWAP2 SWAP1 POP JUMP JUMPDEST PUSH32 0x4E487B7100000000000000000000000000000000000000000000000000000000 PUSH1 0x0 MSTORE PUSH1 0x22 PUSH1 0x4 MSTORE PUSH1 0x24 PUSH1 0x0 REVERT JUMPDEST PUSH2 0x6FB DUP1 PUSH2 0x17A PUSH1 0x0 CODECOPY PUSH1 0x0 RETURN INVALID PUSH1 0x80 PUSH1 0x40 MSTORE PUSH1 0x4 CALLDATASIZE LT PUSH2 0x59 JUMPI PUSH1 0x0 CALLDATALOAD PUSH1 0xE0 SHR DUP1 PUSH4 0x6FDDE03 EQ PUSH2 0xA6 JUMPI DUP1 PUSH4 0x15996B35 EQ PUSH2 0xD1 JUMPI DUP1 PUSH4 0x17D7DE7C EQ PUSH2 0xED JUMPI DUP1 PUSH4 0x262A9DFF EQ PUSH2 0x118 JUMPI DUP1 PUSH4 0xAF22068E EQ PUSH2 0x143 JUMPI DUP1 PUSH4 0xE2982C21 EQ PUSH2 0x16C JUMPI PUSH2 0x60 JUMP JUMPDEST CALLDATASIZE PUSH2 0x60 JUMPI STOP JUMPDEST CALLVALUE PUSH1 0x2 PUSH1 0x0 CALLER PUSH20 0xFFFFFFFFFFFFFFFFFFFFFFFFFFFFFFFFFFFFFFFF AND PUSH20 0xFFFFFFFFFFFFFFFFFFFFFFFFFFFFFFFFFFFFFFFF AND DUP2 MSTORE PUSH1 0x20 ADD SWAP1 DUP2 MSTORE PUSH1 0x20 ADD PUSH1 0x0 KECCAK256 DUP2 SWAP1 SSTORE POP STOP JUMPDEST CALLVALUE DUP1 ISZERO PUSH2 0xB2 JUMPI PUSH1 0x0 DUP1 REVERT JUMPDEST POP PUSH2 0xBB PUSH2 0x1A9 JUMP JUMPDEST PUSH1 0x40 MLOAD PUSH2 0xC8 SWAP2 SWAP1 PUSH2 0x544 JUMP JUMPDEST PUSH1 0x40 MLOAD DUP1 SWAP2 SUB SWAP1 RETURN JUMPDEST PUSH2 0xEB PUSH1 0x4 DUP1 CALLDATASIZE SUB DUP2 ADD SWAP1 PUSH2 0xE6 SWAP2 SWAP1 PUSH2 0x46F JUMP JUMPDEST PUSH2 0x237 JUMP JUMPDEST STOP JUMPDEST CALLVALUE DUP1 ISZERO PUSH2 0xF9 JUMPI PUSH1 0x0 DUP1 REVERT JUMPDEST POP PUSH2 0x102 PUSH2 0x27E JUMP JUMPDEST PUSH1 0x40 MLOAD PUSH2 0x10F SWAP2 SWAP1 PUSH2 0x544 JUMP JUMPDEST PUSH1 0x40 MLOAD DUP1 SWAP2 SUB SWAP1 RETURN JUMPDEST CALLVALUE DUP1 ISZERO PUSH2 0x124 JUMPI PUSH1 0x0 DUP1 REVERT JUMPDEST POP PUSH2 0x12D PUSH2 0x310 JUMP JUMPDEST PUSH1 0x40 MLOAD PUSH2 0x13A SWAP2 SWAP1 PUSH2 0x566 JUMP JUMPDEST PUSH1 0x40 MLOAD DUP1 SWAP2 SUB SWAP1 RETURN JUMPDEST CALLVALUE DUP1 ISZERO PUSH2 0x14F JUMPI PUSH1 0x0 DUP1 REVERT JUMPDEST POP PUSH2 0x16A PUSH1 0x4 DUP1 CALLDATASIZE SUB DUP2 ADD SWAP1 PUSH2 0x165 SWAP2 SWAP1 PUSH2 0x49C JUMP JUMPDEST PUSH2 0x316 JUMP JUMPDEST STOP JUMPDEST CALLVALUE DUP1 ISZERO PUSH2 0x178 JUMPI PUSH1 0x0 DUP1 REVERT JUMPDEST POP PUSH2 0x193 PUSH1 0x4 DUP1 CALLDATASIZE SUB DUP2 ADD SWAP1 PUSH2 0x18E SWAP2 SWAP1 PUSH2 0x46F JUMP JUMPDEST PUSH2 0x334 JUMP JUMPDEST PUSH1 0x40 MLOAD PUSH2 0x1A0 SWAP2 SWAP1 PUSH2 0x566 JUMP JUMPDEST PUSH1 0x40 MLOAD DUP1 SWAP2 SUB SWAP1 RETURN JUMPDEST PUSH1 0x0 DUP1 SLOAD PUSH2 0x1B6 SWAP1 PUSH2 0x60C JUMP JUMPDEST DUP1 PUSH1 0x1F ADD PUSH1 0x20 DUP1 SWAP2 DIV MUL PUSH1 0x20 ADD PUSH1 0x40 MLOAD SWAP1 DUP2 ADD PUSH1 0x40 MSTORE DUP1 SWAP3 SWAP2 SWAP1 DUP2 DUP2 MSTORE PUSH1 0x20 ADD DUP3 DUP1 SLOAD PUSH2 0x1E2 SWAP1 PUSH2 0x60C JUMP JUMPDEST DUP1 ISZERO PUSH2 0x22F JUMPI DUP1 PUSH1 0x1F LT PUSH2 0x204 JUMPI PUSH2 0x100 DUP1 DUP4 SLOAD DIV MUL DUP4 MSTORE SWAP2 PUSH1 0x20 ADD SWAP2 PUSH2 0x22F JUMP JUMPDEST DUP3 ADD SWAP2 SWAP1 PUSH1 0x0 MSTORE PUSH1 0x20 PUSH1 0x0 KECCAK256 SWAP1 JUMPDEST DUP2 SLOAD DUP2 MSTORE SWAP1 PUSH1 0x1 ADD SWAP1 PUSH1 0x20 ADD DUP1 DUP4 GT PUSH2 0x212 JUMPI DUP3 SWAP1 SUB PUSH1 0x1F AND DUP3 ADD SWAP2 JUMPDEST POP POP POP POP POP DUP2 JUMP JUMPDEST CALLVALUE PUSH1 0x2 PUSH1 0x0 DUP4 PUSH20 0xFFFFFFFFFFFFFFFFFFFFFFFFFFFFFFFFFFFFFFFF AND PUSH20 0xFFFFFFFFFFFFFFFFFFFFFFFFFFFFFFFFFFFFFFFF AND DUP2 MSTORE PUSH1 0x20 ADD SWAP1 DUP2 MSTORE PUSH1 0x20 ADD PUSH1 0x0 KECCAK256 DUP2 SWAP1 SSTORE POP POP JUMP JUMPDEST PUSH1 0x60 PUSH1 0x0 DUP1 SLOAD PUSH2 0x28D SWAP1 PUSH2 0x60C JUMP JUMPDEST DUP1 PUSH1 0x1F ADD PUSH1 0x20 DUP1 SWAP2 DIV MUL PUSH1 0x20 ADD PUSH1 0x40 MLOAD SWAP1 DUP2 ADD PUSH1 0x40 MSTORE DUP1 SWAP3 SWAP2 SWAP1 DUP2 DUP2 MSTORE PUSH1 0x20 ADD DUP3 DUP1 SLOAD PUSH2 0x2B9 SWAP1 PUSH2 0x60C JUMP JUMPDEST DUP1 ISZERO PUSH2 0x306 JUMPI DUP1 PUSH1 0x1F LT PUSH2 0x2DB JUMPI PUSH2 0x100 DUP1 DUP4 SLOAD DIV MUL DUP4 MSTORE SWAP2 PUSH1 0x20 ADD SWAP2 PUSH2 0x306 JUMP JUMPDEST DUP3 ADD SWAP2 SWAP1 PUSH1 0x0 MSTORE PUSH1 0x20 PUSH1 0x0 KECCAK256 SWAP1 JUMPDEST DUP2 SLOAD DUP2 MSTORE SWAP1 PUSH1 0x1 ADD SWAP1 PUSH1 0x20 ADD DUP1 DUP4 GT PUSH2 0x2E9 JUMPI DUP3 SWAP1 SUB PUSH1 0x1F AND DUP3 ADD SWAP2 JUMPDEST POP POP POP POP POP SWAP1 POP SWAP1 JUMP JUMPDEST PUSH1 0x1 SLOAD DUP2 JUMP JUMPDEST DUP3 DUP3 PUSH1 0x0 SWAP2 SWAP1 PUSH2 0x327 SWAP3 SWAP2 SWAP1 PUSH2 0x34C JUMP JUMPDEST POP DUP1 PUSH1 0x1 DUP2 SWAP1 SSTORE POP POP POP POP JUMP JUMPDEST PUSH1 0x2 PUSH1 0x20 MSTORE DUP1 PUSH1 0x0 MSTORE PUSH1 0x40 PUSH1 0x0 KECCAK256 PUSH1 0x0 SWAP2 POP SWAP1 POP SLOAD DUP2 JUMP JUMPDEST DUP3 DUP1 SLOAD PUSH2 0x358 SWAP1 PUSH2 0x60C JUMP JUMPDEST SWAP1 PUSH1 0x0 MSTORE PUSH1 0x20 PUSH1 0x0 KECCAK256 SWAP1 PUSH1 0x1F ADD PUSH1 0x20 SWAP1 DIV DUP2 ADD SWAP3 DUP3 PUSH2 0x37A JUMPI PUSH1 0x0 DUP6 SSTORE PUSH2 0x3C1 JUMP JUMPDEST DUP3 PUSH1 0x1F LT PUSH2 0x393 JUMPI DUP1 CALLDATALOAD PUSH1 0xFF NOT AND DUP4 DUP1 ADD OR DUP6 SSTORE PUSH2 0x3C1 JUMP JUMPDEST DUP3 DUP1 ADD PUSH1 0x1 ADD DUP6 SSTORE DUP3 ISZERO PUSH2 0x3C1 JUMPI SWAP2 DUP3 ADD JUMPDEST DUP3 DUP2 GT ISZERO PUSH2 0x3C0 JUMPI DUP3 CALLDATALOAD DUP3 SSTORE SWAP2 PUSH1 0x20 ADD SWAP2 SWAP1 PUSH1 0x1 ADD SWAP1 PUSH2 0x3A5 JUMP JUMPDEST JUMPDEST POP SWAP1 POP PUSH2 0x3CE SWAP2 SWAP1 PUSH2 0x3D2 JUMP JUMPDEST POP SWAP1 JUMP JUMPDEST JUMPDEST DUP1 DUP3 GT ISZERO PUSH2 0x3EB JUMPI PUSH1 0x0 DUP2 PUSH1 0x0 SWAP1 SSTORE POP PUSH1 0x1 ADD PUSH2 0x3D3 JUMP JUMPDEST POP SWAP1 JUMP JUMPDEST PUSH1 0x0 DUP2 CALLDATALOAD SWAP1 POP PUSH2 0x3FE DUP2 PUSH2 0x697 JUMP JUMPDEST SWAP3 SWAP2 POP POP JUMP JUMPDEST PUSH1 0x0 DUP1 DUP4 PUSH1 0x1F DUP5 ADD SLT PUSH2 0x41A JUMPI PUSH2 0x419 PUSH2 0x672 JUMP JUMPDEST JUMPDEST DUP3 CALLDATALOAD SWAP1 POP PUSH8 0xFFFFFFFFFFFFFFFF DUP2 GT ISZERO PUSH2 0x437 JUMPI PUSH2 0x436 PUSH2 0x66D JUMP JUMPDEST JUMPDEST PUSH1 0x20 DUP4 ADD SWAP2 POP DUP4 PUSH1 0x1 DUP3 MUL DUP4 ADD GT ISZERO PUSH2 0x453 JUMPI PUSH2 0x452 PUSH2 0x677 JUMP JUMPDEST JUMPDEST SWAP3 POP SWAP3 SWAP1 POP JUMP JUMPDEST PUSH1 0x0 DUP2 CALLDATALOAD SWAP1 POP PUSH2 0x469 DUP2 PUSH2 0x6AE JUMP JUMPDEST SWAP3 SWAP2 POP POP JUMP JUMPDEST PUSH1 0x0 PUSH1 0x20 DUP3 DUP5 SUB SLT ISZERO PUSH2 0x485 JUMPI PUSH2 0x484 PUSH2 0x681 JUMP JUMPDEST JUMPDEST PUSH1 0x0 PUSH2 0x493 DUP5 DUP3 DUP6 ADD PUSH2 0x3EF JUMP JUMPDEST SWAP2 POP POP SWAP3 SWAP2 POP POP JUMP JUMPDEST PUSH1 0x0 DUP1 PUSH1 0x0 PUSH1 0x40 DUP5 DUP7 SUB SLT ISZERO PUSH2 0x4B5 JUMPI PUSH2 0x4B4 PUSH2 0x681 JUMP JUMPDEST JUMPDEST PUSH1 0x0 DUP5 ADD CALLDATALOAD PUSH8 0xFFFFFFFFFFFFFFFF DUP2 GT ISZERO PUSH2 0x4D3 JUMPI PUSH2 0x4D2 PUSH2 0x67C JUMP JUMPDEST JUMPDEST PUSH2 0x4DF DUP7 DUP3 DUP8 ADD PUSH2 0x404 JUMP JUMPDEST SWAP4 POP SWAP4 POP POP PUSH1 0x20 PUSH2 0x4F2 DUP7 DUP3 DUP8 ADD PUSH2 0x45A JUMP JUMPDEST SWAP2 POP POP SWAP3 POP SWAP3 POP SWAP3 JUMP JUMPDEST PUSH1 0x0 PUSH2 0x507 DUP3 PUSH2 0x581 JUMP JUMPDEST PUSH2 0x511 DUP2 DUP6 PUSH2 0x58C JUMP JUMPDEST SWAP4 POP PUSH2 0x521 DUP2 DUP6 PUSH1 0x20 DUP7 ADD PUSH2 0x5D9 JUMP JUMPDEST PUSH2 0x52A DUP2 PUSH2 0x686 JUMP JUMPDEST DUP5 ADD SWAP2 POP POP SWAP3 SWAP2 POP POP JUMP JUMPDEST PUSH2 0x53E DUP2 PUSH2 0x5CF JUMP JUMPDEST DUP3 MSTORE POP POP JUMP JUMPDEST PUSH1 0x0 PUSH1 0x20 DUP3 ADD SWAP1 POP DUP2 DUP2 SUB PUSH1 0x0 DUP4 ADD MSTORE PUSH2 0x55E DUP2 DUP5 PUSH2 0x4FC JUMP JUMPDEST SWAP1 POP SWAP3 SWAP2 POP POP JUMP JUMPDEST PUSH1 0x0 PUSH1 0x20 DUP3 ADD SWAP1 POP PUSH2 0x57B PUSH1 0x0 DUP4 ADD DUP5 PUSH2 0x535 JUMP JUMPDEST SWAP3 SWAP2 POP POP JUMP JUMPDEST PUSH1 0x0 DUP2 MLOAD SWAP1 POP SWAP2 SWAP1 POP JUMP JUMPDEST PUSH1 0x0 DUP3 DUP3 MSTORE PUSH1 0x20 DUP3 ADD SWAP1 POP SWAP3 SWAP2 POP POP JUMP JUMPDEST PUSH1 0x0 PUSH2 0x5A8 DUP3 PUSH2 0x5AF JUMP JUMPDEST SWAP1 POP SWAP2 SWAP1 POP JUMP JUMPDEST PUSH1 0x0 PUSH20 0xFFFFFFFFFFFFFFFFFFFFFFFFFFFFFFFFFFFFFFFF DUP3 AND SWAP1 POP SWAP2 SWAP1 POP JUMP JUMPDEST PUSH1 0x0 DUP2 SWAP1 POP SWAP2 SWAP1 POP JUMP JUMPDEST PUSH1 0x0 JUMPDEST DUP4 DUP2 LT ISZERO PUSH2 0x5F7 JUMPI DUP1 DUP3 ADD MLOAD DUP2 DUP5 ADD MSTORE PUSH1 0x20 DUP2 ADD SWAP1 POP PUSH2 0x5DC JUMP JUMPDEST DUP4 DUP2 GT ISZERO PUSH2 0x606 JUMPI PUSH1 0x0 DUP5 DUP5 ADD MSTORE JUMPDEST POP POP POP POP JUMP JUMPDEST PUSH1 0x0 PUSH1 0x2 DUP3 DIV SWAP1 POP PUSH1 0x1 DUP3 AND DUP1 PUSH2 0x624 JUMPI PUSH1 0x7F DUP3 AND SWAP2 POP JUMPDEST PUSH1 0x20 DUP3 LT DUP2 EQ ISZERO PUSH2 0x638 JUMPI PUSH2 0x637 PUSH2 0x63E JUMP JUMPDEST JUMPDEST POP SWAP2 SWAP1 POP JUMP JUMPDEST PUSH32 0x4E487B7100000000000000000000000000000000000000000000000000000000 PUSH1 0x0 MSTORE PUSH1 0x22 PUSH1 0x4 MSTORE PUSH1 0x24 PUSH1 0x0 REVERT JUMPDEST PUSH1 0x0 DUP1 REVERT JUMPDEST PUSH1 0x0 DUP1 REVERT JUMPDEST PUSH1 0x0 DUP1 REVERT JUMPDEST PUSH1 0x0 DUP1 REVERT JUMPDEST PUSH1 0x0 DUP1 REVERT JUMPDEST PUSH1 0x0 PUSH1 0x1F NOT PUSH1 0x1F DUP4 ADD AND SWAP1 POP SWAP2 SWAP1 POP JUMP JUMPDEST PUSH2 0x6A0 DUP2 PUSH2 0x59D JUMP JUMPDEST DUP2 EQ PUSH2 0x6AB JUMPI PUSH1 0x0 DUP1 REVERT JUMPDEST POP JUMP JUMPDEST PUSH2 0x6B7 DUP2 PUSH2 0x5CF JUMP JUMPDEST DUP2 EQ PUSH2 0x6C2 JUMPI PUSH1 0x0 DUP1 REVERT JUMPDEST POP JUMP INVALID LOG2 PUSH5 0x6970667358 0x22 SLT KECCAK256 PUSH8 0x343FB71357A5D622 0x26 PUSH6 0xB1DB1032A4E5 0xA6 0x4E DUP15 0xA7 0xC0 0xB8 JUMPI CHAINID 0xF SWAP1 0xD0 SWAP16 PUSH19 0x1D0F64736F6C63430008070033000000000000 "
				},
				"gasEstimates": {
					"creation": {
						"codeDepositCost": "357400",
						"executionCost": "infinite",
						"totalCost": "infinite"
					},
					"external": {
						"": "22397",
						"age()": "2473",
						"getName()": "infinite",
						"name()": "infinite",
						"payments(address)": "2902",
						"receiveMoney(address)": "22634",
						"setData(string,uint256)": "infinite"
					}
				},
				"methodIdentifiers": {
					"age()": "262a9dff",
					"getName()": "17d7de7c",
					"name()": "06fdde03",
					"payments(address)": "e2982c21",
					"receiveMoney(address)": "15996b35",
					"setData(string,uint256)": "af22068e"
				}
			},
			"storageLayout": {
				"storage": [
					{
						"astId": 4,
						"contract": "contracts/Contract interaction/Low-level call/Demo.sol:Demo",
						"label": "name",
						"offset": 0,
						"slot": "0",
						"type": "t_string_storage"
					},
					{
						"astId": 7,
						"contract": "contracts/Contract interaction/Low-level call/Demo.sol:Demo",
						"label": "age",
						"offset": 0,
						"slot": "1",
						"type": "t_uint256"
					},
					{
						"astId": 11,
						"contract": "contracts/Contract interaction/Low-level call/Demo.sol:Demo",
						"label": "payments",
						"offset": 0,
						"slot": "2",
						"type": "t_mapping(t_address,t_uint256)"
					}
				],
				"types": {
					"t_address": {
						"encoding": "inplace",
						"label": "address",
						"numberOfBytes": "20"
					},
					"t_mapping(t_address,t_uint256)": {
						"encoding": "mapping",
						"key": "t_address",
						"label": "mapping(address => uint256)",
						"numberOfBytes": "32",
						"value": "t_uint256"
					},
					"t_string_storage": {
						"encoding": "bytes",
						"label": "string",
						"numberOfBytes": "32"
					},
					"t_uint256": {
						"encoding": "inplace",
						"label": "uint256",
						"numberOfBytes": "32"
					}
				}
			},
			"userdoc": {
				"kind": "user",
				"methods": {},
				"version": 1
			}
		}
	}
}