{
	"contracts/Immutable.sol": {
		"Immutable": {
			"abi": [
				{
					"inputs": [],
					"name": "con",
					"outputs": [
						{
							"internalType": "address",
							"name": "",
							"type": "address"
						}
					],
					"stateMutability": "view",
					"type": "function"
				},
				{
					"inputs": [],
					"name": "cons",
					"outputs": [
						{
							"internalType": "address",
							"name": "",
							"type": "address"
						}
					],
					"stateMutability": "view",
					"type": "function"
				},
				{
					"inputs": [],
					"name": "imm",
					"outputs": [
						{
							"internalType": "address",
							"name": "",
							"type": "address"
						}
					],
					"stateMutability": "view",
					"type": "function"
				},
				{
					"inputs": [],
					"name": "immut",
					"outputs": [
						{
							"internalType": "uint256",
							"name": "",
							"type": "uint256"
						}
					],
					"stateMutability": "view",
					"type": "function"
				}
			],
			"devdoc": {
				"kind": "dev",
				"methods": {},
				"version": 1
			},
			"evm": {
				"assembly": "    /* \"contracts/Immutable.sol\":61:487  contract Immutable {... */\n  mstore(0x40, 0x80)\n    /* \"contracts/Immutable.sol\":108:150  0x5B38Da6a701c568545dCfcB03FcB875f56beddC4 */\n  0x5b38da6a701c568545dcfcb03fcb875f56beddc4\n    /* \"contracts/Immutable.sol\":86:150  address public cons = 0x5B38Da6a701c568545dCfcB03FcB875f56beddC4 */\n  0x00\n  dup1\n  0x0100\n  exp\n  dup2\n  sload\n  dup2\n  0xffffffffffffffffffffffffffffffffffffffff\n  mul\n  not\n  and\n  swap1\n  dup4\n  0xffffffffffffffffffffffffffffffffffffffff\n  and\n  mul\n  or\n  swap1\n  sstore\n  pop\n    /* \"contracts/Immutable.sol\":61:487  contract Immutable {... */\n  callvalue\n  dup1\n  iszero\n  tag_1\n  jumpi\n  0x00\n  dup1\n  revert\ntag_1:\n  pop\n  dataSize(sub_0)\n  dup1\n  dataOffset(sub_0)\n  0x00\n  codecopy\n  0x00\n  return\nstop\n\nsub_0: assembly {\n        /* \"contracts/Immutable.sol\":61:487  contract Immutable {... */\n      mstore(0x40, 0x80)\n      callvalue\n      dup1\n      iszero\n      tag_1\n      jumpi\n      0x00\n      dup1\n      revert\n    tag_1:\n      pop\n      jumpi(tag_2, lt(calldatasize, 0x04))\n      shr(0xe0, calldataload(0x00))\n      dup1\n      0x0b2cb3bc\n      eq\n      tag_3\n      jumpi\n      dup1\n      0x17e02382\n      eq\n      tag_4\n      jumpi\n      dup1\n      0x424e072c\n      eq\n      tag_5\n      jumpi\n      dup1\n      0x465c9df4\n      eq\n      tag_6\n      jumpi\n    tag_2:\n      0x00\n      dup1\n      revert\n        /* \"contracts/Immutable.sol\":156:228  address public constant con = 0x5B38Da6a701c568545dCfcB03FcB875f56beddC4 */\n    tag_3:\n      tag_7\n      tag_8\n      jump\t// in\n    tag_7:\n      mload(0x40)\n      tag_9\n      swap2\n      swap1\n      tag_10\n      jump\t// in\n    tag_9:\n      mload(0x40)\n      dup1\n      swap2\n      sub\n      swap1\n      return\n        /* \"contracts/Immutable.sol\":367:485  function immut() public view returns(uint) {... */\n    tag_4:\n      tag_11\n      tag_12\n      jump\t// in\n    tag_11:\n      mload(0x40)\n      tag_13\n      swap2\n      swap1\n      tag_14\n      jump\t// in\n    tag_13:\n      mload(0x40)\n      dup1\n      swap2\n      sub\n      swap1\n      return\n        /* \"contracts/Immutable.sol\":242:274  address public /*immutable*/ imm */\n    tag_5:\n      tag_15\n      tag_16\n      jump\t// in\n    tag_15:\n      mload(0x40)\n      tag_17\n      swap2\n      swap1\n      tag_10\n      jump\t// in\n    tag_17:\n      mload(0x40)\n      dup1\n      swap2\n      sub\n      swap1\n      return\n        /* \"contracts/Immutable.sol\":86:150  address public cons = 0x5B38Da6a701c568545dCfcB03FcB875f56beddC4 */\n    tag_6:\n      tag_18\n      tag_19\n      jump\t// in\n    tag_18:\n      mload(0x40)\n      tag_20\n      swap2\n      swap1\n      tag_10\n      jump\t// in\n    tag_20:\n      mload(0x40)\n      dup1\n      swap2\n      sub\n      swap1\n      return\n        /* \"contracts/Immutable.sol\":156:228  address public constant con = 0x5B38Da6a701c568545dCfcB03FcB875f56beddC4 */\n    tag_8:\n        /* \"contracts/Immutable.sol\":186:228  0x5B38Da6a701c568545dCfcB03FcB875f56beddC4 */\n      0x5b38da6a701c568545dcfcb03fcb875f56beddc4\n        /* \"contracts/Immutable.sol\":156:228  address public constant con = 0x5B38Da6a701c568545dCfcB03FcB875f56beddC4 */\n      dup2\n      jump\t// out\n        /* \"contracts/Immutable.sol\":367:485  function immut() public view returns(uint) {... */\n    tag_12:\n        /* \"contracts/Immutable.sol\":404:408  uint */\n      0x00\n        /* \"contracts/Immutable.sol\":442:445  imm */\n      0x01\n      0x00\n      swap1\n      sload\n      swap1\n      0x0100\n      exp\n      swap1\n      div\n      0xffffffffffffffffffffffffffffffffffffffff\n      and\n        /* \"contracts/Immutable.sol\":428:445  msg.sender == imm */\n      0xffffffffffffffffffffffffffffffffffffffff\n      and\n        /* \"contracts/Immutable.sol\":428:438  msg.sender */\n      caller\n        /* \"contracts/Immutable.sol\":428:445  msg.sender == imm */\n      0xffffffffffffffffffffffffffffffffffffffff\n      and\n      eq\n        /* \"contracts/Immutable.sol\":420:450  require(msg.sender == imm, \"\") */\n      tag_22\n      jumpi\n      mload(0x40)\n      0x08c379a000000000000000000000000000000000000000000000000000000000\n      dup2\n      mstore\n      0x04\n      add\n      tag_23\n      swap1\n      tag_24\n      jump\t// in\n    tag_23:\n      mload(0x40)\n      dup1\n      swap2\n      sub\n      swap1\n      revert\n    tag_22:\n        /* \"contracts/Immutable.sol\":468:470  42 */\n      0x2a\n        /* \"contracts/Immutable.sol\":461:470  return 42 */\n      swap1\n      pop\n        /* \"contracts/Immutable.sol\":367:485  function immut() public view returns(uint) {... */\n      swap1\n      jump\t// out\n        /* \"contracts/Immutable.sol\":242:274  address public /*immutable*/ imm */\n    tag_16:\n      0x01\n      0x00\n      swap1\n      sload\n      swap1\n      0x0100\n      exp\n      swap1\n      div\n      0xffffffffffffffffffffffffffffffffffffffff\n      and\n      dup2\n      jump\t// out\n        /* \"contracts/Immutable.sol\":86:150  address public cons = 0x5B38Da6a701c568545dCfcB03FcB875f56beddC4 */\n    tag_19:\n      0x00\n      dup1\n      sload\n      swap1\n      0x0100\n      exp\n      swap1\n      div\n      0xffffffffffffffffffffffffffffffffffffffff\n      and\n      dup2\n      jump\t// out\n        /* \"#utility.yul\":7:125   */\n    tag_26:\n        /* \"#utility.yul\":94:118   */\n      tag_28\n        /* \"#utility.yul\":112:117   */\n      dup2\n        /* \"#utility.yul\":94:118   */\n      tag_29\n      jump\t// in\n    tag_28:\n        /* \"#utility.yul\":89:92   */\n      dup3\n        /* \"#utility.yul\":82:119   */\n      mstore\n        /* \"#utility.yul\":7:125   */\n      pop\n      pop\n      jump\t// out\n        /* \"#utility.yul\":131:495   */\n    tag_30:\n        /* \"#utility.yul\":273:276   */\n      0x00\n        /* \"#utility.yul\":294:360   */\n      tag_32\n        /* \"#utility.yul\":358:359   */\n      0x00\n        /* \"#utility.yul\":353:356   */\n      dup4\n        /* \"#utility.yul\":294:360   */\n      tag_33\n      jump\t// in\n    tag_32:\n        /* \"#utility.yul\":287:360   */\n      swap2\n      pop\n        /* \"#utility.yul\":369:462   */\n      tag_34\n        /* \"#utility.yul\":458:461   */\n      dup3\n        /* \"#utility.yul\":369:462   */\n      tag_35\n      jump\t// in\n    tag_34:\n        /* \"#utility.yul\":487:488   */\n      0x00\n        /* \"#utility.yul\":482:485   */\n      dup3\n        /* \"#utility.yul\":478:489   */\n      add\n        /* \"#utility.yul\":471:489   */\n      swap1\n      pop\n        /* \"#utility.yul\":131:495   */\n      swap2\n      swap1\n      pop\n      jump\t// out\n        /* \"#utility.yul\":501:619   */\n    tag_36:\n        /* \"#utility.yul\":588:612   */\n      tag_38\n        /* \"#utility.yul\":606:611   */\n      dup2\n        /* \"#utility.yul\":588:612   */\n      tag_39\n      jump\t// in\n    tag_38:\n        /* \"#utility.yul\":583:586   */\n      dup3\n        /* \"#utility.yul\":576:613   */\n      mstore\n        /* \"#utility.yul\":501:619   */\n      pop\n      pop\n      jump\t// out\n        /* \"#utility.yul\":625:847   */\n    tag_10:\n        /* \"#utility.yul\":718:722   */\n      0x00\n        /* \"#utility.yul\":756:758   */\n      0x20\n        /* \"#utility.yul\":745:754   */\n      dup3\n        /* \"#utility.yul\":741:759   */\n      add\n        /* \"#utility.yul\":733:759   */\n      swap1\n      pop\n        /* \"#utility.yul\":769:840   */\n      tag_41\n        /* \"#utility.yul\":837:838   */\n      0x00\n        /* \"#utility.yul\":826:835   */\n      dup4\n        /* \"#utility.yul\":822:839   */\n      add\n        /* \"#utility.yul\":813:819   */\n      dup5\n        /* \"#utility.yul\":769:840   */\n      tag_26\n      jump\t// in\n    tag_41:\n        /* \"#utility.yul\":625:847   */\n      swap3\n      swap2\n      pop\n      pop\n      jump\t// out\n        /* \"#utility.yul\":853:1272   */\n    tag_24:\n        /* \"#utility.yul\":1019:1023   */\n      0x00\n        /* \"#utility.yul\":1057:1059   */\n      0x20\n        /* \"#utility.yul\":1046:1055   */\n      dup3\n        /* \"#utility.yul\":1042:1060   */\n      add\n        /* \"#utility.yul\":1034:1060   */\n      swap1\n      pop\n        /* \"#utility.yul\":1106:1115   */\n      dup2\n        /* \"#utility.yul\":1100:1104   */\n      dup2\n        /* \"#utility.yul\":1096:1116   */\n      sub\n        /* \"#utility.yul\":1092:1093   */\n      0x00\n        /* \"#utility.yul\":1081:1090   */\n      dup4\n        /* \"#utility.yul\":1077:1094   */\n      add\n        /* \"#utility.yul\":1070:1117   */\n      mstore\n        /* \"#utility.yul\":1134:1265   */\n      tag_43\n        /* \"#utility.yul\":1260:1264   */\n      dup2\n        /* \"#utility.yul\":1134:1265   */\n      tag_30\n      jump\t// in\n    tag_43:\n        /* \"#utility.yul\":1126:1265   */\n      swap1\n      pop\n        /* \"#utility.yul\":853:1272   */\n      swap2\n      swap1\n      pop\n      jump\t// out\n        /* \"#utility.yul\":1278:1500   */\n    tag_14:\n        /* \"#utility.yul\":1371:1375   */\n      0x00\n        /* \"#utility.yul\":1409:1411   */\n      0x20\n        /* \"#utility.yul\":1398:1407   */\n      dup3\n        /* \"#utility.yul\":1394:1412   */\n      add\n        /* \"#utility.yul\":1386:1412   */\n      swap1\n      pop\n        /* \"#utility.yul\":1422:1493   */\n      tag_45\n        /* \"#utility.yul\":1490:1491   */\n      0x00\n        /* \"#utility.yul\":1479:1488   */\n      dup4\n        /* \"#utility.yul\":1475:1492   */\n      add\n        /* \"#utility.yul\":1466:1472   */\n      dup5\n        /* \"#utility.yul\":1422:1493   */\n      tag_36\n      jump\t// in\n    tag_45:\n        /* \"#utility.yul\":1278:1500   */\n      swap3\n      swap2\n      pop\n      pop\n      jump\t// out\n        /* \"#utility.yul\":1506:1675   */\n    tag_33:\n        /* \"#utility.yul\":1590:1601   */\n      0x00\n        /* \"#utility.yul\":1624:1630   */\n      dup3\n        /* \"#utility.yul\":1619:1622   */\n      dup3\n        /* \"#utility.yul\":1612:1631   */\n      mstore\n        /* \"#utility.yul\":1664:1668   */\n      0x20\n        /* \"#utility.yul\":1659:1662   */\n      dup3\n        /* \"#utility.yul\":1655:1669   */\n      add\n        /* \"#utility.yul\":1640:1669   */\n      swap1\n      pop\n        /* \"#utility.yul\":1506:1675   */\n      swap3\n      swap2\n      pop\n      pop\n      jump\t// out\n        /* \"#utility.yul\":1681:1777   */\n    tag_29:\n        /* \"#utility.yul\":1718:1725   */\n      0x00\n        /* \"#utility.yul\":1747:1771   */\n      tag_48\n        /* \"#utility.yul\":1765:1770   */\n      dup3\n        /* \"#utility.yul\":1747:1771   */\n      tag_49\n      jump\t// in\n    tag_48:\n        /* \"#utility.yul\":1736:1771   */\n      swap1\n      pop\n        /* \"#utility.yul\":1681:1777   */\n      swap2\n      swap1\n      pop\n      jump\t// out\n        /* \"#utility.yul\":1783:1909   */\n    tag_49:\n        /* \"#utility.yul\":1820:1827   */\n      0x00\n        /* \"#utility.yul\":1860:1902   */\n      0xffffffffffffffffffffffffffffffffffffffff\n        /* \"#utility.yul\":1853:1858   */\n      dup3\n        /* \"#utility.yul\":1849:1903   */\n      and\n        /* \"#utility.yul\":1838:1903   */\n      swap1\n      pop\n        /* \"#utility.yul\":1783:1909   */\n      swap2\n      swap1\n      pop\n      jump\t// out\n        /* \"#utility.yul\":1915:1992   */\n    tag_39:\n        /* \"#utility.yul\":1952:1959   */\n      0x00\n        /* \"#utility.yul\":1981:1986   */\n      dup2\n        /* \"#utility.yul\":1970:1986   */\n      swap1\n      pop\n        /* \"#utility.yul\":1915:1992   */\n      swap2\n      swap1\n      pop\n      jump\t// out\n        /* \"#utility.yul\":1998:2112   */\n    tag_35:\n      pop\n      jump\t// out\n\n    auxdata: 0xa2646970667358221220535a98425af38ba8c2a1d3ed8842ee565097ee2c02eb6ad0831c0774092513ba64736f6c63430008070033\n}\n",
				"bytecode": {
					"linkReferences": {},
					"object": "6080604052735b38da6a701c568545dcfcb03fcb875f56beddc46000806101000a81548173ffffffffffffffffffffffffffffffffffffffff021916908373ffffffffffffffffffffffffffffffffffffffff16021790555034801561006457600080fd5b506102e1806100746000396000f3fe608060405234801561001057600080fd5b506004361061004c5760003560e01c80630b2cb3bc1461005157806317e023821461006f578063424e072c1461008d578063465c9df4146100ab575b600080fd5b6100596100c9565b6040516100669190610205565b60405180910390f35b6100776100e1565b6040516100849190610240565b60405180910390f35b61009561017a565b6040516100a29190610205565b60405180910390f35b6100b36101a0565b6040516100c09190610205565b60405180910390f35b735b38da6a701c568545dcfcb03fcb875f56beddc481565b6000600160009054906101000a900473ffffffffffffffffffffffffffffffffffffffff1673ffffffffffffffffffffffffffffffffffffffff163373ffffffffffffffffffffffffffffffffffffffff1614610173576040517f08c379a000000000000000000000000000000000000000000000000000000000815260040161016a90610220565b60405180910390fd5b602a905090565b600160009054906101000a900473ffffffffffffffffffffffffffffffffffffffff1681565b60008054906101000a900473ffffffffffffffffffffffffffffffffffffffff1681565b6101cd8161026c565b82525050565b60006101e060008361025b565b91506101eb826102a8565b600082019050919050565b6101ff8161029e565b82525050565b600060208201905061021a60008301846101c4565b92915050565b60006020820190508181036000830152610239816101d3565b9050919050565b600060208201905061025560008301846101f6565b92915050565b600082825260208201905092915050565b60006102778261027e565b9050919050565b600073ffffffffffffffffffffffffffffffffffffffff82169050919050565b6000819050919050565b5056fea2646970667358221220535a98425af38ba8c2a1d3ed8842ee565097ee2c02eb6ad0831c0774092513ba64736f6c63430008070033",
					"opcodes": "PUSH1 0x80 PUSH1 0x40 MSTORE PUSH20 0x5B38DA6A701C568545DCFCB03FCB875F56BEDDC4 PUSH1 0x0 DUP1 PUSH2 0x100 EXP DUP2 SLOAD DUP2 PUSH20 0xFFFFFFFFFFFFFFFFFFFFFFFFFFFFFFFFFFFFFFFF MUL NOT AND SWAP1 DUP4 PUSH20 0xFFFFFFFFFFFFFFFFFFFFFFFFFFFFFFFFFFFFFFFF AND MUL OR SWAP1 SSTORE POP CALLVALUE DUP1 ISZERO PUSH2 0x64 JUMPI PUSH1 0x0 DUP1 REVERT JUMPDEST POP PUSH2 0x2E1 DUP1 PUSH2 0x74 PUSH1 0x0 CODECOPY PUSH1 0x0 RETURN INVALID PUSH1 0x80 PUSH1 0x40 MSTORE CALLVALUE DUP1 ISZERO PUSH2 0x10 JUMPI PUSH1 0x0 DUP1 REVERT JUMPDEST POP PUSH1 0x4 CALLDATASIZE LT PUSH2 0x4C JUMPI PUSH1 0x0 CALLDATALOAD PUSH1 0xE0 SHR DUP1 PUSH4 0xB2CB3BC EQ PUSH2 0x51 JUMPI DUP1 PUSH4 0x17E02382 EQ PUSH2 0x6F JUMPI DUP1 PUSH4 0x424E072C EQ PUSH2 0x8D JUMPI DUP1 PUSH4 0x465C9DF4 EQ PUSH2 0xAB JUMPI JUMPDEST PUSH1 0x0 DUP1 REVERT JUMPDEST PUSH2 0x59 PUSH2 0xC9 JUMP JUMPDEST PUSH1 0x40 MLOAD PUSH2 0x66 SWAP2 SWAP1 PUSH2 0x205 JUMP JUMPDEST PUSH1 0x40 MLOAD DUP1 SWAP2 SUB SWAP1 RETURN JUMPDEST PUSH2 0x77 PUSH2 0xE1 JUMP JUMPDEST PUSH1 0x40 MLOAD PUSH2 0x84 SWAP2 SWAP1 PUSH2 0x240 JUMP JUMPDEST PUSH1 0x40 MLOAD DUP1 SWAP2 SUB SWAP1 RETURN JUMPDEST PUSH2 0x95 PUSH2 0x17A JUMP JUMPDEST PUSH1 0x40 MLOAD PUSH2 0xA2 SWAP2 SWAP1 PUSH2 0x205 JUMP JUMPDEST PUSH1 0x40 MLOAD DUP1 SWAP2 SUB SWAP1 RETURN JUMPDEST PUSH2 0xB3 PUSH2 0x1A0 JUMP JUMPDEST PUSH1 0x40 MLOAD PUSH2 0xC0 SWAP2 SWAP1 PUSH2 0x205 JUMP JUMPDEST PUSH1 0x40 MLOAD DUP1 SWAP2 SUB SWAP1 RETURN JUMPDEST PUSH20 0x5B38DA6A701C568545DCFCB03FCB875F56BEDDC4 DUP2 JUMP JUMPDEST PUSH1 0x0 PUSH1 0x1 PUSH1 0x0 SWAP1 SLOAD SWAP1 PUSH2 0x100 EXP SWAP1 DIV PUSH20 0xFFFFFFFFFFFFFFFFFFFFFFFFFFFFFFFFFFFFFFFF AND PUSH20 0xFFFFFFFFFFFFFFFFFFFFFFFFFFFFFFFFFFFFFFFF AND CALLER PUSH20 0xFFFFFFFFFFFFFFFFFFFFFFFFFFFFFFFFFFFFFFFF AND EQ PUSH2 0x173 JUMPI PUSH1 0x40 MLOAD PUSH32 0x8C379A000000000000000000000000000000000000000000000000000000000 DUP2 MSTORE PUSH1 0x4 ADD PUSH2 0x16A SWAP1 PUSH2 0x220 JUMP JUMPDEST PUSH1 0x40 MLOAD DUP1 SWAP2 SUB SWAP1 REVERT JUMPDEST PUSH1 0x2A SWAP1 POP SWAP1 JUMP JUMPDEST PUSH1 0x1 PUSH1 0x0 SWAP1 SLOAD SWAP1 PUSH2 0x100 EXP SWAP1 DIV PUSH20 0xFFFFFFFFFFFFFFFFFFFFFFFFFFFFFFFFFFFFFFFF AND DUP2 JUMP JUMPDEST PUSH1 0x0 DUP1 SLOAD SWAP1 PUSH2 0x100 EXP SWAP1 DIV PUSH20 0xFFFFFFFFFFFFFFFFFFFFFFFFFFFFFFFFFFFFFFFF AND DUP2 JUMP JUMPDEST PUSH2 0x1CD DUP2 PUSH2 0x26C JUMP JUMPDEST DUP3 MSTORE POP POP JUMP JUMPDEST PUSH1 0x0 PUSH2 0x1E0 PUSH1 0x0 DUP4 PUSH2 0x25B JUMP JUMPDEST SWAP2 POP PUSH2 0x1EB DUP3 PUSH2 0x2A8 JUMP JUMPDEST PUSH1 0x0 DUP3 ADD SWAP1 POP SWAP2 SWAP1 POP JUMP JUMPDEST PUSH2 0x1FF DUP2 PUSH2 0x29E JUMP JUMPDEST DUP3 MSTORE POP POP JUMP JUMPDEST PUSH1 0x0 PUSH1 0x20 DUP3 ADD SWAP1 POP PUSH2 0x21A PUSH1 0x0 DUP4 ADD DUP5 PUSH2 0x1C4 JUMP JUMPDEST SWAP3 SWAP2 POP POP JUMP JUMPDEST PUSH1 0x0 PUSH1 0x20 DUP3 ADD SWAP1 POP DUP2 DUP2 SUB PUSH1 0x0 DUP4 ADD MSTORE PUSH2 0x239 DUP2 PUSH2 0x1D3 JUMP JUMPDEST SWAP1 POP SWAP2 SWAP1 POP JUMP JUMPDEST PUSH1 0x0 PUSH1 0x20 DUP3 ADD SWAP1 POP PUSH2 0x255 PUSH1 0x0 DUP4 ADD DUP5 PUSH2 0x1F6 JUMP JUMPDEST SWAP3 SWAP2 POP POP JUMP JUMPDEST PUSH1 0x0 DUP3 DUP3 MSTORE PUSH1 0x20 DUP3 ADD SWAP1 POP SWAP3 SWAP2 POP POP JUMP JUMPDEST PUSH1 0x0 PUSH2 0x277 DUP3 PUSH2 0x27E JUMP JUMPDEST SWAP1 POP SWAP2 SWAP1 POP JUMP JUMPDEST PUSH1 0x0 PUSH20 0xFFFFFFFFFFFFFFFFFFFFFFFFFFFFFFFFFFFFFFFF DUP3 AND SWAP1 POP SWAP2 SWAP1 POP JUMP JUMPDEST PUSH1 0x0 DUP2 SWAP1 POP SWAP2 SWAP1 POP JUMP JUMPDEST POP JUMP INVALID LOG2 PUSH5 0x6970667358 0x22 SLT KECCAK256 MSTORE8 GAS SWAP9 TIMESTAMP GAS RETURN DUP12 0xA8 0xC2 LOG1 0xD3 0xED DUP9 TIMESTAMP 0xEE JUMP POP SWAP8 0xEE 0x2C MUL 0xEB PUSH11 0xD0831C0774092513BA6473 PUSH16 0x6C634300080700330000000000000000 "
				},
				"gasEstimates": {
					"creation": {
						"codeDepositCost": "147400",
						"executionCost": "24463",
						"totalCost": "171863"
					},
					"external": {
						"con()": "356",
						"cons()": "2555",
						"imm()": "2536",
						"immut()": "2588"
					}
				},
				"methodIdentifiers": {
					"con()": "0b2cb3bc",
					"cons()": "465c9df4",
					"imm()": "424e072c",
					"immut()": "17e02382"
				}
			},
			"storageLayout": {
				"storage": [
					{
						"astId": 4,
						"contract": "contracts/Immutable.sol:Immutable",
						"label": "cons",
						"offset": 0,
						"slot": "0",
						"type": "t_address"
					},
					{
						"astId": 9,
						"contract": "contracts/Immutable.sol:Immutable",
						"label": "imm",
						"offset": 0,
						"slot": "1",
						"type": "t_address"
					}
				],
				"types": {
					"t_address": {
						"encoding": "inplace",
						"label": "address",
						"numberOfBytes": "20"
					}
				}
			},
			"userdoc": {
				"kind": "user",
				"methods": {},
				"version": 1
			}
		}
	}
}