{
	"contracts/FundsDemo.sol": {
		"FundsDemo": {
			"abi": [
				{
					"inputs": [],
					"name": "balanceReceived",
					"outputs": [
						{
							"internalType": "uint256",
							"name": "",
							"type": "uint256"
						}
					],
					"stateMutability": "view",
					"type": "function"
				},
				{
					"inputs": [],
					"name": "balanceToRec",
					"outputs": [
						{
							"internalType": "uint256",
							"name": "",
							"type": "uint256"
						}
					],
					"stateMutability": "view",
					"type": "function"
				},
				{
					"inputs": [],
					"name": "getBalance",
					"outputs": [
						{
							"internalType": "uint256",
							"name": "",
							"type": "uint256"
						}
					],
					"stateMutability": "view",
					"type": "function"
				},
				{
					"inputs": [],
					"name": "receiveMoney",
					"outputs": [],
					"stateMutability": "payable",
					"type": "function"
				},
				{
					"inputs": [
						{
							"internalType": "uint256",
							"name": "_sendMoney",
							"type": "uint256"
						}
					],
					"name": "someMoney",
					"outputs": [],
					"stateMutability": "nonpayable",
					"type": "function"
				},
				{
					"inputs": [],
					"name": "withdrawMoney",
					"outputs": [],
					"stateMutability": "nonpayable",
					"type": "function"
				}
			],
			"devdoc": {
				"kind": "dev",
				"methods": {},
				"version": 1
			},
			"evm": {
				"assembly": "    /* \"contracts/FundsDemo.sol\":61:569  contract FundsDemo {... */\n  mstore(0x40, 0x80)\n  callvalue\n  dup1\n  iszero\n  tag_1\n  jumpi\n  0x00\n  dup1\n  revert\ntag_1:\n  pop\n  dataSize(sub_0)\n  dup1\n  dataOffset(sub_0)\n  0x00\n  codecopy\n  0x00\n  return\nstop\n\nsub_0: assembly {\n        /* \"contracts/FundsDemo.sol\":61:569  contract FundsDemo {... */\n      mstore(0x40, 0x80)\n      jumpi(tag_1, lt(calldatasize, 0x04))\n      shr(0xe0, calldataload(0x00))\n      dup1\n      0x12065fe0\n      eq\n      tag_2\n      jumpi\n      dup1\n      0x3bf1ed43\n      eq\n      tag_3\n      jumpi\n      dup1\n      0x52a90c42\n      eq\n      tag_4\n      jumpi\n      dup1\n      0x6d26ec18\n      eq\n      tag_5\n      jumpi\n      dup1\n      0xac446002\n      eq\n      tag_6\n      jumpi\n      dup1\n      0xfee389ad\n      eq\n      tag_7\n      jumpi\n    tag_1:\n      0x00\n      dup1\n      revert\n        /* \"contracts/FundsDemo.sol\":240:334  function getBalance() public view returns (uint) {... */\n    tag_2:\n      callvalue\n      dup1\n      iszero\n      tag_8\n      jumpi\n      0x00\n      dup1\n      revert\n    tag_8:\n      pop\n      tag_9\n      tag_10\n      jump\t// in\n    tag_9:\n      mload(0x40)\n      tag_11\n      swap2\n      swap1\n      tag_12\n      jump\t// in\n    tag_11:\n      mload(0x40)\n      dup1\n      swap2\n      sub\n      swap1\n      return\n        /* \"contracts/FundsDemo.sol\":340:425  function someMoney(uint _sendMoney) public {... */\n    tag_3:\n      callvalue\n      dup1\n      iszero\n      tag_13\n      jumpi\n      0x00\n      dup1\n      revert\n    tag_13:\n      pop\n      tag_14\n      0x04\n      dup1\n      calldatasize\n      sub\n      dup2\n      add\n      swap1\n      tag_15\n      swap2\n      swap1\n      tag_16\n      jump\t// in\n    tag_15:\n      tag_17\n      jump\t// in\n    tag_14:\n      stop\n        /* \"contracts/FundsDemo.sol\":86:113  uint public balanceReceived */\n    tag_4:\n      callvalue\n      dup1\n      iszero\n      tag_18\n      jumpi\n      0x00\n      dup1\n      revert\n    tag_18:\n      pop\n      tag_19\n      tag_20\n      jump\t// in\n    tag_19:\n      mload(0x40)\n      tag_21\n      swap2\n      swap1\n      tag_12\n      jump\t// in\n    tag_21:\n      mload(0x40)\n      dup1\n      swap2\n      sub\n      swap1\n      return\n        /* \"contracts/FundsDemo.sol\":150:234  function receiveMoney() public payable {... */\n    tag_5:\n      tag_22\n      tag_23\n      jump\t// in\n    tag_22:\n      stop\n        /* \"contracts/FundsDemo.sol\":431:567  function withdrawMoney() public {... */\n    tag_6:\n      callvalue\n      dup1\n      iszero\n      tag_24\n      jumpi\n      0x00\n      dup1\n      revert\n    tag_24:\n      pop\n      tag_25\n      tag_26\n      jump\t// in\n    tag_25:\n      stop\n        /* \"contracts/FundsDemo.sol\":119:143  uint public balanceToRec */\n    tag_7:\n      callvalue\n      dup1\n      iszero\n      tag_27\n      jumpi\n      0x00\n      dup1\n      revert\n    tag_27:\n      pop\n      tag_28\n      tag_29\n      jump\t// in\n    tag_28:\n      mload(0x40)\n      tag_30\n      swap2\n      swap1\n      tag_12\n      jump\t// in\n    tag_30:\n      mload(0x40)\n      dup1\n      swap2\n      sub\n      swap1\n      return\n        /* \"contracts/FundsDemo.sol\":240:334  function getBalance() public view returns (uint) {... */\n    tag_10:\n        /* \"contracts/FundsDemo.sol\":283:287  uint */\n      0x00\n        /* \"contracts/FundsDemo.sol\":306:327  address(this).balance */\n      selfbalance\n        /* \"contracts/FundsDemo.sol\":299:327  return address(this).balance */\n      swap1\n      pop\n        /* \"contracts/FundsDemo.sol\":240:334  function getBalance() public view returns (uint) {... */\n      swap1\n      jump\t// out\n        /* \"contracts/FundsDemo.sol\":340:425  function someMoney(uint _sendMoney) public {... */\n    tag_17:\n        /* \"contracts/FundsDemo.sol\":408:418  _sendMoney */\n      dup1\n        /* \"contracts/FundsDemo.sol\":393:405  balanceToRec */\n      0x01\n        /* \"contracts/FundsDemo.sol\":393:418  balanceToRec = _sendMoney */\n      dup2\n      swap1\n      sstore\n      pop\n        /* \"contracts/FundsDemo.sol\":340:425  function someMoney(uint _sendMoney) public {... */\n      pop\n      jump\t// out\n        /* \"contracts/FundsDemo.sol\":86:113  uint public balanceReceived */\n    tag_20:\n      sload(0x00)\n      dup2\n      jump\t// out\n        /* \"contracts/FundsDemo.sol\":150:234  function receiveMoney() public payable {... */\n    tag_23:\n        /* \"contracts/FundsDemo.sol\":218:227  msg.value */\n      callvalue\n        /* \"contracts/FundsDemo.sol\":199:214  balanceReceived */\n      0x00\n      dup1\n        /* \"contracts/FundsDemo.sol\":199:227  balanceReceived += msg.value */\n      dup3\n      dup3\n      sload\n      tag_34\n      swap2\n      swap1\n      tag_35\n      jump\t// in\n    tag_34:\n      swap3\n      pop\n      pop\n      dup2\n      swap1\n      sstore\n      pop\n        /* \"contracts/FundsDemo.sol\":150:234  function receiveMoney() public payable {... */\n      jump\t// out\n        /* \"contracts/FundsDemo.sol\":431:567  function withdrawMoney() public {... */\n    tag_26:\n        /* \"contracts/FundsDemo.sol\":473:497  address payable receiver */\n      0x00\n        /* \"contracts/FundsDemo.sol\":508:518  msg.sender */\n      caller\n        /* \"contracts/FundsDemo.sol\":473:519  address payable receiver = payable(msg.sender) */\n      swap1\n      pop\n        /* \"contracts/FundsDemo.sol\":529:537  receiver */\n      dup1\n        /* \"contracts/FundsDemo.sol\":529:546  receiver.transfer */\n      0xffffffffffffffffffffffffffffffffffffffff\n      and\n        /* \"contracts/FundsDemo.sol\":529:560  receiver.transfer(balanceToRec) */\n      0x08fc\n        /* \"contracts/FundsDemo.sol\":547:559  balanceToRec */\n      sload(0x01)\n        /* \"contracts/FundsDemo.sol\":529:560  receiver.transfer(balanceToRec) */\n      swap1\n      dup2\n      iszero\n      mul\n      swap1\n      mload(0x40)\n      0x00\n      mload(0x40)\n      dup1\n      dup4\n      sub\n      dup2\n      dup6\n      dup9\n      dup9\n      call\n      swap4\n      pop\n      pop\n      pop\n      pop\n      iszero\n      dup1\n      iszero\n      tag_38\n      jumpi\n      returndatasize\n      0x00\n      dup1\n      returndatacopy\n      revert(0x00, returndatasize)\n    tag_38:\n      pop\n        /* \"contracts/FundsDemo.sol\":463:567  {... */\n      pop\n        /* \"contracts/FundsDemo.sol\":431:567  function withdrawMoney() public {... */\n      jump\t// out\n        /* \"contracts/FundsDemo.sol\":119:143  uint public balanceToRec */\n    tag_29:\n      sload(0x01)\n      dup2\n      jump\t// out\n        /* \"#utility.yul\":7:146   */\n    tag_40:\n        /* \"#utility.yul\":53:58   */\n      0x00\n        /* \"#utility.yul\":91:97   */\n      dup2\n        /* \"#utility.yul\":78:98   */\n      calldataload\n        /* \"#utility.yul\":69:98   */\n      swap1\n      pop\n        /* \"#utility.yul\":107:140   */\n      tag_42\n        /* \"#utility.yul\":134:139   */\n      dup2\n        /* \"#utility.yul\":107:140   */\n      tag_43\n      jump\t// in\n    tag_42:\n        /* \"#utility.yul\":7:146   */\n      swap3\n      swap2\n      pop\n      pop\n      jump\t// out\n        /* \"#utility.yul\":152:481   */\n    tag_16:\n        /* \"#utility.yul\":211:217   */\n      0x00\n        /* \"#utility.yul\":260:262   */\n      0x20\n        /* \"#utility.yul\":248:257   */\n      dup3\n        /* \"#utility.yul\":239:246   */\n      dup5\n        /* \"#utility.yul\":235:258   */\n      sub\n        /* \"#utility.yul\":231:263   */\n      slt\n        /* \"#utility.yul\":228:347   */\n      iszero\n      tag_45\n      jumpi\n        /* \"#utility.yul\":266:345   */\n      tag_46\n      tag_47\n      jump\t// in\n    tag_46:\n        /* \"#utility.yul\":228:347   */\n    tag_45:\n        /* \"#utility.yul\":386:387   */\n      0x00\n        /* \"#utility.yul\":411:464   */\n      tag_48\n        /* \"#utility.yul\":456:463   */\n      dup5\n        /* \"#utility.yul\":447:453   */\n      dup3\n        /* \"#utility.yul\":436:445   */\n      dup6\n        /* \"#utility.yul\":432:454   */\n      add\n        /* \"#utility.yul\":411:464   */\n      tag_40\n      jump\t// in\n    tag_48:\n        /* \"#utility.yul\":401:464   */\n      swap2\n      pop\n        /* \"#utility.yul\":357:474   */\n      pop\n        /* \"#utility.yul\":152:481   */\n      swap3\n      swap2\n      pop\n      pop\n      jump\t// out\n        /* \"#utility.yul\":487:605   */\n    tag_49:\n        /* \"#utility.yul\":574:598   */\n      tag_51\n        /* \"#utility.yul\":592:597   */\n      dup2\n        /* \"#utility.yul\":574:598   */\n      tag_52\n      jump\t// in\n    tag_51:\n        /* \"#utility.yul\":569:572   */\n      dup3\n        /* \"#utility.yul\":562:599   */\n      mstore\n        /* \"#utility.yul\":487:605   */\n      pop\n      pop\n      jump\t// out\n        /* \"#utility.yul\":611:833   */\n    tag_12:\n        /* \"#utility.yul\":704:708   */\n      0x00\n        /* \"#utility.yul\":742:744   */\n      0x20\n        /* \"#utility.yul\":731:740   */\n      dup3\n        /* \"#utility.yul\":727:745   */\n      add\n        /* \"#utility.yul\":719:745   */\n      swap1\n      pop\n        /* \"#utility.yul\":755:826   */\n      tag_54\n        /* \"#utility.yul\":823:824   */\n      0x00\n        /* \"#utility.yul\":812:821   */\n      dup4\n        /* \"#utility.yul\":808:825   */\n      add\n        /* \"#utility.yul\":799:805   */\n      dup5\n        /* \"#utility.yul\":755:826   */\n      tag_49\n      jump\t// in\n    tag_54:\n        /* \"#utility.yul\":611:833   */\n      swap3\n      swap2\n      pop\n      pop\n      jump\t// out\n        /* \"#utility.yul\":920:1225   */\n    tag_35:\n        /* \"#utility.yul\":960:963   */\n      0x00\n        /* \"#utility.yul\":979:999   */\n      tag_58\n        /* \"#utility.yul\":997:998   */\n      dup3\n        /* \"#utility.yul\":979:999   */\n      tag_52\n      jump\t// in\n    tag_58:\n        /* \"#utility.yul\":974:999   */\n      swap2\n      pop\n        /* \"#utility.yul\":1013:1033   */\n      tag_59\n        /* \"#utility.yul\":1031:1032   */\n      dup4\n        /* \"#utility.yul\":1013:1033   */\n      tag_52\n      jump\t// in\n    tag_59:\n        /* \"#utility.yul\":1008:1033   */\n      swap3\n      pop\n        /* \"#utility.yul\":1167:1168   */\n      dup3\n        /* \"#utility.yul\":1099:1165   */\n      0xffffffffffffffffffffffffffffffffffffffffffffffffffffffffffffffff\n        /* \"#utility.yul\":1095:1169   */\n      sub\n        /* \"#utility.yul\":1092:1093   */\n      dup3\n        /* \"#utility.yul\":1089:1170   */\n      gt\n        /* \"#utility.yul\":1086:1193   */\n      iszero\n      tag_60\n      jumpi\n        /* \"#utility.yul\":1173:1191   */\n      tag_61\n      tag_62\n      jump\t// in\n    tag_61:\n        /* \"#utility.yul\":1086:1193   */\n    tag_60:\n        /* \"#utility.yul\":1217:1218   */\n      dup3\n        /* \"#utility.yul\":1214:1215   */\n      dup3\n        /* \"#utility.yul\":1210:1219   */\n      add\n        /* \"#utility.yul\":1203:1219   */\n      swap1\n      pop\n        /* \"#utility.yul\":920:1225   */\n      swap3\n      swap2\n      pop\n      pop\n      jump\t// out\n        /* \"#utility.yul\":1231:1308   */\n    tag_52:\n        /* \"#utility.yul\":1268:1275   */\n      0x00\n        /* \"#utility.yul\":1297:1302   */\n      dup2\n        /* \"#utility.yul\":1286:1302   */\n      swap1\n      pop\n        /* \"#utility.yul\":1231:1308   */\n      swap2\n      swap1\n      pop\n      jump\t// out\n        /* \"#utility.yul\":1314:1494   */\n    tag_62:\n        /* \"#utility.yul\":1362:1439   */\n      0x4e487b7100000000000000000000000000000000000000000000000000000000\n        /* \"#utility.yul\":1359:1360   */\n      0x00\n        /* \"#utility.yul\":1352:1440   */\n      mstore\n        /* \"#utility.yul\":1459:1463   */\n      0x11\n        /* \"#utility.yul\":1456:1457   */\n      0x04\n        /* \"#utility.yul\":1449:1464   */\n      mstore\n        /* \"#utility.yul\":1483:1487   */\n      0x24\n        /* \"#utility.yul\":1480:1481   */\n      0x00\n        /* \"#utility.yul\":1473:1488   */\n      revert\n        /* \"#utility.yul\":1623:1740   */\n    tag_47:\n        /* \"#utility.yul\":1732:1733   */\n      0x00\n        /* \"#utility.yul\":1729:1730   */\n      dup1\n        /* \"#utility.yul\":1722:1734   */\n      revert\n        /* \"#utility.yul\":1746:1868   */\n    tag_43:\n        /* \"#utility.yul\":1819:1843   */\n      tag_69\n        /* \"#utility.yul\":1837:1842   */\n      dup2\n        /* \"#utility.yul\":1819:1843   */\n      tag_52\n      jump\t// in\n    tag_69:\n        /* \"#utility.yul\":1812:1817   */\n      dup2\n        /* \"#utility.yul\":1809:1844   */\n      eq\n        /* \"#utility.yul\":1799:1862   */\n      tag_70\n      jumpi\n        /* \"#utility.yul\":1858:1859   */\n      0x00\n        /* \"#utility.yul\":1855:1856   */\n      dup1\n        /* \"#utility.yul\":1848:1860   */\n      revert\n        /* \"#utility.yul\":1799:1862   */\n    tag_70:\n        /* \"#utility.yul\":1746:1868   */\n      pop\n      jump\t// out\n\n    auxdata: 0xa2646970667358221220907e590063e8cd18b47e88919cf4d2227304af94cb14886196fd9f382a1eb14564736f6c63430008070033\n}\n",
				"bytecode": {
					"linkReferences": {},
					"object": "608060405234801561001057600080fd5b506102fb806100206000396000f3fe6080604052600436106100555760003560e01c806312065fe01461005a5780633bf1ed431461008557806352a90c42146100ae5780636d26ec18146100d9578063ac446002146100e3578063fee389ad146100fa575b600080fd5b34801561006657600080fd5b5061006f610125565b60405161007c91906101ff565b60405180910390f35b34801561009157600080fd5b506100ac60048036038101906100a791906101c3565b61012d565b005b3480156100ba57600080fd5b506100c3610137565b6040516100d091906101ff565b60405180910390f35b6100e161013d565b005b3480156100ef57600080fd5b506100f8610157565b005b34801561010657600080fd5b5061010f6101a8565b60405161011c91906101ff565b60405180910390f35b600047905090565b8060018190555050565b60005481565b3460008082825461014e919061021a565b92505081905550565b60003390508073ffffffffffffffffffffffffffffffffffffffff166108fc6001549081150290604051600060405180830381858888f193505050501580156101a4573d6000803e3d6000fd5b5050565b60015481565b6000813590506101bd816102ae565b92915050565b6000602082840312156101d9576101d86102a9565b5b60006101e7848285016101ae565b91505092915050565b6101f981610270565b82525050565b600060208201905061021460008301846101f0565b92915050565b600061022582610270565b915061023083610270565b9250827fffffffffffffffffffffffffffffffffffffffffffffffffffffffffffffffff038211156102655761026461027a565b5b828201905092915050565b6000819050919050565b7f4e487b7100000000000000000000000000000000000000000000000000000000600052601160045260246000fd5b600080fd5b6102b781610270565b81146102c257600080fd5b5056fea2646970667358221220907e590063e8cd18b47e88919cf4d2227304af94cb14886196fd9f382a1eb14564736f6c63430008070033",
					"opcodes": "PUSH1 0x80 PUSH1 0x40 MSTORE CALLVALUE DUP1 ISZERO PUSH2 0x10 JUMPI PUSH1 0x0 DUP1 REVERT JUMPDEST POP PUSH2 0x2FB DUP1 PUSH2 0x20 PUSH1 0x0 CODECOPY PUSH1 0x0 RETURN INVALID PUSH1 0x80 PUSH1 0x40 MSTORE PUSH1 0x4 CALLDATASIZE LT PUSH2 0x55 JUMPI PUSH1 0x0 CALLDATALOAD PUSH1 0xE0 SHR DUP1 PUSH4 0x12065FE0 EQ PUSH2 0x5A JUMPI DUP1 PUSH4 0x3BF1ED43 EQ PUSH2 0x85 JUMPI DUP1 PUSH4 0x52A90C42 EQ PUSH2 0xAE JUMPI DUP1 PUSH4 0x6D26EC18 EQ PUSH2 0xD9 JUMPI DUP1 PUSH4 0xAC446002 EQ PUSH2 0xE3 JUMPI DUP1 PUSH4 0xFEE389AD EQ PUSH2 0xFA JUMPI JUMPDEST PUSH1 0x0 DUP1 REVERT JUMPDEST CALLVALUE DUP1 ISZERO PUSH2 0x66 JUMPI PUSH1 0x0 DUP1 REVERT JUMPDEST POP PUSH2 0x6F PUSH2 0x125 JUMP JUMPDEST PUSH1 0x40 MLOAD PUSH2 0x7C SWAP2 SWAP1 PUSH2 0x1FF JUMP JUMPDEST PUSH1 0x40 MLOAD DUP1 SWAP2 SUB SWAP1 RETURN JUMPDEST CALLVALUE DUP1 ISZERO PUSH2 0x91 JUMPI PUSH1 0x0 DUP1 REVERT JUMPDEST POP PUSH2 0xAC PUSH1 0x4 DUP1 CALLDATASIZE SUB DUP2 ADD SWAP1 PUSH2 0xA7 SWAP2 SWAP1 PUSH2 0x1C3 JUMP JUMPDEST PUSH2 0x12D JUMP JUMPDEST STOP JUMPDEST CALLVALUE DUP1 ISZERO PUSH2 0xBA JUMPI PUSH1 0x0 DUP1 REVERT JUMPDEST POP PUSH2 0xC3 PUSH2 0x137 JUMP JUMPDEST PUSH1 0x40 MLOAD PUSH2 0xD0 SWAP2 SWAP1 PUSH2 0x1FF JUMP JUMPDEST PUSH1 0x40 MLOAD DUP1 SWAP2 SUB SWAP1 RETURN JUMPDEST PUSH2 0xE1 PUSH2 0x13D JUMP JUMPDEST STOP JUMPDEST CALLVALUE DUP1 ISZERO PUSH2 0xEF JUMPI PUSH1 0x0 DUP1 REVERT JUMPDEST POP PUSH2 0xF8 PUSH2 0x157 JUMP JUMPDEST STOP JUMPDEST CALLVALUE DUP1 ISZERO PUSH2 0x106 JUMPI PUSH1 0x0 DUP1 REVERT JUMPDEST POP PUSH2 0x10F PUSH2 0x1A8 JUMP JUMPDEST PUSH1 0x40 MLOAD PUSH2 0x11C SWAP2 SWAP1 PUSH2 0x1FF JUMP JUMPDEST PUSH1 0x40 MLOAD DUP1 SWAP2 SUB SWAP1 RETURN JUMPDEST PUSH1 0x0 SELFBALANCE SWAP1 POP SWAP1 JUMP JUMPDEST DUP1 PUSH1 0x1 DUP2 SWAP1 SSTORE POP POP JUMP JUMPDEST PUSH1 0x0 SLOAD DUP2 JUMP JUMPDEST CALLVALUE PUSH1 0x0 DUP1 DUP3 DUP3 SLOAD PUSH2 0x14E SWAP2 SWAP1 PUSH2 0x21A JUMP JUMPDEST SWAP3 POP POP DUP2 SWAP1 SSTORE POP JUMP JUMPDEST PUSH1 0x0 CALLER SWAP1 POP DUP1 PUSH20 0xFFFFFFFFFFFFFFFFFFFFFFFFFFFFFFFFFFFFFFFF AND PUSH2 0x8FC PUSH1 0x1 SLOAD SWAP1 DUP2 ISZERO MUL SWAP1 PUSH1 0x40 MLOAD PUSH1 0x0 PUSH1 0x40 MLOAD DUP1 DUP4 SUB DUP2 DUP6 DUP9 DUP9 CALL SWAP4 POP POP POP POP ISZERO DUP1 ISZERO PUSH2 0x1A4 JUMPI RETURNDATASIZE PUSH1 0x0 DUP1 RETURNDATACOPY RETURNDATASIZE PUSH1 0x0 REVERT JUMPDEST POP POP JUMP JUMPDEST PUSH1 0x1 SLOAD DUP2 JUMP JUMPDEST PUSH1 0x0 DUP2 CALLDATALOAD SWAP1 POP PUSH2 0x1BD DUP2 PUSH2 0x2AE JUMP JUMPDEST SWAP3 SWAP2 POP POP JUMP JUMPDEST PUSH1 0x0 PUSH1 0x20 DUP3 DUP5 SUB SLT ISZERO PUSH2 0x1D9 JUMPI PUSH2 0x1D8 PUSH2 0x2A9 JUMP JUMPDEST JUMPDEST PUSH1 0x0 PUSH2 0x1E7 DUP5 DUP3 DUP6 ADD PUSH2 0x1AE JUMP JUMPDEST SWAP2 POP POP SWAP3 SWAP2 POP POP JUMP JUMPDEST PUSH2 0x1F9 DUP2 PUSH2 0x270 JUMP JUMPDEST DUP3 MSTORE POP POP JUMP JUMPDEST PUSH1 0x0 PUSH1 0x20 DUP3 ADD SWAP1 POP PUSH2 0x214 PUSH1 0x0 DUP4 ADD DUP5 PUSH2 0x1F0 JUMP JUMPDEST SWAP3 SWAP2 POP POP JUMP JUMPDEST PUSH1 0x0 PUSH2 0x225 DUP3 PUSH2 0x270 JUMP JUMPDEST SWAP2 POP PUSH2 0x230 DUP4 PUSH2 0x270 JUMP JUMPDEST SWAP3 POP DUP3 PUSH32 0xFFFFFFFFFFFFFFFFFFFFFFFFFFFFFFFFFFFFFFFFFFFFFFFFFFFFFFFFFFFFFFFF SUB DUP3 GT ISZERO PUSH2 0x265 JUMPI PUSH2 0x264 PUSH2 0x27A JUMP JUMPDEST JUMPDEST DUP3 DUP3 ADD SWAP1 POP SWAP3 SWAP2 POP POP JUMP JUMPDEST PUSH1 0x0 DUP2 SWAP1 POP SWAP2 SWAP1 POP JUMP JUMPDEST PUSH32 0x4E487B7100000000000000000000000000000000000000000000000000000000 PUSH1 0x0 MSTORE PUSH1 0x11 PUSH1 0x4 MSTORE PUSH1 0x24 PUSH1 0x0 REVERT JUMPDEST PUSH1 0x0 DUP1 REVERT JUMPDEST PUSH2 0x2B7 DUP2 PUSH2 0x270 JUMP JUMPDEST DUP2 EQ PUSH2 0x2C2 JUMPI PUSH1 0x0 DUP1 REVERT JUMPDEST POP JUMP INVALID LOG2 PUSH5 0x6970667358 0x22 SLT KECCAK256 SWAP1 PUSH31 0x590063E8CD18B47E88919CF4D2227304AF94CB14886196FD9F382A1EB14564 PUSH20 0x6F6C634300080700330000000000000000000000 "
				},
				"gasEstimates": {
					"creation": {
						"codeDepositCost": "152600",
						"executionCost": "196",
						"totalCost": "152796"
					},
					"external": {
						"balanceReceived()": "2451",
						"balanceToRec()": "2517",
						"getBalance()": "317",
						"receiveMoney()": "infinite",
						"someMoney(uint256)": "22520",
						"withdrawMoney()": "infinite"
					}
				},
				"methodIdentifiers": {
					"balanceReceived()": "52a90c42",
					"balanceToRec()": "fee389ad",
					"getBalance()": "12065fe0",
					"receiveMoney()": "6d26ec18",
					"someMoney(uint256)": "3bf1ed43",
					"withdrawMoney()": "ac446002"
				}
			},
			"storageLayout": {
				"storage": [
					{
						"astId": 3,
						"contract": "contracts/FundsDemo.sol:FundsDemo",
						"label": "balanceReceived",
						"offset": 0,
						"slot": "0",
						"type": "t_uint256"
					},
					{
						"astId": 5,
						"contract": "contracts/FundsDemo.sol:FundsDemo",
						"label": "balanceToRec",
						"offset": 0,
						"slot": "1",
						"type": "t_uint256"
					}
				],
				"types": {
					"t_uint256": {
						"encoding": "inplace",
						"label": "uint256",
						"numberOfBytes": "32"
					}
				}
			},
			"userdoc": {
				"kind": "user",
				"methods": {},
				"version": 1
			}
		}
	}
}