{
	"contracts/SumItUp.sol": {
		"SumItUp": {
			"abi": [
				{
					"inputs": [],
					"name": "balance",
					"outputs": [
						{
							"internalType": "int256",
							"name": "",
							"type": "int256"
						}
					],
					"stateMutability": "view",
					"type": "function"
				},
				{
					"inputs": [],
					"name": "comission",
					"outputs": [
						{
							"internalType": "int256",
							"name": "",
							"type": "int256"
						}
					],
					"stateMutability": "view",
					"type": "function"
				},
				{
					"inputs": [],
					"name": "sum",
					"outputs": [
						{
							"internalType": "int256",
							"name": "",
							"type": "int256"
						}
					],
					"stateMutability": "view",
					"type": "function"
				}
			],
			"devdoc": {
				"kind": "dev",
				"methods": {},
				"version": 1
			},
			"evm": {
				"assembly": "    /* \"contracts/SumItUp.sol\":69:505  contract SumItUp {    ... */\n  mstore(0x40, 0x80)\n    /* \"contracts/SumItUp.sol\":115:119  4500 */\n  0x1194\n    /* \"contracts/SumItUp.sol\":94:119  int public balance = 4500 */\n  0x00\n  sstore\n    /* \"contracts/SumItUp.sol\":215:218  -10 */\n  0xfffffffffffffffffffffffffffffffffffffffffffffffffffffffffffffff6\n    /* \"contracts/SumItUp.sol\":192:218  int public comission = -10 */\n  0x01\n  sstore\n    /* \"contracts/SumItUp.sol\":69:505  contract SumItUp {    ... */\n  callvalue\n  dup1\n  iszero\n  tag_1\n  jumpi\n  0x00\n  dup1\n  revert\ntag_1:\n  pop\n  dataSize(sub_0)\n  dup1\n  dataOffset(sub_0)\n  0x00\n  codecopy\n  0x00\n  return\nstop\n\nsub_0: assembly {\n        /* \"contracts/SumItUp.sol\":69:505  contract SumItUp {    ... */\n      mstore(0x40, 0x80)\n      callvalue\n      dup1\n      iszero\n      tag_1\n      jumpi\n      0x00\n      dup1\n      revert\n    tag_1:\n      pop\n      jumpi(tag_2, lt(calldatasize, 0x04))\n      shr(0xe0, calldataload(0x00))\n      dup1\n      0x3a4b4532\n      eq\n      tag_3\n      jumpi\n      dup1\n      0x853255cc\n      eq\n      tag_4\n      jumpi\n      dup1\n      0xb69ef8a8\n      eq\n      tag_5\n      jumpi\n    tag_2:\n      0x00\n      dup1\n      revert\n        /* \"contracts/SumItUp.sol\":192:218  int public comission = -10 */\n    tag_3:\n      tag_6\n      tag_7\n      jump\t// in\n    tag_6:\n      mload(0x40)\n      tag_8\n      swap2\n      swap1\n      tag_9\n      jump\t// in\n    tag_8:\n      mload(0x40)\n      dup1\n      swap2\n      sub\n      swap1\n      return\n        /* \"contracts/SumItUp.sol\":295:503  function sum() view public returns (int){... */\n    tag_4:\n      tag_10\n      tag_11\n      jump\t// in\n    tag_10:\n      mload(0x40)\n      tag_12\n      swap2\n      swap1\n      tag_9\n      jump\t// in\n    tag_12:\n      mload(0x40)\n      dup1\n      swap2\n      sub\n      swap1\n      return\n        /* \"contracts/SumItUp.sol\":94:119  int public balance = 4500 */\n    tag_5:\n      tag_13\n      tag_14\n      jump\t// in\n    tag_13:\n      mload(0x40)\n      tag_15\n      swap2\n      swap1\n      tag_9\n      jump\t// in\n    tag_15:\n      mload(0x40)\n      dup1\n      swap2\n      sub\n      swap1\n      return\n        /* \"contracts/SumItUp.sol\":192:218  int public comission = -10 */\n    tag_7:\n      sload(0x01)\n      dup2\n      jump\t// out\n        /* \"contracts/SumItUp.sol\":295:503  function sum() view public returns (int){... */\n    tag_11:\n        /* \"contracts/SumItUp.sol\":331:334  int */\n      0x00\n        /* \"contracts/SumItUp.sol\":341:350  int total */\n      dup1\n        /* \"contracts/SumItUp.sol\":363:372  comission */\n      sload(0x01)\n        /* \"contracts/SumItUp.sol\":353:360  balance */\n      sload(0x00)\n        /* \"contracts/SumItUp.sol\":353:372  balance + comission */\n      tag_17\n      swap2\n      swap1\n      tag_18\n      jump\t// in\n    tag_17:\n        /* \"contracts/SumItUp.sol\":341:372  int total = balance + comission */\n      swap1\n      pop\n        /* \"contracts/SumItUp.sol\":493:498  total */\n      dup1\n        /* \"contracts/SumItUp.sol\":486:498  return total */\n      swap2\n      pop\n      pop\n        /* \"contracts/SumItUp.sol\":295:503  function sum() view public returns (int){... */\n      swap1\n      jump\t// out\n        /* \"contracts/SumItUp.sol\":94:119  int public balance = 4500 */\n    tag_14:\n      sload(0x00)\n      dup2\n      jump\t// out\n        /* \"#utility.yul\":7:122   */\n    tag_20:\n        /* \"#utility.yul\":92:115   */\n      tag_22\n        /* \"#utility.yul\":109:114   */\n      dup2\n        /* \"#utility.yul\":92:115   */\n      tag_23\n      jump\t// in\n    tag_22:\n        /* \"#utility.yul\":87:90   */\n      dup3\n        /* \"#utility.yul\":80:116   */\n      mstore\n        /* \"#utility.yul\":7:122   */\n      pop\n      pop\n      jump\t// out\n        /* \"#utility.yul\":128:346   */\n    tag_9:\n        /* \"#utility.yul\":219:223   */\n      0x00\n        /* \"#utility.yul\":257:259   */\n      0x20\n        /* \"#utility.yul\":246:255   */\n      dup3\n        /* \"#utility.yul\":242:260   */\n      add\n        /* \"#utility.yul\":234:260   */\n      swap1\n      pop\n        /* \"#utility.yul\":270:339   */\n      tag_25\n        /* \"#utility.yul\":336:337   */\n      0x00\n        /* \"#utility.yul\":325:334   */\n      dup4\n        /* \"#utility.yul\":321:338   */\n      add\n        /* \"#utility.yul\":312:318   */\n      dup5\n        /* \"#utility.yul\":270:339   */\n      tag_20\n      jump\t// in\n    tag_25:\n        /* \"#utility.yul\":128:346   */\n      swap3\n      swap2\n      pop\n      pop\n      jump\t// out\n        /* \"#utility.yul\":352:877   */\n    tag_18:\n        /* \"#utility.yul\":391:394   */\n      0x00\n        /* \"#utility.yul\":410:429   */\n      tag_27\n        /* \"#utility.yul\":427:428   */\n      dup3\n        /* \"#utility.yul\":410:429   */\n      tag_23\n      jump\t// in\n    tag_27:\n        /* \"#utility.yul\":405:429   */\n      swap2\n      pop\n        /* \"#utility.yul\":443:462   */\n      tag_28\n        /* \"#utility.yul\":460:461   */\n      dup4\n        /* \"#utility.yul\":443:462   */\n      tag_23\n      jump\t// in\n    tag_28:\n        /* \"#utility.yul\":438:462   */\n      swap3\n      pop\n        /* \"#utility.yul\":631:632   */\n      dup2\n        /* \"#utility.yul\":563:629   */\n      0x7fffffffffffffffffffffffffffffffffffffffffffffffffffffffffffffff\n        /* \"#utility.yul\":559:633   */\n      sub\n        /* \"#utility.yul\":556:557   */\n      dup4\n        /* \"#utility.yul\":552:634   */\n      sgt\n        /* \"#utility.yul\":547:548   */\n      0x00\n        /* \"#utility.yul\":544:545   */\n      dup4\n        /* \"#utility.yul\":540:549   */\n      slt\n        /* \"#utility.yul\":533:550   */\n      iszero\n        /* \"#utility.yul\":529:635   */\n      and\n        /* \"#utility.yul\":526:658   */\n      iszero\n      tag_29\n      jumpi\n        /* \"#utility.yul\":638:656   */\n      tag_30\n      tag_31\n      jump\t// in\n    tag_30:\n        /* \"#utility.yul\":526:658   */\n    tag_29:\n        /* \"#utility.yul\":818:819   */\n      dup2\n        /* \"#utility.yul\":750:816   */\n      0x8000000000000000000000000000000000000000000000000000000000000000\n        /* \"#utility.yul\":746:820   */\n      sub\n        /* \"#utility.yul\":743:744   */\n      dup4\n        /* \"#utility.yul\":739:821   */\n      slt\n        /* \"#utility.yul\":735:736   */\n      0x00\n        /* \"#utility.yul\":732:733   */\n      dup4\n        /* \"#utility.yul\":728:737   */\n      slt\n        /* \"#utility.yul\":724:822   */\n      and\n        /* \"#utility.yul\":721:845   */\n      iszero\n      tag_32\n      jumpi\n        /* \"#utility.yul\":825:843   */\n      tag_33\n      tag_31\n      jump\t// in\n    tag_33:\n        /* \"#utility.yul\":721:845   */\n    tag_32:\n        /* \"#utility.yul\":869:870   */\n      dup3\n        /* \"#utility.yul\":866:867   */\n      dup3\n        /* \"#utility.yul\":862:871   */\n      add\n        /* \"#utility.yul\":855:871   */\n      swap1\n      pop\n        /* \"#utility.yul\":352:877   */\n      swap3\n      swap2\n      pop\n      pop\n      jump\t// out\n        /* \"#utility.yul\":883:959   */\n    tag_23:\n        /* \"#utility.yul\":919:926   */\n      0x00\n        /* \"#utility.yul\":948:953   */\n      dup2\n        /* \"#utility.yul\":937:953   */\n      swap1\n      pop\n        /* \"#utility.yul\":883:959   */\n      swap2\n      swap1\n      pop\n      jump\t// out\n        /* \"#utility.yul\":965:1145   */\n    tag_31:\n        /* \"#utility.yul\":1013:1090   */\n      0x4e487b7100000000000000000000000000000000000000000000000000000000\n        /* \"#utility.yul\":1010:1011   */\n      0x00\n        /* \"#utility.yul\":1003:1091   */\n      mstore\n        /* \"#utility.yul\":1110:1114   */\n      0x11\n        /* \"#utility.yul\":1107:1108   */\n      0x04\n        /* \"#utility.yul\":1100:1115   */\n      mstore\n        /* \"#utility.yul\":1134:1138   */\n      0x24\n        /* \"#utility.yul\":1131:1132   */\n      0x00\n        /* \"#utility.yul\":1124:1139   */\n      revert\n\n    auxdata: 0xa26469706673582212202a575d0d0e10a58848e9487fdd9ce19ec6a20f2c567e8f426f29b4d46116986b64736f6c63430008070033\n}\n",
				"bytecode": {
					"linkReferences": {},
					"object": "60806040526111946000557ffffffffffffffffffffffffffffffffffffffffffffffffffffffffffffffff660015534801561003a57600080fd5b506101f58061004a6000396000f3fe608060405234801561001057600080fd5b50600436106100415760003560e01c80633a4b453214610046578063853255cc14610064578063b69ef8a814610082575b600080fd5b61004e6100a0565b60405161005b91906100d7565b60405180910390f35b61006c6100a6565b60405161007991906100d7565b60405180910390f35b61008a6100c2565b60405161009791906100d7565b60405180910390f35b60015481565b6000806001546000546100b991906100f2565b90508091505090565b60005481565b6100d181610186565b82525050565b60006020820190506100ec60008301846100c8565b92915050565b60006100fd82610186565b915061010883610186565b9250817f7fffffffffffffffffffffffffffffffffffffffffffffffffffffffffffffff0383136000831215161561014357610142610190565b5b817f800000000000000000000000000000000000000000000000000000000000000003831260008312161561017b5761017a610190565b5b828201905092915050565b6000819050919050565b7f4e487b7100000000000000000000000000000000000000000000000000000000600052601160045260246000fdfea26469706673582212202a575d0d0e10a58848e9487fdd9ce19ec6a20f2c567e8f426f29b4d46116986b64736f6c63430008070033",
					"opcodes": "PUSH1 0x80 PUSH1 0x40 MSTORE PUSH2 0x1194 PUSH1 0x0 SSTORE PUSH32 0xFFFFFFFFFFFFFFFFFFFFFFFFFFFFFFFFFFFFFFFFFFFFFFFFFFFFFFFFFFFFFFF6 PUSH1 0x1 SSTORE CALLVALUE DUP1 ISZERO PUSH2 0x3A JUMPI PUSH1 0x0 DUP1 REVERT JUMPDEST POP PUSH2 0x1F5 DUP1 PUSH2 0x4A PUSH1 0x0 CODECOPY PUSH1 0x0 RETURN INVALID PUSH1 0x80 PUSH1 0x40 MSTORE CALLVALUE DUP1 ISZERO PUSH2 0x10 JUMPI PUSH1 0x0 DUP1 REVERT JUMPDEST POP PUSH1 0x4 CALLDATASIZE LT PUSH2 0x41 JUMPI PUSH1 0x0 CALLDATALOAD PUSH1 0xE0 SHR DUP1 PUSH4 0x3A4B4532 EQ PUSH2 0x46 JUMPI DUP1 PUSH4 0x853255CC EQ PUSH2 0x64 JUMPI DUP1 PUSH4 0xB69EF8A8 EQ PUSH2 0x82 JUMPI JUMPDEST PUSH1 0x0 DUP1 REVERT JUMPDEST PUSH2 0x4E PUSH2 0xA0 JUMP JUMPDEST PUSH1 0x40 MLOAD PUSH2 0x5B SWAP2 SWAP1 PUSH2 0xD7 JUMP JUMPDEST PUSH1 0x40 MLOAD DUP1 SWAP2 SUB SWAP1 RETURN JUMPDEST PUSH2 0x6C PUSH2 0xA6 JUMP JUMPDEST PUSH1 0x40 MLOAD PUSH2 0x79 SWAP2 SWAP1 PUSH2 0xD7 JUMP JUMPDEST PUSH1 0x40 MLOAD DUP1 SWAP2 SUB SWAP1 RETURN JUMPDEST PUSH2 0x8A PUSH2 0xC2 JUMP JUMPDEST PUSH1 0x40 MLOAD PUSH2 0x97 SWAP2 SWAP1 PUSH2 0xD7 JUMP JUMPDEST PUSH1 0x40 MLOAD DUP1 SWAP2 SUB SWAP1 RETURN JUMPDEST PUSH1 0x1 SLOAD DUP2 JUMP JUMPDEST PUSH1 0x0 DUP1 PUSH1 0x1 SLOAD PUSH1 0x0 SLOAD PUSH2 0xB9 SWAP2 SWAP1 PUSH2 0xF2 JUMP JUMPDEST SWAP1 POP DUP1 SWAP2 POP POP SWAP1 JUMP JUMPDEST PUSH1 0x0 SLOAD DUP2 JUMP JUMPDEST PUSH2 0xD1 DUP2 PUSH2 0x186 JUMP JUMPDEST DUP3 MSTORE POP POP JUMP JUMPDEST PUSH1 0x0 PUSH1 0x20 DUP3 ADD SWAP1 POP PUSH2 0xEC PUSH1 0x0 DUP4 ADD DUP5 PUSH2 0xC8 JUMP JUMPDEST SWAP3 SWAP2 POP POP JUMP JUMPDEST PUSH1 0x0 PUSH2 0xFD DUP3 PUSH2 0x186 JUMP JUMPDEST SWAP2 POP PUSH2 0x108 DUP4 PUSH2 0x186 JUMP JUMPDEST SWAP3 POP DUP2 PUSH32 0x7FFFFFFFFFFFFFFFFFFFFFFFFFFFFFFFFFFFFFFFFFFFFFFFFFFFFFFFFFFFFFFF SUB DUP4 SGT PUSH1 0x0 DUP4 SLT ISZERO AND ISZERO PUSH2 0x143 JUMPI PUSH2 0x142 PUSH2 0x190 JUMP JUMPDEST JUMPDEST DUP2 PUSH32 0x8000000000000000000000000000000000000000000000000000000000000000 SUB DUP4 SLT PUSH1 0x0 DUP4 SLT AND ISZERO PUSH2 0x17B JUMPI PUSH2 0x17A PUSH2 0x190 JUMP JUMPDEST JUMPDEST DUP3 DUP3 ADD SWAP1 POP SWAP3 SWAP2 POP POP JUMP JUMPDEST PUSH1 0x0 DUP2 SWAP1 POP SWAP2 SWAP1 POP JUMP JUMPDEST PUSH32 0x4E487B7100000000000000000000000000000000000000000000000000000000 PUSH1 0x0 MSTORE PUSH1 0x11 PUSH1 0x4 MSTORE PUSH1 0x24 PUSH1 0x0 REVERT INVALID LOG2 PUSH5 0x6970667358 0x22 SLT KECCAK256 0x2A JUMPI 0x5D 0xD 0xE LT 0xA5 DUP9 BASEFEE 0xE9 BASEFEE PUSH32 0xDD9CE19EC6A20F2C567E8F426F29B4D46116986B64736F6C6343000807003300 "
				},
				"gasEstimates": {
					"creation": {
						"codeDepositCost": "100200",
						"executionCost": "44359",
						"totalCost": "144559"
					},
					"external": {
						"balance()": "2451",
						"comission()": "2407",
						"sum()": "infinite"
					}
				},
				"methodIdentifiers": {
					"balance()": "b69ef8a8",
					"comission()": "3a4b4532",
					"sum()": "853255cc"
				}
			},
			"storageLayout": {
				"storage": [
					{
						"astId": 4,
						"contract": "contracts/SumItUp.sol:SumItUp",
						"label": "balance",
						"offset": 0,
						"slot": "0",
						"type": "t_int256"
					},
					{
						"astId": 8,
						"contract": "contracts/SumItUp.sol:SumItUp",
						"label": "comission",
						"offset": 0,
						"slot": "1",
						"type": "t_int256"
					}
				],
				"types": {
					"t_int256": {
						"encoding": "inplace",
						"label": "int256",
						"numberOfBytes": "32"
					}
				}
			},
			"userdoc": {
				"kind": "user",
				"methods": {},
				"version": 1
			}
		}
	}
}