{
	"contracts/Overflow.sol": {
		"Overflow": {
			"abi": [
				{
					"inputs": [],
					"name": "decrement",
					"outputs": [],
					"stateMutability": "nonpayable",
					"type": "function"
				},
				{
					"inputs": [],
					"name": "increment",
					"outputs": [],
					"stateMutability": "nonpayable",
					"type": "function"
				},
				{
					"inputs": [],
					"name": "myUint8",
					"outputs": [
						{
							"internalType": "uint8",
							"name": "",
							"type": "uint8"
						}
					],
					"stateMutability": "view",
					"type": "function"
				},
				{
					"inputs": [
						{
							"internalType": "uint8",
							"name": "_newVal",
							"type": "uint8"
						}
					],
					"name": "setMyUint",
					"outputs": [],
					"stateMutability": "nonpayable",
					"type": "function"
				}
			],
			"devdoc": {
				"kind": "dev",
				"methods": {},
				"version": 1
			},
			"evm": {
				"assembly": "    /* \"contracts/Overflow.sol\":69:343  contract Overflow {... */\n  mstore(0x40, 0x80)\n  callvalue\n  dup1\n  iszero\n  tag_1\n  jumpi\n  0x00\n  dup1\n  revert\ntag_1:\n  pop\n  dataSize(sub_0)\n  dup1\n  dataOffset(sub_0)\n  0x00\n  codecopy\n  0x00\n  return\nstop\n\nsub_0: assembly {\n        /* \"contracts/Overflow.sol\":69:343  contract Overflow {... */\n      mstore(0x40, 0x80)\n      callvalue\n      dup1\n      iszero\n      tag_1\n      jumpi\n      0x00\n      dup1\n      revert\n    tag_1:\n      pop\n      jumpi(tag_2, lt(calldatasize, 0x04))\n      shr(0xe0, calldataload(0x00))\n      dup1\n      0x2baeceb7\n      eq\n      tag_3\n      jumpi\n      dup1\n      0x866515fc\n      eq\n      tag_4\n      jumpi\n      dup1\n      0xd09de08a\n      eq\n      tag_5\n      jumpi\n      dup1\n      0xe2a4b2af\n      eq\n      tag_6\n      jumpi\n    tag_2:\n      0x00\n      dup1\n      revert\n        /* \"contracts/Overflow.sol\":267:341  function decrement() public {... */\n    tag_3:\n      tag_7\n      tag_8\n      jump\t// in\n    tag_7:\n      stop\n        /* \"contracts/Overflow.sol\":116:185  function setMyUint(uint8 _newVal) public {... */\n    tag_4:\n      tag_9\n      0x04\n      dup1\n      calldatasize\n      sub\n      dup2\n      add\n      swap1\n      tag_10\n      swap2\n      swap1\n      tag_11\n      jump\t// in\n    tag_10:\n      tag_12\n      jump\t// in\n    tag_9:\n      stop\n        /* \"contracts/Overflow.sol\":189:263  function increment() public {... */\n    tag_5:\n      tag_13\n      tag_14\n      jump\t// in\n    tag_13:\n      stop\n        /* \"contracts/Overflow.sol\":91:111  uint8 public myUint8 */\n    tag_6:\n      tag_15\n      tag_16\n      jump\t// in\n    tag_15:\n      mload(0x40)\n      tag_17\n      swap2\n      swap1\n      tag_18\n      jump\t// in\n    tag_17:\n      mload(0x40)\n      dup1\n      swap2\n      sub\n      swap1\n      return\n        /* \"contracts/Overflow.sol\":267:341  function decrement() public {... */\n    tag_8:\n        /* \"contracts/Overflow.sol\":321:328  myUint8 */\n      0x00\n      dup1\n        /* \"contracts/Overflow.sol\":321:330  myUint8-- */\n      dup2\n      dup2\n      swap1\n      sload\n      swap1\n      0x0100\n      exp\n      swap1\n      div\n      0xff\n      and\n      dup1\n      swap3\n      swap2\n      swap1\n      0x01\n      swap1\n      sub\n      swap2\n      swap1\n      0x0100\n      exp\n      dup2\n      sload\n      dup2\n      0xff\n      mul\n      not\n      and\n      swap1\n      dup4\n      0xff\n      and\n      mul\n      or\n      swap1\n      sstore\n      pop\n      pop\n        /* \"contracts/Overflow.sol\":267:341  function decrement() public {... */\n      jump\t// out\n        /* \"contracts/Overflow.sol\":116:185  function setMyUint(uint8 _newVal) public {... */\n    tag_12:\n        /* \"contracts/Overflow.sol\":173:180  _newVal */\n      dup1\n        /* \"contracts/Overflow.sol\":163:170  myUint8 */\n      0x00\n      dup1\n        /* \"contracts/Overflow.sol\":163:180  myUint8 = _newVal */\n      0x0100\n      exp\n      dup2\n      sload\n      dup2\n      0xff\n      mul\n      not\n      and\n      swap1\n      dup4\n      0xff\n      and\n      mul\n      or\n      swap1\n      sstore\n      pop\n        /* \"contracts/Overflow.sol\":116:185  function setMyUint(uint8 _newVal) public {... */\n      pop\n      jump\t// out\n        /* \"contracts/Overflow.sol\":189:263  function increment() public {... */\n    tag_14:\n        /* \"contracts/Overflow.sol\":243:250  myUint8 */\n      0x00\n      dup1\n        /* \"contracts/Overflow.sol\":243:252  myUint8++ */\n      dup2\n      dup2\n      swap1\n      sload\n      swap1\n      0x0100\n      exp\n      swap1\n      div\n      0xff\n      and\n      dup1\n      swap3\n      swap2\n      swap1\n      0x01\n      add\n      swap2\n      swap1\n      0x0100\n      exp\n      dup2\n      sload\n      dup2\n      0xff\n      mul\n      not\n      and\n      swap1\n      dup4\n      0xff\n      and\n      mul\n      or\n      swap1\n      sstore\n      pop\n      pop\n        /* \"contracts/Overflow.sol\":189:263  function increment() public {... */\n      jump\t// out\n        /* \"contracts/Overflow.sol\":91:111  uint8 public myUint8 */\n    tag_16:\n      0x00\n      dup1\n      sload\n      swap1\n      0x0100\n      exp\n      swap1\n      div\n      0xff\n      and\n      dup2\n      jump\t// out\n        /* \"#utility.yul\":7:142   */\n    tag_23:\n        /* \"#utility.yul\":51:56   */\n      0x00\n        /* \"#utility.yul\":89:95   */\n      dup2\n        /* \"#utility.yul\":76:96   */\n      calldataload\n        /* \"#utility.yul\":67:96   */\n      swap1\n      pop\n        /* \"#utility.yul\":105:136   */\n      tag_25\n        /* \"#utility.yul\":130:135   */\n      dup2\n        /* \"#utility.yul\":105:136   */\n      tag_26\n      jump\t// in\n    tag_25:\n        /* \"#utility.yul\":7:142   */\n      swap3\n      swap2\n      pop\n      pop\n      jump\t// out\n        /* \"#utility.yul\":148:473   */\n    tag_11:\n        /* \"#utility.yul\":205:211   */\n      0x00\n        /* \"#utility.yul\":254:256   */\n      0x20\n        /* \"#utility.yul\":242:251   */\n      dup3\n        /* \"#utility.yul\":233:240   */\n      dup5\n        /* \"#utility.yul\":229:252   */\n      sub\n        /* \"#utility.yul\":225:257   */\n      slt\n        /* \"#utility.yul\":222:341   */\n      iszero\n      tag_28\n      jumpi\n        /* \"#utility.yul\":260:339   */\n      tag_29\n      tag_30\n      jump\t// in\n    tag_29:\n        /* \"#utility.yul\":222:341   */\n    tag_28:\n        /* \"#utility.yul\":380:381   */\n      0x00\n        /* \"#utility.yul\":405:456   */\n      tag_31\n        /* \"#utility.yul\":448:455   */\n      dup5\n        /* \"#utility.yul\":439:445   */\n      dup3\n        /* \"#utility.yul\":428:437   */\n      dup6\n        /* \"#utility.yul\":424:446   */\n      add\n        /* \"#utility.yul\":405:456   */\n      tag_23\n      jump\t// in\n    tag_31:\n        /* \"#utility.yul\":395:456   */\n      swap2\n      pop\n        /* \"#utility.yul\":351:466   */\n      pop\n        /* \"#utility.yul\":148:473   */\n      swap3\n      swap2\n      pop\n      pop\n      jump\t// out\n        /* \"#utility.yul\":479:591   */\n    tag_32:\n        /* \"#utility.yul\":562:584   */\n      tag_34\n        /* \"#utility.yul\":578:583   */\n      dup2\n        /* \"#utility.yul\":562:584   */\n      tag_35\n      jump\t// in\n    tag_34:\n        /* \"#utility.yul\":557:560   */\n      dup3\n        /* \"#utility.yul\":550:585   */\n      mstore\n        /* \"#utility.yul\":479:591   */\n      pop\n      pop\n      jump\t// out\n        /* \"#utility.yul\":597:811   */\n    tag_18:\n        /* \"#utility.yul\":686:690   */\n      0x00\n        /* \"#utility.yul\":724:726   */\n      0x20\n        /* \"#utility.yul\":713:722   */\n      dup3\n        /* \"#utility.yul\":709:727   */\n      add\n        /* \"#utility.yul\":701:727   */\n      swap1\n      pop\n        /* \"#utility.yul\":737:804   */\n      tag_37\n        /* \"#utility.yul\":801:802   */\n      0x00\n        /* \"#utility.yul\":790:799   */\n      dup4\n        /* \"#utility.yul\":786:803   */\n      add\n        /* \"#utility.yul\":777:783   */\n      dup5\n        /* \"#utility.yul\":737:804   */\n      tag_32\n      jump\t// in\n    tag_37:\n        /* \"#utility.yul\":597:811   */\n      swap3\n      swap2\n      pop\n      pop\n      jump\t// out\n        /* \"#utility.yul\":898:984   */\n    tag_35:\n        /* \"#utility.yul\":933:940   */\n      0x00\n        /* \"#utility.yul\":973:977   */\n      0xff\n        /* \"#utility.yul\":966:971   */\n      dup3\n        /* \"#utility.yul\":962:978   */\n      and\n        /* \"#utility.yul\":951:978   */\n      swap1\n      pop\n        /* \"#utility.yul\":898:984   */\n      swap2\n      swap1\n      pop\n      jump\t// out\n        /* \"#utility.yul\":1113:1230   */\n    tag_30:\n        /* \"#utility.yul\":1222:1223   */\n      0x00\n        /* \"#utility.yul\":1219:1220   */\n      dup1\n        /* \"#utility.yul\":1212:1224   */\n      revert\n        /* \"#utility.yul\":1236:1354   */\n    tag_26:\n        /* \"#utility.yul\":1307:1329   */\n      tag_45\n        /* \"#utility.yul\":1323:1328   */\n      dup2\n        /* \"#utility.yul\":1307:1329   */\n      tag_35\n      jump\t// in\n    tag_45:\n        /* \"#utility.yul\":1300:1305   */\n      dup2\n        /* \"#utility.yul\":1297:1330   */\n      eq\n        /* \"#utility.yul\":1287:1348   */\n      tag_46\n      jumpi\n        /* \"#utility.yul\":1344:1345   */\n      0x00\n        /* \"#utility.yul\":1341:1342   */\n      dup1\n        /* \"#utility.yul\":1334:1346   */\n      revert\n        /* \"#utility.yul\":1287:1348   */\n    tag_46:\n        /* \"#utility.yul\":1236:1354   */\n      pop\n      jump\t// out\n\n    auxdata: 0xa26469706673582212203bf177af25a38d953f481289672fe3956dbcaa92e2444f7e76ff022bbeccd5f164736f6c63430008070033\n}\n",
				"bytecode": {
					"linkReferences": {},
					"object": "608060405234801561001057600080fd5b506101ff806100206000396000f3fe608060405234801561001057600080fd5b506004361061004c5760003560e01c80632baeceb714610051578063866515fc1461005b578063d09de08a14610077578063e2a4b2af14610081575b600080fd5b61005961009f565b005b61007560048036038101906100709190610149565b6100d3565b005b61007f6100f0565b005b610089610123565b6040516100969190610185565b60405180910390f35b60008081819054906101000a900460ff16809291906001900391906101000a81548160ff021916908360ff16021790555050565b806000806101000a81548160ff021916908360ff16021790555050565b60008081819054906101000a900460ff168092919060010191906101000a81548160ff021916908360ff16021790555050565b60008054906101000a900460ff1681565b600081359050610143816101b2565b92915050565b60006020828403121561015f5761015e6101ad565b5b600061016d84828501610134565b91505092915050565b61017f816101a0565b82525050565b600060208201905061019a6000830184610176565b92915050565b600060ff82169050919050565b600080fd5b6101bb816101a0565b81146101c657600080fd5b5056fea26469706673582212203bf177af25a38d953f481289672fe3956dbcaa92e2444f7e76ff022bbeccd5f164736f6c63430008070033",
					"opcodes": "PUSH1 0x80 PUSH1 0x40 MSTORE CALLVALUE DUP1 ISZERO PUSH2 0x10 JUMPI PUSH1 0x0 DUP1 REVERT JUMPDEST POP PUSH2 0x1FF DUP1 PUSH2 0x20 PUSH1 0x0 CODECOPY PUSH1 0x0 RETURN INVALID PUSH1 0x80 PUSH1 0x40 MSTORE CALLVALUE DUP1 ISZERO PUSH2 0x10 JUMPI PUSH1 0x0 DUP1 REVERT JUMPDEST POP PUSH1 0x4 CALLDATASIZE LT PUSH2 0x4C JUMPI PUSH1 0x0 CALLDATALOAD PUSH1 0xE0 SHR DUP1 PUSH4 0x2BAECEB7 EQ PUSH2 0x51 JUMPI DUP1 PUSH4 0x866515FC EQ PUSH2 0x5B JUMPI DUP1 PUSH4 0xD09DE08A EQ PUSH2 0x77 JUMPI DUP1 PUSH4 0xE2A4B2AF EQ PUSH2 0x81 JUMPI JUMPDEST PUSH1 0x0 DUP1 REVERT JUMPDEST PUSH2 0x59 PUSH2 0x9F JUMP JUMPDEST STOP JUMPDEST PUSH2 0x75 PUSH1 0x4 DUP1 CALLDATASIZE SUB DUP2 ADD SWAP1 PUSH2 0x70 SWAP2 SWAP1 PUSH2 0x149 JUMP JUMPDEST PUSH2 0xD3 JUMP JUMPDEST STOP JUMPDEST PUSH2 0x7F PUSH2 0xF0 JUMP JUMPDEST STOP JUMPDEST PUSH2 0x89 PUSH2 0x123 JUMP JUMPDEST PUSH1 0x40 MLOAD PUSH2 0x96 SWAP2 SWAP1 PUSH2 0x185 JUMP JUMPDEST PUSH1 0x40 MLOAD DUP1 SWAP2 SUB SWAP1 RETURN JUMPDEST PUSH1 0x0 DUP1 DUP2 DUP2 SWAP1 SLOAD SWAP1 PUSH2 0x100 EXP SWAP1 DIV PUSH1 0xFF AND DUP1 SWAP3 SWAP2 SWAP1 PUSH1 0x1 SWAP1 SUB SWAP2 SWAP1 PUSH2 0x100 EXP DUP2 SLOAD DUP2 PUSH1 0xFF MUL NOT AND SWAP1 DUP4 PUSH1 0xFF AND MUL OR SWAP1 SSTORE POP POP JUMP JUMPDEST DUP1 PUSH1 0x0 DUP1 PUSH2 0x100 EXP DUP2 SLOAD DUP2 PUSH1 0xFF MUL NOT AND SWAP1 DUP4 PUSH1 0xFF AND MUL OR SWAP1 SSTORE POP POP JUMP JUMPDEST PUSH1 0x0 DUP1 DUP2 DUP2 SWAP1 SLOAD SWAP1 PUSH2 0x100 EXP SWAP1 DIV PUSH1 0xFF AND DUP1 SWAP3 SWAP2 SWAP1 PUSH1 0x1 ADD SWAP2 SWAP1 PUSH2 0x100 EXP DUP2 SLOAD DUP2 PUSH1 0xFF MUL NOT AND SWAP1 DUP4 PUSH1 0xFF AND MUL OR SWAP1 SSTORE POP POP JUMP JUMPDEST PUSH1 0x0 DUP1 SLOAD SWAP1 PUSH2 0x100 EXP SWAP1 DIV PUSH1 0xFF AND DUP2 JUMP JUMPDEST PUSH1 0x0 DUP2 CALLDATALOAD SWAP1 POP PUSH2 0x143 DUP2 PUSH2 0x1B2 JUMP JUMPDEST SWAP3 SWAP2 POP POP JUMP JUMPDEST PUSH1 0x0 PUSH1 0x20 DUP3 DUP5 SUB SLT ISZERO PUSH2 0x15F JUMPI PUSH2 0x15E PUSH2 0x1AD JUMP JUMPDEST JUMPDEST PUSH1 0x0 PUSH2 0x16D DUP5 DUP3 DUP6 ADD PUSH2 0x134 JUMP JUMPDEST SWAP2 POP POP SWAP3 SWAP2 POP POP JUMP JUMPDEST PUSH2 0x17F DUP2 PUSH2 0x1A0 JUMP JUMPDEST DUP3 MSTORE POP POP JUMP JUMPDEST PUSH1 0x0 PUSH1 0x20 DUP3 ADD SWAP1 POP PUSH2 0x19A PUSH1 0x0 DUP4 ADD DUP5 PUSH2 0x176 JUMP JUMPDEST SWAP3 SWAP2 POP POP JUMP JUMPDEST PUSH1 0x0 PUSH1 0xFF DUP3 AND SWAP1 POP SWAP2 SWAP1 POP JUMP JUMPDEST PUSH1 0x0 DUP1 REVERT JUMPDEST PUSH2 0x1BB DUP2 PUSH2 0x1A0 JUMP JUMPDEST DUP2 EQ PUSH2 0x1C6 JUMPI PUSH1 0x0 DUP1 REVERT JUMPDEST POP JUMP INVALID LOG2 PUSH5 0x6970667358 0x22 SLT KECCAK256 EXTCODESIZE CALL PUSH24 0xAF25A38D953F481289672FE3956DBCAA92E2444F7E76FF02 0x2B 0xBE 0xCC 0xD5 CALL PUSH5 0x736F6C6343 STOP ADDMOD SMOD STOP CALLER "
				},
				"gasEstimates": {
					"creation": {
						"codeDepositCost": "102200",
						"executionCost": "147",
						"totalCost": "102347"
					},
					"external": {
						"decrement()": "26554",
						"increment()": "26595",
						"myUint8()": "2512",
						"setMyUint(uint8)": "24679"
					}
				},
				"methodIdentifiers": {
					"decrement()": "2baeceb7",
					"increment()": "d09de08a",
					"myUint8()": "e2a4b2af",
					"setMyUint(uint8)": "866515fc"
				}
			},
			"storageLayout": {
				"storage": [
					{
						"astId": 3,
						"contract": "contracts/Overflow.sol:Overflow",
						"label": "myUint8",
						"offset": 0,
						"slot": "0",
						"type": "t_uint8"
					}
				],
				"types": {
					"t_uint8": {
						"encoding": "inplace",
						"label": "uint8",
						"numberOfBytes": "1"
					}
				}
			},
			"userdoc": {
				"kind": "user",
				"methods": {},
				"version": 1
			}
		}
	}
}