{
	"contracts/FundsDemo.sol": {
		"FundsDemo": {
			"abi": [
				{
					"inputs": [],
					"name": "balanceReceived",
					"outputs": [
						{
							"internalType": "uint256",
							"name": "",
							"type": "uint256"
						}
					],
					"stateMutability": "view",
					"type": "function"
				},
				{
					"inputs": [],
					"name": "balanceToRec",
					"outputs": [
						{
							"internalType": "uint256",
							"name": "",
							"type": "uint256"
						}
					],
					"stateMutability": "view",
					"type": "function"
				},
				{
					"inputs": [],
					"name": "getBalance",
					"outputs": [
						{
							"internalType": "uint256",
							"name": "",
							"type": "uint256"
						}
					],
					"stateMutability": "view",
					"type": "function"
				},
				{
					"inputs": [],
					"name": "receiveMoney",
					"outputs": [],
					"stateMutability": "payable",
					"type": "function"
				},
				{
					"inputs": [],
					"name": "withdrawMoney",
					"outputs": [],
					"stateMutability": "nonpayable",
					"type": "function"
				}
			],
			"devdoc": {
				"kind": "dev",
				"methods": {},
				"version": 1
			},
			"evm": {
				"assembly": "    /* \"contracts/FundsDemo.sol\":61:483  contract FundsDemo {... */\n  mstore(0x40, 0x80)\n  callvalue\n  dup1\n  iszero\n  tag_1\n  jumpi\n  0x00\n  dup1\n  revert\ntag_1:\n  pop\n  dataSize(sub_0)\n  dup1\n  dataOffset(sub_0)\n  0x00\n  codecopy\n  0x00\n  return\nstop\n\nsub_0: assembly {\n        /* \"contracts/FundsDemo.sol\":61:483  contract FundsDemo {... */\n      mstore(0x40, 0x80)\n      jumpi(tag_1, lt(calldatasize, 0x04))\n      shr(0xe0, calldataload(0x00))\n      dup1\n      0x12065fe0\n      eq\n      tag_2\n      jumpi\n      dup1\n      0x52a90c42\n      eq\n      tag_3\n      jumpi\n      dup1\n      0x6d26ec18\n      eq\n      tag_4\n      jumpi\n      dup1\n      0xac446002\n      eq\n      tag_5\n      jumpi\n      dup1\n      0xfee389ad\n      eq\n      tag_6\n      jumpi\n    tag_1:\n      0x00\n      dup1\n      revert\n        /* \"contracts/FundsDemo.sol\":240:334  function getBalance() public view returns (uint) {... */\n    tag_2:\n      callvalue\n      dup1\n      iszero\n      tag_7\n      jumpi\n      0x00\n      dup1\n      revert\n    tag_7:\n      pop\n      tag_8\n      tag_9\n      jump\t// in\n    tag_8:\n      mload(0x40)\n      tag_10\n      swap2\n      swap1\n      tag_11\n      jump\t// in\n    tag_10:\n      mload(0x40)\n      dup1\n      swap2\n      sub\n      swap1\n      return\n        /* \"contracts/FundsDemo.sol\":86:113  uint public balanceReceived */\n    tag_3:\n      callvalue\n      dup1\n      iszero\n      tag_12\n      jumpi\n      0x00\n      dup1\n      revert\n    tag_12:\n      pop\n      tag_13\n      tag_14\n      jump\t// in\n    tag_13:\n      mload(0x40)\n      tag_15\n      swap2\n      swap1\n      tag_11\n      jump\t// in\n    tag_15:\n      mload(0x40)\n      dup1\n      swap2\n      sub\n      swap1\n      return\n        /* \"contracts/FundsDemo.sol\":150:234  function receiveMoney() public payable {... */\n    tag_4:\n      tag_16\n      tag_17\n      jump\t// in\n    tag_16:\n      stop\n        /* \"contracts/FundsDemo.sol\":340:481  function withdrawMoney() public {... */\n    tag_5:\n      callvalue\n      dup1\n      iszero\n      tag_18\n      jumpi\n      0x00\n      dup1\n      revert\n    tag_18:\n      pop\n      tag_19\n      tag_20\n      jump\t// in\n    tag_19:\n      stop\n        /* \"contracts/FundsDemo.sol\":119:143  uint public balanceToRec */\n    tag_6:\n      callvalue\n      dup1\n      iszero\n      tag_21\n      jumpi\n      0x00\n      dup1\n      revert\n    tag_21:\n      pop\n      tag_22\n      tag_23\n      jump\t// in\n    tag_22:\n      mload(0x40)\n      tag_24\n      swap2\n      swap1\n      tag_11\n      jump\t// in\n    tag_24:\n      mload(0x40)\n      dup1\n      swap2\n      sub\n      swap1\n      return\n        /* \"contracts/FundsDemo.sol\":240:334  function getBalance() public view returns (uint) {... */\n    tag_9:\n        /* \"contracts/FundsDemo.sol\":283:287  uint */\n      0x00\n        /* \"contracts/FundsDemo.sol\":306:327  address(this).balance */\n      selfbalance\n        /* \"contracts/FundsDemo.sol\":299:327  return address(this).balance */\n      swap1\n      pop\n        /* \"contracts/FundsDemo.sol\":240:334  function getBalance() public view returns (uint) {... */\n      swap1\n      jump\t// out\n        /* \"contracts/FundsDemo.sol\":86:113  uint public balanceReceived */\n    tag_14:\n      sload(0x00)\n      dup2\n      jump\t// out\n        /* \"contracts/FundsDemo.sol\":150:234  function receiveMoney() public payable {... */\n    tag_17:\n        /* \"contracts/FundsDemo.sol\":218:227  msg.value */\n      callvalue\n        /* \"contracts/FundsDemo.sol\":199:214  balanceReceived */\n      0x00\n      dup1\n        /* \"contracts/FundsDemo.sol\":199:227  balanceReceived += msg.value */\n      dup3\n      dup3\n      sload\n      tag_27\n      swap2\n      swap1\n      tag_28\n      jump\t// in\n    tag_27:\n      swap3\n      pop\n      pop\n      dup2\n      swap1\n      sstore\n      pop\n        /* \"contracts/FundsDemo.sol\":150:234  function receiveMoney() public payable {... */\n      jump\t// out\n        /* \"contracts/FundsDemo.sol\":340:481  function withdrawMoney() public {... */\n    tag_20:\n        /* \"contracts/FundsDemo.sol\":382:406  address payable receiver */\n      0x00\n        /* \"contracts/FundsDemo.sol\":417:427  msg.sender */\n      caller\n        /* \"contracts/FundsDemo.sol\":382:428  address payable receiver = payable(msg.sender) */\n      swap1\n      pop\n        /* \"contracts/FundsDemo.sol\":438:446  receiver */\n      dup1\n        /* \"contracts/FundsDemo.sol\":438:455  receiver.transfer */\n      0xffffffffffffffffffffffffffffffffffffffff\n      and\n        /* \"contracts/FundsDemo.sol\":438:474  receiver.transfer(this.getBalance()) */\n      0x08fc\n        /* \"contracts/FundsDemo.sol\":456:460  this */\n      address\n        /* \"contracts/FundsDemo.sol\":456:471  this.getBalance */\n      0xffffffffffffffffffffffffffffffffffffffff\n      and\n      0x12065fe0\n        /* \"contracts/FundsDemo.sol\":456:473  this.getBalance() */\n      mload(0x40)\n      dup2\n      0xffffffff\n      and\n      0xe0\n      shl\n      dup2\n      mstore\n      0x04\n      add\n      0x20\n      mload(0x40)\n      dup1\n      dup4\n      sub\n      dup2\n      dup7\n      dup1\n      extcodesize\n      iszero\n      dup1\n      iszero\n      tag_30\n      jumpi\n      0x00\n      dup1\n      revert\n    tag_30:\n      pop\n      gas\n      staticcall\n      iszero\n      dup1\n      iszero\n      tag_32\n      jumpi\n      returndatasize\n      0x00\n      dup1\n      returndatacopy\n      revert(0x00, returndatasize)\n    tag_32:\n      pop\n      pop\n      pop\n      pop\n      mload(0x40)\n      returndatasize\n      not(0x1f)\n      0x1f\n      dup3\n      add\n      and\n      dup3\n      add\n      dup1\n      0x40\n      mstore\n      pop\n      dup2\n      add\n      swap1\n      tag_33\n      swap2\n      swap1\n      tag_34\n      jump\t// in\n    tag_33:\n        /* \"contracts/FundsDemo.sol\":438:474  receiver.transfer(this.getBalance()) */\n      swap1\n      dup2\n      iszero\n      mul\n      swap1\n      mload(0x40)\n      0x00\n      mload(0x40)\n      dup1\n      dup4\n      sub\n      dup2\n      dup6\n      dup9\n      dup9\n      call\n      swap4\n      pop\n      pop\n      pop\n      pop\n      iszero\n      dup1\n      iszero\n      tag_36\n      jumpi\n      returndatasize\n      0x00\n      dup1\n      returndatacopy\n      revert(0x00, returndatasize)\n    tag_36:\n      pop\n        /* \"contracts/FundsDemo.sol\":372:481  {... */\n      pop\n        /* \"contracts/FundsDemo.sol\":340:481  function withdrawMoney() public {... */\n      jump\t// out\n        /* \"contracts/FundsDemo.sol\":119:143  uint public balanceToRec */\n    tag_23:\n      sload(0x01)\n      dup2\n      jump\t// out\n        /* \"#utility.yul\":7:150   */\n    tag_38:\n        /* \"#utility.yul\":64:69   */\n      0x00\n        /* \"#utility.yul\":95:101   */\n      dup2\n        /* \"#utility.yul\":89:102   */\n      mload\n        /* \"#utility.yul\":80:102   */\n      swap1\n      pop\n        /* \"#utility.yul\":111:144   */\n      tag_40\n        /* \"#utility.yul\":138:143   */\n      dup2\n        /* \"#utility.yul\":111:144   */\n      tag_41\n      jump\t// in\n    tag_40:\n        /* \"#utility.yul\":7:150   */\n      swap3\n      swap2\n      pop\n      pop\n      jump\t// out\n        /* \"#utility.yul\":156:507   */\n    tag_34:\n        /* \"#utility.yul\":226:232   */\n      0x00\n        /* \"#utility.yul\":275:277   */\n      0x20\n        /* \"#utility.yul\":263:272   */\n      dup3\n        /* \"#utility.yul\":254:261   */\n      dup5\n        /* \"#utility.yul\":250:273   */\n      sub\n        /* \"#utility.yul\":246:278   */\n      slt\n        /* \"#utility.yul\":243:362   */\n      iszero\n      tag_43\n      jumpi\n        /* \"#utility.yul\":281:360   */\n      tag_44\n      tag_45\n      jump\t// in\n    tag_44:\n        /* \"#utility.yul\":243:362   */\n    tag_43:\n        /* \"#utility.yul\":401:402   */\n      0x00\n        /* \"#utility.yul\":426:490   */\n      tag_46\n        /* \"#utility.yul\":482:489   */\n      dup5\n        /* \"#utility.yul\":473:479   */\n      dup3\n        /* \"#utility.yul\":462:471   */\n      dup6\n        /* \"#utility.yul\":458:480   */\n      add\n        /* \"#utility.yul\":426:490   */\n      tag_38\n      jump\t// in\n    tag_46:\n        /* \"#utility.yul\":416:490   */\n      swap2\n      pop\n        /* \"#utility.yul\":372:500   */\n      pop\n        /* \"#utility.yul\":156:507   */\n      swap3\n      swap2\n      pop\n      pop\n      jump\t// out\n        /* \"#utility.yul\":513:631   */\n    tag_47:\n        /* \"#utility.yul\":600:624   */\n      tag_49\n        /* \"#utility.yul\":618:623   */\n      dup2\n        /* \"#utility.yul\":600:624   */\n      tag_50\n      jump\t// in\n    tag_49:\n        /* \"#utility.yul\":595:598   */\n      dup3\n        /* \"#utility.yul\":588:625   */\n      mstore\n        /* \"#utility.yul\":513:631   */\n      pop\n      pop\n      jump\t// out\n        /* \"#utility.yul\":637:859   */\n    tag_11:\n        /* \"#utility.yul\":730:734   */\n      0x00\n        /* \"#utility.yul\":768:770   */\n      0x20\n        /* \"#utility.yul\":757:766   */\n      dup3\n        /* \"#utility.yul\":753:771   */\n      add\n        /* \"#utility.yul\":745:771   */\n      swap1\n      pop\n        /* \"#utility.yul\":781:852   */\n      tag_52\n        /* \"#utility.yul\":849:850   */\n      0x00\n        /* \"#utility.yul\":838:847   */\n      dup4\n        /* \"#utility.yul\":834:851   */\n      add\n        /* \"#utility.yul\":825:831   */\n      dup5\n        /* \"#utility.yul\":781:852   */\n      tag_47\n      jump\t// in\n    tag_52:\n        /* \"#utility.yul\":637:859   */\n      swap3\n      swap2\n      pop\n      pop\n      jump\t// out\n        /* \"#utility.yul\":946:1251   */\n    tag_28:\n        /* \"#utility.yul\":986:989   */\n      0x00\n        /* \"#utility.yul\":1005:1025   */\n      tag_56\n        /* \"#utility.yul\":1023:1024   */\n      dup3\n        /* \"#utility.yul\":1005:1025   */\n      tag_50\n      jump\t// in\n    tag_56:\n        /* \"#utility.yul\":1000:1025   */\n      swap2\n      pop\n        /* \"#utility.yul\":1039:1059   */\n      tag_57\n        /* \"#utility.yul\":1057:1058   */\n      dup4\n        /* \"#utility.yul\":1039:1059   */\n      tag_50\n      jump\t// in\n    tag_57:\n        /* \"#utility.yul\":1034:1059   */\n      swap3\n      pop\n        /* \"#utility.yul\":1193:1194   */\n      dup3\n        /* \"#utility.yul\":1125:1191   */\n      0xffffffffffffffffffffffffffffffffffffffffffffffffffffffffffffffff\n        /* \"#utility.yul\":1121:1195   */\n      sub\n        /* \"#utility.yul\":1118:1119   */\n      dup3\n        /* \"#utility.yul\":1115:1196   */\n      gt\n        /* \"#utility.yul\":1112:1219   */\n      iszero\n      tag_58\n      jumpi\n        /* \"#utility.yul\":1199:1217   */\n      tag_59\n      tag_60\n      jump\t// in\n    tag_59:\n        /* \"#utility.yul\":1112:1219   */\n    tag_58:\n        /* \"#utility.yul\":1243:1244   */\n      dup3\n        /* \"#utility.yul\":1240:1241   */\n      dup3\n        /* \"#utility.yul\":1236:1245   */\n      add\n        /* \"#utility.yul\":1229:1245   */\n      swap1\n      pop\n        /* \"#utility.yul\":946:1251   */\n      swap3\n      swap2\n      pop\n      pop\n      jump\t// out\n        /* \"#utility.yul\":1257:1334   */\n    tag_50:\n        /* \"#utility.yul\":1294:1301   */\n      0x00\n        /* \"#utility.yul\":1323:1328   */\n      dup2\n        /* \"#utility.yul\":1312:1328   */\n      swap1\n      pop\n        /* \"#utility.yul\":1257:1334   */\n      swap2\n      swap1\n      pop\n      jump\t// out\n        /* \"#utility.yul\":1340:1520   */\n    tag_60:\n        /* \"#utility.yul\":1388:1465   */\n      0x4e487b7100000000000000000000000000000000000000000000000000000000\n        /* \"#utility.yul\":1385:1386   */\n      0x00\n        /* \"#utility.yul\":1378:1466   */\n      mstore\n        /* \"#utility.yul\":1485:1489   */\n      0x11\n        /* \"#utility.yul\":1482:1483   */\n      0x04\n        /* \"#utility.yul\":1475:1490   */\n      mstore\n        /* \"#utility.yul\":1509:1513   */\n      0x24\n        /* \"#utility.yul\":1506:1507   */\n      0x00\n        /* \"#utility.yul\":1499:1514   */\n      revert\n        /* \"#utility.yul\":1649:1766   */\n    tag_45:\n        /* \"#utility.yul\":1758:1759   */\n      0x00\n        /* \"#utility.yul\":1755:1756   */\n      dup1\n        /* \"#utility.yul\":1748:1760   */\n      revert\n        /* \"#utility.yul\":1772:1894   */\n    tag_41:\n        /* \"#utility.yul\":1845:1869   */\n      tag_67\n        /* \"#utility.yul\":1863:1868   */\n      dup2\n        /* \"#utility.yul\":1845:1869   */\n      tag_50\n      jump\t// in\n    tag_67:\n        /* \"#utility.yul\":1838:1843   */\n      dup2\n        /* \"#utility.yul\":1835:1870   */\n      eq\n        /* \"#utility.yul\":1825:1888   */\n      tag_68\n      jumpi\n        /* \"#utility.yul\":1884:1885   */\n      0x00\n        /* \"#utility.yul\":1881:1882   */\n      dup1\n        /* \"#utility.yul\":1874:1886   */\n      revert\n        /* \"#utility.yul\":1825:1888   */\n    tag_68:\n        /* \"#utility.yul\":1772:1894   */\n      pop\n      jump\t// out\n\n    auxdata: 0xa2646970667358221220232b49961a41b64eb36818ce9d497b413e6e0ba3dcee4cd00b372181b9b9b9ef64736f6c63430008070033\n}\n",
				"bytecode": {
					"linkReferences": {},
					"object": "608060405234801561001057600080fd5b50610338806100206000396000f3fe60806040526004361061004a5760003560e01c806312065fe01461004f57806352a90c421461007a5780636d26ec18146100a5578063ac446002146100af578063fee389ad146100c6575b600080fd5b34801561005b57600080fd5b506100646100f1565b604051610071919061023c565b60405180910390f35b34801561008657600080fd5b5061008f6100f9565b60405161009c919061023c565b60405180910390f35b6100ad6100ff565b005b3480156100bb57600080fd5b506100c4610119565b005b3480156100d257600080fd5b506100db6101e5565b6040516100e8919061023c565b60405180910390f35b600047905090565b60005481565b346000808282546101109190610257565b92505081905550565b60003390508073ffffffffffffffffffffffffffffffffffffffff166108fc3073ffffffffffffffffffffffffffffffffffffffff166312065fe06040518163ffffffff1660e01b815260040160206040518083038186803b15801561017e57600080fd5b505afa158015610192573d6000803e3d6000fd5b505050506040513d601f19601f820116820180604052508101906101b69190610200565b9081150290604051600060405180830381858888f193505050501580156101e1573d6000803e3d6000fd5b5050565b60015481565b6000815190506101fa816102eb565b92915050565b600060208284031215610216576102156102e6565b5b6000610224848285016101eb565b91505092915050565b610236816102ad565b82525050565b6000602082019050610251600083018461022d565b92915050565b6000610262826102ad565b915061026d836102ad565b9250827fffffffffffffffffffffffffffffffffffffffffffffffffffffffffffffffff038211156102a2576102a16102b7565b5b828201905092915050565b6000819050919050565b7f4e487b7100000000000000000000000000000000000000000000000000000000600052601160045260246000fd5b600080fd5b6102f4816102ad565b81146102ff57600080fd5b5056fea2646970667358221220232b49961a41b64eb36818ce9d497b413e6e0ba3dcee4cd00b372181b9b9b9ef64736f6c63430008070033",
					"opcodes": "PUSH1 0x80 PUSH1 0x40 MSTORE CALLVALUE DUP1 ISZERO PUSH2 0x10 JUMPI PUSH1 0x0 DUP1 REVERT JUMPDEST POP PUSH2 0x338 DUP1 PUSH2 0x20 PUSH1 0x0 CODECOPY PUSH1 0x0 RETURN INVALID PUSH1 0x80 PUSH1 0x40 MSTORE PUSH1 0x4 CALLDATASIZE LT PUSH2 0x4A JUMPI PUSH1 0x0 CALLDATALOAD PUSH1 0xE0 SHR DUP1 PUSH4 0x12065FE0 EQ PUSH2 0x4F JUMPI DUP1 PUSH4 0x52A90C42 EQ PUSH2 0x7A JUMPI DUP1 PUSH4 0x6D26EC18 EQ PUSH2 0xA5 JUMPI DUP1 PUSH4 0xAC446002 EQ PUSH2 0xAF JUMPI DUP1 PUSH4 0xFEE389AD EQ PUSH2 0xC6 JUMPI JUMPDEST PUSH1 0x0 DUP1 REVERT JUMPDEST CALLVALUE DUP1 ISZERO PUSH2 0x5B JUMPI PUSH1 0x0 DUP1 REVERT JUMPDEST POP PUSH2 0x64 PUSH2 0xF1 JUMP JUMPDEST PUSH1 0x40 MLOAD PUSH2 0x71 SWAP2 SWAP1 PUSH2 0x23C JUMP JUMPDEST PUSH1 0x40 MLOAD DUP1 SWAP2 SUB SWAP1 RETURN JUMPDEST CALLVALUE DUP1 ISZERO PUSH2 0x86 JUMPI PUSH1 0x0 DUP1 REVERT JUMPDEST POP PUSH2 0x8F PUSH2 0xF9 JUMP JUMPDEST PUSH1 0x40 MLOAD PUSH2 0x9C SWAP2 SWAP1 PUSH2 0x23C JUMP JUMPDEST PUSH1 0x40 MLOAD DUP1 SWAP2 SUB SWAP1 RETURN JUMPDEST PUSH2 0xAD PUSH2 0xFF JUMP JUMPDEST STOP JUMPDEST CALLVALUE DUP1 ISZERO PUSH2 0xBB JUMPI PUSH1 0x0 DUP1 REVERT JUMPDEST POP PUSH2 0xC4 PUSH2 0x119 JUMP JUMPDEST STOP JUMPDEST CALLVALUE DUP1 ISZERO PUSH2 0xD2 JUMPI PUSH1 0x0 DUP1 REVERT JUMPDEST POP PUSH2 0xDB PUSH2 0x1E5 JUMP JUMPDEST PUSH1 0x40 MLOAD PUSH2 0xE8 SWAP2 SWAP1 PUSH2 0x23C JUMP JUMPDEST PUSH1 0x40 MLOAD DUP1 SWAP2 SUB SWAP1 RETURN JUMPDEST PUSH1 0x0 SELFBALANCE SWAP1 POP SWAP1 JUMP JUMPDEST PUSH1 0x0 SLOAD DUP2 JUMP JUMPDEST CALLVALUE PUSH1 0x0 DUP1 DUP3 DUP3 SLOAD PUSH2 0x110 SWAP2 SWAP1 PUSH2 0x257 JUMP JUMPDEST SWAP3 POP POP DUP2 SWAP1 SSTORE POP JUMP JUMPDEST PUSH1 0x0 CALLER SWAP1 POP DUP1 PUSH20 0xFFFFFFFFFFFFFFFFFFFFFFFFFFFFFFFFFFFFFFFF AND PUSH2 0x8FC ADDRESS PUSH20 0xFFFFFFFFFFFFFFFFFFFFFFFFFFFFFFFFFFFFFFFF AND PUSH4 0x12065FE0 PUSH1 0x40 MLOAD DUP2 PUSH4 0xFFFFFFFF AND PUSH1 0xE0 SHL DUP2 MSTORE PUSH1 0x4 ADD PUSH1 0x20 PUSH1 0x40 MLOAD DUP1 DUP4 SUB DUP2 DUP7 DUP1 EXTCODESIZE ISZERO DUP1 ISZERO PUSH2 0x17E JUMPI PUSH1 0x0 DUP1 REVERT JUMPDEST POP GAS STATICCALL ISZERO DUP1 ISZERO PUSH2 0x192 JUMPI RETURNDATASIZE PUSH1 0x0 DUP1 RETURNDATACOPY RETURNDATASIZE PUSH1 0x0 REVERT JUMPDEST POP POP POP POP PUSH1 0x40 MLOAD RETURNDATASIZE PUSH1 0x1F NOT PUSH1 0x1F DUP3 ADD AND DUP3 ADD DUP1 PUSH1 0x40 MSTORE POP DUP2 ADD SWAP1 PUSH2 0x1B6 SWAP2 SWAP1 PUSH2 0x200 JUMP JUMPDEST SWAP1 DUP2 ISZERO MUL SWAP1 PUSH1 0x40 MLOAD PUSH1 0x0 PUSH1 0x40 MLOAD DUP1 DUP4 SUB DUP2 DUP6 DUP9 DUP9 CALL SWAP4 POP POP POP POP ISZERO DUP1 ISZERO PUSH2 0x1E1 JUMPI RETURNDATASIZE PUSH1 0x0 DUP1 RETURNDATACOPY RETURNDATASIZE PUSH1 0x0 REVERT JUMPDEST POP POP JUMP JUMPDEST PUSH1 0x1 SLOAD DUP2 JUMP JUMPDEST PUSH1 0x0 DUP2 MLOAD SWAP1 POP PUSH2 0x1FA DUP2 PUSH2 0x2EB JUMP JUMPDEST SWAP3 SWAP2 POP POP JUMP JUMPDEST PUSH1 0x0 PUSH1 0x20 DUP3 DUP5 SUB SLT ISZERO PUSH2 0x216 JUMPI PUSH2 0x215 PUSH2 0x2E6 JUMP JUMPDEST JUMPDEST PUSH1 0x0 PUSH2 0x224 DUP5 DUP3 DUP6 ADD PUSH2 0x1EB JUMP JUMPDEST SWAP2 POP POP SWAP3 SWAP2 POP POP JUMP JUMPDEST PUSH2 0x236 DUP2 PUSH2 0x2AD JUMP JUMPDEST DUP3 MSTORE POP POP JUMP JUMPDEST PUSH1 0x0 PUSH1 0x20 DUP3 ADD SWAP1 POP PUSH2 0x251 PUSH1 0x0 DUP4 ADD DUP5 PUSH2 0x22D JUMP JUMPDEST SWAP3 SWAP2 POP POP JUMP JUMPDEST PUSH1 0x0 PUSH2 0x262 DUP3 PUSH2 0x2AD JUMP JUMPDEST SWAP2 POP PUSH2 0x26D DUP4 PUSH2 0x2AD JUMP JUMPDEST SWAP3 POP DUP3 PUSH32 0xFFFFFFFFFFFFFFFFFFFFFFFFFFFFFFFFFFFFFFFFFFFFFFFFFFFFFFFFFFFFFFFF SUB DUP3 GT ISZERO PUSH2 0x2A2 JUMPI PUSH2 0x2A1 PUSH2 0x2B7 JUMP JUMPDEST JUMPDEST DUP3 DUP3 ADD SWAP1 POP SWAP3 SWAP2 POP POP JUMP JUMPDEST PUSH1 0x0 DUP2 SWAP1 POP SWAP2 SWAP1 POP JUMP JUMPDEST PUSH32 0x4E487B7100000000000000000000000000000000000000000000000000000000 PUSH1 0x0 MSTORE PUSH1 0x11 PUSH1 0x4 MSTORE PUSH1 0x24 PUSH1 0x0 REVERT JUMPDEST PUSH1 0x0 DUP1 REVERT JUMPDEST PUSH2 0x2F4 DUP2 PUSH2 0x2AD JUMP JUMPDEST DUP2 EQ PUSH2 0x2FF JUMPI PUSH1 0x0 DUP1 REVERT JUMPDEST POP JUMP INVALID LOG2 PUSH5 0x6970667358 0x22 SLT KECCAK256 0x23 0x2B 0x49 SWAP7 BYTE COINBASE 0xB6 0x4E 0xB3 PUSH9 0x18CE9D497B413E6E0B LOG3 0xDC 0xEE 0x4C 0xD0 SIGNEXTEND CALLDATACOPY 0x21 DUP2 0xB9 0xB9 0xB9 0xEF PUSH5 0x736F6C6343 STOP ADDMOD SMOD STOP CALLER "
				},
				"gasEstimates": {
					"creation": {
						"codeDepositCost": "164800",
						"executionCost": "208",
						"totalCost": "165008"
					},
					"external": {
						"balanceReceived()": "2429",
						"balanceToRec()": "2495",
						"getBalance()": "317",
						"receiveMoney()": "infinite",
						"withdrawMoney()": "infinite"
					}
				},
				"methodIdentifiers": {
					"balanceReceived()": "52a90c42",
					"balanceToRec()": "fee389ad",
					"getBalance()": "12065fe0",
					"receiveMoney()": "6d26ec18",
					"withdrawMoney()": "ac446002"
				}
			},
			"storageLayout": {
				"storage": [
					{
						"astId": 3,
						"contract": "contracts/FundsDemo.sol:FundsDemo",
						"label": "balanceReceived",
						"offset": 0,
						"slot": "0",
						"type": "t_uint256"
					},
					{
						"astId": 5,
						"contract": "contracts/FundsDemo.sol:FundsDemo",
						"label": "balanceToRec",
						"offset": 0,
						"slot": "1",
						"type": "t_uint256"
					}
				],
				"types": {
					"t_uint256": {
						"encoding": "inplace",
						"label": "uint256",
						"numberOfBytes": "32"
					}
				}
			},
			"userdoc": {
				"kind": "user",
				"methods": {},
				"version": 1
			}
		}
	}
}