{
	"contracts/MathCardio.sol": {
		"MathCardio": {
			"abi": [
				{
					"inputs": [],
					"name": "summa",
					"outputs": [],
					"stateMutability": "nonpayable",
					"type": "function"
				},
				{
					"inputs": [],
					"name": "x",
					"outputs": [
						{
							"internalType": "uint256",
							"name": "",
							"type": "uint256"
						}
					],
					"stateMutability": "view",
					"type": "function"
				},
				{
					"inputs": [],
					"name": "y",
					"outputs": [
						{
							"internalType": "uint256",
							"name": "",
							"type": "uint256"
						}
					],
					"stateMutability": "view",
					"type": "function"
				}
			],
			"devdoc": {
				"kind": "dev",
				"methods": {},
				"version": 1
			},
			"evm": {
				"assembly": "    /* \"contracts/MathCardio.sol\":69:249  contract MathCardio {    ... */\n  mstore(0x40, 0x80)\n    /* \"contracts/MathCardio.sol\":113:114  2 */\n  0x02\n    /* \"contracts/MathCardio.sol\":97:114  uint public x = 2 */\n  0x00\n  sstore\n    /* \"contracts/MathCardio.sol\":134:135  3 */\n  0x03\n    /* \"contracts/MathCardio.sol\":118:135  uint public y = 3 */\n  0x01\n  sstore\n    /* \"contracts/MathCardio.sol\":69:249  contract MathCardio {    ... */\n  callvalue\n  dup1\n  iszero\n  tag_1\n  jumpi\n  0x00\n  dup1\n  revert\ntag_1:\n  pop\n  dataSize(sub_0)\n  dup1\n  dataOffset(sub_0)\n  0x00\n  codecopy\n  0x00\n  return\nstop\n\nsub_0: assembly {\n        /* \"contracts/MathCardio.sol\":69:249  contract MathCardio {    ... */\n      mstore(0x40, 0x80)\n      callvalue\n      dup1\n      iszero\n      tag_1\n      jumpi\n      0x00\n      dup1\n      revert\n    tag_1:\n      pop\n      jumpi(tag_2, lt(calldatasize, 0x04))\n      shr(0xe0, calldataload(0x00))\n      dup1\n      0x0c55699c\n      eq\n      tag_3\n      jumpi\n      dup1\n      0xa56dfe4a\n      eq\n      tag_4\n      jumpi\n      dup1\n      0xb7c408d1\n      eq\n      tag_5\n      jumpi\n    tag_2:\n      0x00\n      dup1\n      revert\n        /* \"contracts/MathCardio.sol\":97:114  uint public x = 2 */\n    tag_3:\n      tag_6\n      tag_7\n      jump\t// in\n    tag_6:\n      mload(0x40)\n      tag_8\n      swap2\n      swap1\n      tag_9\n      jump\t// in\n    tag_8:\n      mload(0x40)\n      dup1\n      swap2\n      sub\n      swap1\n      return\n        /* \"contracts/MathCardio.sol\":118:135  uint public y = 3 */\n    tag_4:\n      tag_10\n      tag_11\n      jump\t// in\n    tag_10:\n      mload(0x40)\n      tag_12\n      swap2\n      swap1\n      tag_9\n      jump\t// in\n    tag_12:\n      mload(0x40)\n      dup1\n      swap2\n      sub\n      swap1\n      return\n        /* \"contracts/MathCardio.sol\":140:247  function summa() public {... */\n    tag_5:\n      tag_13\n      tag_14\n      jump\t// in\n    tag_13:\n      stop\n        /* \"contracts/MathCardio.sol\":97:114  uint public x = 2 */\n    tag_7:\n      sload(0x00)\n      dup2\n      jump\t// out\n        /* \"contracts/MathCardio.sol\":118:135  uint public y = 3 */\n    tag_11:\n      sload(0x01)\n      dup2\n      jump\t// out\n        /* \"contracts/MathCardio.sol\":140:247  function summa() public {... */\n    tag_14:\n        /* \"contracts/MathCardio.sol\":170:178  uint sum */\n      0x00\n        /* \"contracts/MathCardio.sol\":185:186  y */\n      sload(0x01)\n        /* \"contracts/MathCardio.sol\":181:182  x */\n      sload(0x00)\n        /* \"contracts/MathCardio.sol\":181:186  x + y */\n      tag_16\n      swap2\n      swap1\n      tag_17\n      jump\t// in\n    tag_16:\n        /* \"contracts/MathCardio.sol\":170:186  uint sum = x + y */\n      swap1\n      pop\n        /* \"contracts/MathCardio.sol\":192:202  uint power */\n      0x00\n        /* \"contracts/MathCardio.sol\":212:213  x */\n      dup1\n      sload\n        /* \"contracts/MathCardio.sol\":205:208  sum */\n      dup3\n        /* \"contracts/MathCardio.sol\":205:213  sum ** x */\n      tag_18\n      swap2\n      swap1\n      tag_19\n      jump\t// in\n    tag_18:\n        /* \"contracts/MathCardio.sol\":192:213  uint power = sum ** x */\n      swap1\n      pop\n        /* \"contracts/MathCardio.sol\":219:230  uint modulo */\n      0x00\n        /* \"contracts/MathCardio.sol\":241:242  y */\n      sload(0x01)\n        /* \"contracts/MathCardio.sol\":233:238  power */\n      dup3\n        /* \"contracts/MathCardio.sol\":233:242  power % y */\n      tag_20\n      swap2\n      swap1\n      tag_21\n      jump\t// in\n    tag_20:\n        /* \"contracts/MathCardio.sol\":219:242  uint modulo = power % y */\n      swap1\n      pop\n        /* \"contracts/MathCardio.sol\":164:247  {... */\n      pop\n      pop\n      pop\n        /* \"contracts/MathCardio.sol\":140:247  function summa() public {... */\n      jump\t// out\n        /* \"#utility.yul\":7:125   */\n    tag_23:\n        /* \"#utility.yul\":94:118   */\n      tag_25\n        /* \"#utility.yul\":112:117   */\n      dup2\n        /* \"#utility.yul\":94:118   */\n      tag_26\n      jump\t// in\n    tag_25:\n        /* \"#utility.yul\":89:92   */\n      dup3\n        /* \"#utility.yul\":82:119   */\n      mstore\n        /* \"#utility.yul\":7:125   */\n      pop\n      pop\n      jump\t// out\n        /* \"#utility.yul\":131:353   */\n    tag_9:\n        /* \"#utility.yul\":224:228   */\n      0x00\n        /* \"#utility.yul\":262:264   */\n      0x20\n        /* \"#utility.yul\":251:260   */\n      dup3\n        /* \"#utility.yul\":247:265   */\n      add\n        /* \"#utility.yul\":239:265   */\n      swap1\n      pop\n        /* \"#utility.yul\":275:346   */\n      tag_28\n        /* \"#utility.yul\":343:344   */\n      0x00\n        /* \"#utility.yul\":332:341   */\n      dup4\n        /* \"#utility.yul\":328:345   */\n      add\n        /* \"#utility.yul\":319:325   */\n      dup5\n        /* \"#utility.yul\":275:346   */\n      tag_23\n      jump\t// in\n    tag_28:\n        /* \"#utility.yul\":131:353   */\n      swap3\n      swap2\n      pop\n      pop\n      jump\t// out\n        /* \"#utility.yul\":359:664   */\n    tag_17:\n        /* \"#utility.yul\":399:402   */\n      0x00\n        /* \"#utility.yul\":418:438   */\n      tag_30\n        /* \"#utility.yul\":436:437   */\n      dup3\n        /* \"#utility.yul\":418:438   */\n      tag_26\n      jump\t// in\n    tag_30:\n        /* \"#utility.yul\":413:438   */\n      swap2\n      pop\n        /* \"#utility.yul\":452:472   */\n      tag_31\n        /* \"#utility.yul\":470:471   */\n      dup4\n        /* \"#utility.yul\":452:472   */\n      tag_26\n      jump\t// in\n    tag_31:\n        /* \"#utility.yul\":447:472   */\n      swap3\n      pop\n        /* \"#utility.yul\":606:607   */\n      dup3\n        /* \"#utility.yul\":538:604   */\n      0xffffffffffffffffffffffffffffffffffffffffffffffffffffffffffffffff\n        /* \"#utility.yul\":534:608   */\n      sub\n        /* \"#utility.yul\":531:532   */\n      dup3\n        /* \"#utility.yul\":528:609   */\n      gt\n        /* \"#utility.yul\":525:632   */\n      iszero\n      tag_32\n      jumpi\n        /* \"#utility.yul\":612:630   */\n      tag_33\n      tag_34\n      jump\t// in\n    tag_33:\n        /* \"#utility.yul\":525:632   */\n    tag_32:\n        /* \"#utility.yul\":656:657   */\n      dup3\n        /* \"#utility.yul\":653:654   */\n      dup3\n        /* \"#utility.yul\":649:658   */\n      add\n        /* \"#utility.yul\":642:658   */\n      swap1\n      pop\n        /* \"#utility.yul\":359:664   */\n      swap3\n      swap2\n      pop\n      pop\n      jump\t// out\n        /* \"#utility.yul\":670:1518   */\n    tag_35:\n        /* \"#utility.yul\":731:736   */\n      0x00\n        /* \"#utility.yul\":738:742   */\n      dup1\n        /* \"#utility.yul\":762:768   */\n      dup3\n        /* \"#utility.yul\":753:768   */\n      swap2\n      pop\n        /* \"#utility.yul\":786:791   */\n      dup4\n        /* \"#utility.yul\":777:791   */\n      swap1\n      pop\n        /* \"#utility.yul\":800:1512   */\n    tag_37:\n        /* \"#utility.yul\":821:822   */\n      0x01\n        /* \"#utility.yul\":811:819   */\n      dup6\n        /* \"#utility.yul\":808:823   */\n      gt\n        /* \"#utility.yul\":800:1512   */\n      iszero\n      tag_39\n      jumpi\n        /* \"#utility.yul\":916:920   */\n      dup1\n        /* \"#utility.yul\":911:914   */\n      dup7\n        /* \"#utility.yul\":907:921   */\n      div\n        /* \"#utility.yul\":901:905   */\n      dup2\n        /* \"#utility.yul\":898:922   */\n      gt\n        /* \"#utility.yul\":895:945   */\n      iszero\n      tag_40\n      jumpi\n        /* \"#utility.yul\":925:943   */\n      tag_41\n      tag_34\n      jump\t// in\n    tag_41:\n        /* \"#utility.yul\":895:945   */\n    tag_40:\n        /* \"#utility.yul\":975:976   */\n      0x01\n        /* \"#utility.yul\":965:973   */\n      dup6\n        /* \"#utility.yul\":961:977   */\n      and\n        /* \"#utility.yul\":958:1409   */\n      iszero\n      tag_42\n      jumpi\n        /* \"#utility.yul\":1390:1394   */\n      dup1\n        /* \"#utility.yul\":1383:1388   */\n      dup3\n        /* \"#utility.yul\":1379:1395   */\n      mul\n        /* \"#utility.yul\":1370:1395   */\n      swap2\n      pop\n        /* \"#utility.yul\":958:1409   */\n    tag_42:\n        /* \"#utility.yul\":1440:1444   */\n      dup1\n        /* \"#utility.yul\":1434:1438   */\n      dup2\n        /* \"#utility.yul\":1430:1445   */\n      mul\n        /* \"#utility.yul\":1422:1445   */\n      swap1\n      pop\n        /* \"#utility.yul\":1470:1502   */\n      tag_43\n        /* \"#utility.yul\":1493:1501   */\n      dup6\n        /* \"#utility.yul\":1470:1502   */\n      tag_44\n      jump\t// in\n    tag_43:\n        /* \"#utility.yul\":1458:1502   */\n      swap5\n      pop\n        /* \"#utility.yul\":800:1512   */\n      jump(tag_37)\n    tag_39:\n        /* \"#utility.yul\":670:1518   */\n      swap5\n      pop\n      swap5\n      swap3\n      pop\n      pop\n      pop\n      jump\t// out\n        /* \"#utility.yul\":1524:1809   */\n    tag_19:\n        /* \"#utility.yul\":1584:1589   */\n      0x00\n        /* \"#utility.yul\":1608:1631   */\n      tag_46\n        /* \"#utility.yul\":1626:1630   */\n      dup3\n        /* \"#utility.yul\":1608:1631   */\n      tag_26\n      jump\t// in\n    tag_46:\n        /* \"#utility.yul\":1600:1631   */\n      swap2\n      pop\n        /* \"#utility.yul\":1652:1679   */\n      tag_47\n        /* \"#utility.yul\":1670:1678   */\n      dup4\n        /* \"#utility.yul\":1652:1679   */\n      tag_26\n      jump\t// in\n    tag_47:\n        /* \"#utility.yul\":1640:1679   */\n      swap3\n      pop\n        /* \"#utility.yul\":1698:1802   */\n      tag_48\n        /* \"#utility.yul\":1735:1801   */\n      0xffffffffffffffffffffffffffffffffffffffffffffffffffffffffffffffff\n        /* \"#utility.yul\":1725:1733   */\n      dup5\n        /* \"#utility.yul\":1719:1723   */\n      dup5\n        /* \"#utility.yul\":1698:1802   */\n      tag_49\n      jump\t// in\n    tag_48:\n        /* \"#utility.yul\":1689:1802   */\n      swap1\n      pop\n        /* \"#utility.yul\":1524:1809   */\n      swap3\n      swap2\n      pop\n      pop\n      jump\t// out\n        /* \"#utility.yul\":1815:2888   */\n    tag_49:\n        /* \"#utility.yul\":1869:1874   */\n      0x00\n        /* \"#utility.yul\":2060:2068   */\n      dup3\n        /* \"#utility.yul\":2050:2090   */\n      tag_51\n      jumpi\n        /* \"#utility.yul\":2081:2082   */\n      0x01\n        /* \"#utility.yul\":2072:2082   */\n      swap1\n      pop\n        /* \"#utility.yul\":2083:2088   */\n      jump(tag_50)\n        /* \"#utility.yul\":2050:2090   */\n    tag_51:\n        /* \"#utility.yul\":2109:2113   */\n      dup2\n        /* \"#utility.yul\":2099:2135   */\n      tag_52\n      jumpi\n        /* \"#utility.yul\":2126:2127   */\n      0x00\n        /* \"#utility.yul\":2117:2127   */\n      swap1\n      pop\n        /* \"#utility.yul\":2128:2133   */\n      jump(tag_50)\n        /* \"#utility.yul\":2099:2135   */\n    tag_52:\n        /* \"#utility.yul\":2195:2199   */\n      dup2\n        /* \"#utility.yul\":2243:2244   */\n      0x01\n        /* \"#utility.yul\":2238:2265   */\n      dup2\n      eq\n      tag_54\n      jumpi\n        /* \"#utility.yul\":2279:2280   */\n      0x02\n        /* \"#utility.yul\":2274:2465   */\n      dup2\n      eq\n      tag_55\n      jumpi\n        /* \"#utility.yul\":2188:2465   */\n      jump(tag_53)\n        /* \"#utility.yul\":2238:2265   */\n    tag_54:\n        /* \"#utility.yul\":2256:2257   */\n      0x01\n        /* \"#utility.yul\":2247:2257   */\n      swap2\n      pop\n        /* \"#utility.yul\":2258:2263   */\n      pop\n      jump(tag_50)\n        /* \"#utility.yul\":2274:2465   */\n    tag_55:\n        /* \"#utility.yul\":2319:2322   */\n      0xff\n        /* \"#utility.yul\":2309:2317   */\n      dup5\n        /* \"#utility.yul\":2306:2323   */\n      gt\n        /* \"#utility.yul\":2303:2346   */\n      iszero\n      tag_56\n      jumpi\n        /* \"#utility.yul\":2326:2344   */\n      tag_57\n      tag_34\n      jump\t// in\n    tag_57:\n        /* \"#utility.yul\":2303:2346   */\n    tag_56:\n        /* \"#utility.yul\":2375:2383   */\n      dup4\n        /* \"#utility.yul\":2372:2373   */\n      0x02\n        /* \"#utility.yul\":2368:2384   */\n      exp\n        /* \"#utility.yul\":2359:2384   */\n      swap2\n      pop\n        /* \"#utility.yul\":2410:2413   */\n      dup5\n        /* \"#utility.yul\":2403:2408   */\n      dup3\n        /* \"#utility.yul\":2400:2414   */\n      gt\n        /* \"#utility.yul\":2397:2437   */\n      iszero\n      tag_58\n      jumpi\n        /* \"#utility.yul\":2417:2435   */\n      tag_59\n      tag_34\n      jump\t// in\n    tag_59:\n        /* \"#utility.yul\":2397:2437   */\n    tag_58:\n        /* \"#utility.yul\":2450:2455   */\n      pop\n      jump(tag_50)\n        /* \"#utility.yul\":2188:2465   */\n    tag_53:\n      pop\n        /* \"#utility.yul\":2574:2576   */\n      0x20\n        /* \"#utility.yul\":2564:2572   */\n      dup4\n        /* \"#utility.yul\":2561:2577   */\n      lt\n        /* \"#utility.yul\":2555:2558   */\n      0x0133\n        /* \"#utility.yul\":2549:2553   */\n      dup4\n        /* \"#utility.yul\":2546:2559   */\n      lt\n        /* \"#utility.yul\":2542:2578   */\n      and\n        /* \"#utility.yul\":2524:2526   */\n      0x4e\n        /* \"#utility.yul\":2514:2522   */\n      dup5\n        /* \"#utility.yul\":2511:2527   */\n      lt\n        /* \"#utility.yul\":2506:2508   */\n      0x0b\n        /* \"#utility.yul\":2500:2504   */\n      dup5\n        /* \"#utility.yul\":2497:2509   */\n      lt\n        /* \"#utility.yul\":2493:2528   */\n      and\n        /* \"#utility.yul\":2477:2588   */\n      or\n        /* \"#utility.yul\":2474:2720   */\n      iszero\n      tag_60\n      jumpi\n        /* \"#utility.yul\":2630:2638   */\n      dup3\n        /* \"#utility.yul\":2624:2628   */\n      dup3\n        /* \"#utility.yul\":2620:2639   */\n      exp\n        /* \"#utility.yul\":2611:2639   */\n      swap1\n      pop\n        /* \"#utility.yul\":2665:2668   */\n      dup4\n        /* \"#utility.yul\":2658:2663   */\n      dup2\n        /* \"#utility.yul\":2655:2669   */\n      gt\n        /* \"#utility.yul\":2652:2692   */\n      iszero\n      tag_61\n      jumpi\n        /* \"#utility.yul\":2672:2690   */\n      tag_62\n      tag_34\n      jump\t// in\n    tag_62:\n        /* \"#utility.yul\":2652:2692   */\n    tag_61:\n        /* \"#utility.yul\":2705:2710   */\n      jump(tag_50)\n        /* \"#utility.yul\":2474:2720   */\n    tag_60:\n        /* \"#utility.yul\":2745:2787   */\n      tag_63\n        /* \"#utility.yul\":2783:2786   */\n      dup5\n        /* \"#utility.yul\":2773:2781   */\n      dup5\n        /* \"#utility.yul\":2767:2771   */\n      dup5\n        /* \"#utility.yul\":2764:2765   */\n      0x01\n        /* \"#utility.yul\":2745:2787   */\n      tag_35\n      jump\t// in\n    tag_63:\n        /* \"#utility.yul\":2730:2787   */\n      swap3\n      pop\n      swap1\n      pop\n        /* \"#utility.yul\":2819:2823   */\n      dup2\n        /* \"#utility.yul\":2814:2817   */\n      dup5\n        /* \"#utility.yul\":2810:2824   */\n      div\n        /* \"#utility.yul\":2803:2808   */\n      dup2\n        /* \"#utility.yul\":2800:2825   */\n      gt\n        /* \"#utility.yul\":2797:2848   */\n      iszero\n      tag_64\n      jumpi\n        /* \"#utility.yul\":2828:2846   */\n      tag_65\n      tag_34\n      jump\t// in\n    tag_65:\n        /* \"#utility.yul\":2797:2848   */\n    tag_64:\n        /* \"#utility.yul\":2877:2881   */\n      dup2\n        /* \"#utility.yul\":2870:2875   */\n      dup2\n        /* \"#utility.yul\":2866:2882   */\n      mul\n        /* \"#utility.yul\":2857:2882   */\n      swap1\n      pop\n        /* \"#utility.yul\":1815:2888   */\n    tag_50:\n      swap4\n      swap3\n      pop\n      pop\n      pop\n      jump\t// out\n        /* \"#utility.yul\":2894:2971   */\n    tag_26:\n        /* \"#utility.yul\":2931:2938   */\n      0x00\n        /* \"#utility.yul\":2960:2965   */\n      dup2\n        /* \"#utility.yul\":2949:2965   */\n      swap1\n      pop\n        /* \"#utility.yul\":2894:2971   */\n      swap2\n      swap1\n      pop\n      jump\t// out\n        /* \"#utility.yul\":2977:3153   */\n    tag_21:\n        /* \"#utility.yul\":3009:3010   */\n      0x00\n        /* \"#utility.yul\":3026:3046   */\n      tag_68\n        /* \"#utility.yul\":3044:3045   */\n      dup3\n        /* \"#utility.yul\":3026:3046   */\n      tag_26\n      jump\t// in\n    tag_68:\n        /* \"#utility.yul\":3021:3046   */\n      swap2\n      pop\n        /* \"#utility.yul\":3060:3080   */\n      tag_69\n        /* \"#utility.yul\":3078:3079   */\n      dup4\n        /* \"#utility.yul\":3060:3080   */\n      tag_26\n      jump\t// in\n    tag_69:\n        /* \"#utility.yul\":3055:3080   */\n      swap3\n      pop\n        /* \"#utility.yul\":3099:3100   */\n      dup3\n        /* \"#utility.yul\":3089:3124   */\n      tag_70\n      jumpi\n        /* \"#utility.yul\":3104:3122   */\n      tag_71\n      tag_72\n      jump\t// in\n    tag_71:\n        /* \"#utility.yul\":3089:3124   */\n    tag_70:\n        /* \"#utility.yul\":3145:3146   */\n      dup3\n        /* \"#utility.yul\":3142:3143   */\n      dup3\n        /* \"#utility.yul\":3138:3147   */\n      mod\n        /* \"#utility.yul\":3133:3147   */\n      swap1\n      pop\n        /* \"#utility.yul\":2977:3153   */\n      swap3\n      swap2\n      pop\n      pop\n      jump\t// out\n        /* \"#utility.yul\":3159:3339   */\n    tag_34:\n        /* \"#utility.yul\":3207:3284   */\n      0x4e487b7100000000000000000000000000000000000000000000000000000000\n        /* \"#utility.yul\":3204:3205   */\n      0x00\n        /* \"#utility.yul\":3197:3285   */\n      mstore\n        /* \"#utility.yul\":3304:3308   */\n      0x11\n        /* \"#utility.yul\":3301:3302   */\n      0x04\n        /* \"#utility.yul\":3294:3309   */\n      mstore\n        /* \"#utility.yul\":3328:3332   */\n      0x24\n        /* \"#utility.yul\":3325:3326   */\n      0x00\n        /* \"#utility.yul\":3318:3333   */\n      revert\n        /* \"#utility.yul\":3345:3525   */\n    tag_72:\n        /* \"#utility.yul\":3393:3470   */\n      0x4e487b7100000000000000000000000000000000000000000000000000000000\n        /* \"#utility.yul\":3390:3391   */\n      0x00\n        /* \"#utility.yul\":3383:3471   */\n      mstore\n        /* \"#utility.yul\":3490:3494   */\n      0x12\n        /* \"#utility.yul\":3487:3488   */\n      0x04\n        /* \"#utility.yul\":3480:3495   */\n      mstore\n        /* \"#utility.yul\":3514:3518   */\n      0x24\n        /* \"#utility.yul\":3511:3512   */\n      0x00\n        /* \"#utility.yul\":3504:3519   */\n      revert\n        /* \"#utility.yul\":3531:3633   */\n    tag_44:\n        /* \"#utility.yul\":3573:3581   */\n      0x00\n        /* \"#utility.yul\":3620:3625   */\n      dup2\n        /* \"#utility.yul\":3617:3618   */\n      0x01\n        /* \"#utility.yul\":3613:3626   */\n      shr\n        /* \"#utility.yul\":3592:3626   */\n      swap1\n      pop\n        /* \"#utility.yul\":3531:3633   */\n      swap2\n      swap1\n      pop\n      jump\t// out\n\n    auxdata: 0xa2646970667358221220a44500ec494d2c779c1bf3b8c75c4b5808447da8e7a45916825015c2a785735564736f6c63430008070033\n}\n",
				"bytecode": {
					"linkReferences": {},
					"object": "60806040526002600055600360015534801561001a57600080fd5b506103a18061002a6000396000f3fe608060405234801561001057600080fd5b50600436106100415760003560e01c80630c55699c14610046578063a56dfe4a14610064578063b7c408d114610082575b600080fd5b61004e61008c565b60405161005b91906100e3565b60405180910390f35b61006c610092565b60405161007991906100e3565b60405180910390f35b61008a610098565b005b60005481565b60015481565b60006001546000546100aa91906100fe565b905060008054826100bb91906101a7565b90506000600154826100cd91906102cf565b9050505050565b6100dd816102c5565b82525050565b60006020820190506100f860008301846100d4565b92915050565b6000610109826102c5565b9150610114836102c5565b9250827fffffffffffffffffffffffffffffffffffffffffffffffffffffffffffffffff0382111561014957610148610300565b5b828201905092915050565b6000808291508390505b600185111561019e5780860481111561017a57610179610300565b5b60018516156101895780820291505b80810290506101978561035e565b945061015e565b94509492505050565b60006101b2826102c5565b91506101bd836102c5565b92506101ea7fffffffffffffffffffffffffffffffffffffffffffffffffffffffffffffffff84846101f2565b905092915050565b60008261020257600190506102be565b8161021057600090506102be565b816001811461022657600281146102305761025f565b60019150506102be565b60ff84111561024257610241610300565b5b8360020a91508482111561025957610258610300565b5b506102be565b5060208310610133831016604e8410600b84101617156102945782820a90508381111561028f5761028e610300565b5b6102be565b6102a18484846001610154565b925090508184048111156102b8576102b7610300565b5b81810290505b9392505050565b6000819050919050565b60006102da826102c5565b91506102e5836102c5565b9250826102f5576102f461032f565b5b828206905092915050565b7f4e487b7100000000000000000000000000000000000000000000000000000000600052601160045260246000fd5b7f4e487b7100000000000000000000000000000000000000000000000000000000600052601260045260246000fd5b60008160011c905091905056fea2646970667358221220a44500ec494d2c779c1bf3b8c75c4b5808447da8e7a45916825015c2a785735564736f6c63430008070033",
					"opcodes": "PUSH1 0x80 PUSH1 0x40 MSTORE PUSH1 0x2 PUSH1 0x0 SSTORE PUSH1 0x3 PUSH1 0x1 SSTORE CALLVALUE DUP1 ISZERO PUSH2 0x1A JUMPI PUSH1 0x0 DUP1 REVERT JUMPDEST POP PUSH2 0x3A1 DUP1 PUSH2 0x2A PUSH1 0x0 CODECOPY PUSH1 0x0 RETURN INVALID PUSH1 0x80 PUSH1 0x40 MSTORE CALLVALUE DUP1 ISZERO PUSH2 0x10 JUMPI PUSH1 0x0 DUP1 REVERT JUMPDEST POP PUSH1 0x4 CALLDATASIZE LT PUSH2 0x41 JUMPI PUSH1 0x0 CALLDATALOAD PUSH1 0xE0 SHR DUP1 PUSH4 0xC55699C EQ PUSH2 0x46 JUMPI DUP1 PUSH4 0xA56DFE4A EQ PUSH2 0x64 JUMPI DUP1 PUSH4 0xB7C408D1 EQ PUSH2 0x82 JUMPI JUMPDEST PUSH1 0x0 DUP1 REVERT JUMPDEST PUSH2 0x4E PUSH2 0x8C JUMP JUMPDEST PUSH1 0x40 MLOAD PUSH2 0x5B SWAP2 SWAP1 PUSH2 0xE3 JUMP JUMPDEST PUSH1 0x40 MLOAD DUP1 SWAP2 SUB SWAP1 RETURN JUMPDEST PUSH2 0x6C PUSH2 0x92 JUMP JUMPDEST PUSH1 0x40 MLOAD PUSH2 0x79 SWAP2 SWAP1 PUSH2 0xE3 JUMP JUMPDEST PUSH1 0x40 MLOAD DUP1 SWAP2 SUB SWAP1 RETURN JUMPDEST PUSH2 0x8A PUSH2 0x98 JUMP JUMPDEST STOP JUMPDEST PUSH1 0x0 SLOAD DUP2 JUMP JUMPDEST PUSH1 0x1 SLOAD DUP2 JUMP JUMPDEST PUSH1 0x0 PUSH1 0x1 SLOAD PUSH1 0x0 SLOAD PUSH2 0xAA SWAP2 SWAP1 PUSH2 0xFE JUMP JUMPDEST SWAP1 POP PUSH1 0x0 DUP1 SLOAD DUP3 PUSH2 0xBB SWAP2 SWAP1 PUSH2 0x1A7 JUMP JUMPDEST SWAP1 POP PUSH1 0x0 PUSH1 0x1 SLOAD DUP3 PUSH2 0xCD SWAP2 SWAP1 PUSH2 0x2CF JUMP JUMPDEST SWAP1 POP POP POP POP JUMP JUMPDEST PUSH2 0xDD DUP2 PUSH2 0x2C5 JUMP JUMPDEST DUP3 MSTORE POP POP JUMP JUMPDEST PUSH1 0x0 PUSH1 0x20 DUP3 ADD SWAP1 POP PUSH2 0xF8 PUSH1 0x0 DUP4 ADD DUP5 PUSH2 0xD4 JUMP JUMPDEST SWAP3 SWAP2 POP POP JUMP JUMPDEST PUSH1 0x0 PUSH2 0x109 DUP3 PUSH2 0x2C5 JUMP JUMPDEST SWAP2 POP PUSH2 0x114 DUP4 PUSH2 0x2C5 JUMP JUMPDEST SWAP3 POP DUP3 PUSH32 0xFFFFFFFFFFFFFFFFFFFFFFFFFFFFFFFFFFFFFFFFFFFFFFFFFFFFFFFFFFFFFFFF SUB DUP3 GT ISZERO PUSH2 0x149 JUMPI PUSH2 0x148 PUSH2 0x300 JUMP JUMPDEST JUMPDEST DUP3 DUP3 ADD SWAP1 POP SWAP3 SWAP2 POP POP JUMP JUMPDEST PUSH1 0x0 DUP1 DUP3 SWAP2 POP DUP4 SWAP1 POP JUMPDEST PUSH1 0x1 DUP6 GT ISZERO PUSH2 0x19E JUMPI DUP1 DUP7 DIV DUP2 GT ISZERO PUSH2 0x17A JUMPI PUSH2 0x179 PUSH2 0x300 JUMP JUMPDEST JUMPDEST PUSH1 0x1 DUP6 AND ISZERO PUSH2 0x189 JUMPI DUP1 DUP3 MUL SWAP2 POP JUMPDEST DUP1 DUP2 MUL SWAP1 POP PUSH2 0x197 DUP6 PUSH2 0x35E JUMP JUMPDEST SWAP5 POP PUSH2 0x15E JUMP JUMPDEST SWAP5 POP SWAP5 SWAP3 POP POP POP JUMP JUMPDEST PUSH1 0x0 PUSH2 0x1B2 DUP3 PUSH2 0x2C5 JUMP JUMPDEST SWAP2 POP PUSH2 0x1BD DUP4 PUSH2 0x2C5 JUMP JUMPDEST SWAP3 POP PUSH2 0x1EA PUSH32 0xFFFFFFFFFFFFFFFFFFFFFFFFFFFFFFFFFFFFFFFFFFFFFFFFFFFFFFFFFFFFFFFF DUP5 DUP5 PUSH2 0x1F2 JUMP JUMPDEST SWAP1 POP SWAP3 SWAP2 POP POP JUMP JUMPDEST PUSH1 0x0 DUP3 PUSH2 0x202 JUMPI PUSH1 0x1 SWAP1 POP PUSH2 0x2BE JUMP JUMPDEST DUP2 PUSH2 0x210 JUMPI PUSH1 0x0 SWAP1 POP PUSH2 0x2BE JUMP JUMPDEST DUP2 PUSH1 0x1 DUP2 EQ PUSH2 0x226 JUMPI PUSH1 0x2 DUP2 EQ PUSH2 0x230 JUMPI PUSH2 0x25F JUMP JUMPDEST PUSH1 0x1 SWAP2 POP POP PUSH2 0x2BE JUMP JUMPDEST PUSH1 0xFF DUP5 GT ISZERO PUSH2 0x242 JUMPI PUSH2 0x241 PUSH2 0x300 JUMP JUMPDEST JUMPDEST DUP4 PUSH1 0x2 EXP SWAP2 POP DUP5 DUP3 GT ISZERO PUSH2 0x259 JUMPI PUSH2 0x258 PUSH2 0x300 JUMP JUMPDEST JUMPDEST POP PUSH2 0x2BE JUMP JUMPDEST POP PUSH1 0x20 DUP4 LT PUSH2 0x133 DUP4 LT AND PUSH1 0x4E DUP5 LT PUSH1 0xB DUP5 LT AND OR ISZERO PUSH2 0x294 JUMPI DUP3 DUP3 EXP SWAP1 POP DUP4 DUP2 GT ISZERO PUSH2 0x28F JUMPI PUSH2 0x28E PUSH2 0x300 JUMP JUMPDEST JUMPDEST PUSH2 0x2BE JUMP JUMPDEST PUSH2 0x2A1 DUP5 DUP5 DUP5 PUSH1 0x1 PUSH2 0x154 JUMP JUMPDEST SWAP3 POP SWAP1 POP DUP2 DUP5 DIV DUP2 GT ISZERO PUSH2 0x2B8 JUMPI PUSH2 0x2B7 PUSH2 0x300 JUMP JUMPDEST JUMPDEST DUP2 DUP2 MUL SWAP1 POP JUMPDEST SWAP4 SWAP3 POP POP POP JUMP JUMPDEST PUSH1 0x0 DUP2 SWAP1 POP SWAP2 SWAP1 POP JUMP JUMPDEST PUSH1 0x0 PUSH2 0x2DA DUP3 PUSH2 0x2C5 JUMP JUMPDEST SWAP2 POP PUSH2 0x2E5 DUP4 PUSH2 0x2C5 JUMP JUMPDEST SWAP3 POP DUP3 PUSH2 0x2F5 JUMPI PUSH2 0x2F4 PUSH2 0x32F JUMP JUMPDEST JUMPDEST DUP3 DUP3 MOD SWAP1 POP SWAP3 SWAP2 POP POP JUMP JUMPDEST PUSH32 0x4E487B7100000000000000000000000000000000000000000000000000000000 PUSH1 0x0 MSTORE PUSH1 0x11 PUSH1 0x4 MSTORE PUSH1 0x24 PUSH1 0x0 REVERT JUMPDEST PUSH32 0x4E487B7100000000000000000000000000000000000000000000000000000000 PUSH1 0x0 MSTORE PUSH1 0x12 PUSH1 0x4 MSTORE PUSH1 0x24 PUSH1 0x0 REVERT JUMPDEST PUSH1 0x0 DUP2 PUSH1 0x1 SHR SWAP1 POP SWAP2 SWAP1 POP JUMP INVALID LOG2 PUSH5 0x6970667358 0x22 SLT KECCAK256 LOG4 GASLIMIT STOP 0xEC 0x49 0x4D 0x2C PUSH24 0x9C1BF3B8C75C4B5808447DA8E7A45916825015C2A7857355 PUSH5 0x736F6C6343 STOP ADDMOD SMOD STOP CALLER "
				},
				"gasEstimates": {
					"creation": {
						"codeDepositCost": "185800",
						"executionCost": "44444",
						"totalCost": "230244"
					},
					"external": {
						"summa()": "infinite",
						"x()": "2407",
						"y()": "2429"
					}
				},
				"methodIdentifiers": {
					"summa()": "b7c408d1",
					"x()": "0c55699c",
					"y()": "a56dfe4a"
				}
			},
			"storageLayout": {
				"storage": [
					{
						"astId": 4,
						"contract": "contracts/MathCardio.sol:MathCardio",
						"label": "x",
						"offset": 0,
						"slot": "0",
						"type": "t_uint256"
					},
					{
						"astId": 7,
						"contract": "contracts/MathCardio.sol:MathCardio",
						"label": "y",
						"offset": 0,
						"slot": "1",
						"type": "t_uint256"
					}
				],
				"types": {
					"t_uint256": {
						"encoding": "inplace",
						"label": "uint256",
						"numberOfBytes": "32"
					}
				}
			},
			"userdoc": {
				"kind": "user",
				"methods": {},
				"version": 1
			}
		}
	}
}