{
	"contracts/Immutable.sol": {
		"Immutable": {
			"abi": [
				{
					"inputs": [
						{
							"internalType": "address",
							"name": "_newImm",
							"type": "address"
						}
					],
					"stateMutability": "nonpayable",
					"type": "constructor"
				},
				{
					"inputs": [],
					"name": "con",
					"outputs": [
						{
							"internalType": "address",
							"name": "",
							"type": "address"
						}
					],
					"stateMutability": "view",
					"type": "function"
				},
				{
					"inputs": [],
					"name": "imm",
					"outputs": [
						{
							"internalType": "address",
							"name": "",
							"type": "address"
						}
					],
					"stateMutability": "view",
					"type": "function"
				},
				{
					"inputs": [],
					"name": "immut",
					"outputs": [
						{
							"internalType": "uint256",
							"name": "",
							"type": "uint256"
						}
					],
					"stateMutability": "view",
					"type": "function"
				}
			],
			"devdoc": {
				"kind": "dev",
				"methods": {},
				"version": 1
			},
			"evm": {
				"assembly": "    /* \"contracts/Immutable.sol\":61:376  contract Immutable {... */\n  mstore(0x40, 0xa0)\n    /* \"contracts/Immutable.sol\":199:258  constructor(address _newImm) {... */\n  callvalue\n  dup1\n  iszero\n  tag_1\n  jumpi\n  0x00\n  dup1\n  revert\ntag_1:\n  pop\n  mload(0x40)\n  sub(codesize, bytecodeSize)\n  dup1\n  bytecodeSize\n  dup4\n  codecopy\n  dup2\n  dup2\n  add\n  0x40\n  mstore\n  dup2\n  add\n  swap1\n  tag_2\n  swap2\n  swap1\n  tag_3\n  jump\t// in\ntag_2:\n    /* \"contracts/Immutable.sol\":244:251  _newImm */\n  dup1\n    /* \"contracts/Immutable.sol\":238:251  imm = _newImm */\n  0xffffffffffffffffffffffffffffffffffffffff\n  and\n  0x80\n  dup2\n  0xffffffffffffffffffffffffffffffffffffffff\n  and\n  0x60\n  shl\n  dup2\n  mstore\n  pop\n  pop\n    /* \"contracts/Immutable.sol\":199:258  constructor(address _newImm) {... */\n  pop\n    /* \"contracts/Immutable.sol\":61:376  contract Immutable {... */\n  jump(tag_6)\n    /* \"#utility.yul\":7:150   */\ntag_8:\n    /* \"#utility.yul\":64:69   */\n  0x00\n    /* \"#utility.yul\":95:101   */\n  dup2\n    /* \"#utility.yul\":89:102   */\n  mload\n    /* \"#utility.yul\":80:102   */\n  swap1\n  pop\n    /* \"#utility.yul\":111:144   */\n  tag_10\n    /* \"#utility.yul\":138:143   */\n  dup2\n    /* \"#utility.yul\":111:144   */\n  tag_11\n  jump\t// in\ntag_10:\n    /* \"#utility.yul\":7:150   */\n  swap3\n  swap2\n  pop\n  pop\n  jump\t// out\n    /* \"#utility.yul\":156:507   */\ntag_3:\n    /* \"#utility.yul\":226:232   */\n  0x00\n    /* \"#utility.yul\":275:277   */\n  0x20\n    /* \"#utility.yul\":263:272   */\n  dup3\n    /* \"#utility.yul\":254:261   */\n  dup5\n    /* \"#utility.yul\":250:273   */\n  sub\n    /* \"#utility.yul\":246:278   */\n  slt\n    /* \"#utility.yul\":243:362   */\n  iszero\n  tag_13\n  jumpi\n    /* \"#utility.yul\":281:360   */\n  tag_14\n  tag_15\n  jump\t// in\ntag_14:\n    /* \"#utility.yul\":243:362   */\ntag_13:\n    /* \"#utility.yul\":401:402   */\n  0x00\n    /* \"#utility.yul\":426:490   */\n  tag_16\n    /* \"#utility.yul\":482:489   */\n  dup5\n    /* \"#utility.yul\":473:479   */\n  dup3\n    /* \"#utility.yul\":462:471   */\n  dup6\n    /* \"#utility.yul\":458:480   */\n  add\n    /* \"#utility.yul\":426:490   */\n  tag_8\n  jump\t// in\ntag_16:\n    /* \"#utility.yul\":416:490   */\n  swap2\n  pop\n    /* \"#utility.yul\":372:500   */\n  pop\n    /* \"#utility.yul\":156:507   */\n  swap3\n  swap2\n  pop\n  pop\n  jump\t// out\n    /* \"#utility.yul\":594:690   */\ntag_19:\n    /* \"#utility.yul\":631:638   */\n  0x00\n    /* \"#utility.yul\":660:684   */\n  tag_21\n    /* \"#utility.yul\":678:683   */\n  dup3\n    /* \"#utility.yul\":660:684   */\n  tag_22\n  jump\t// in\ntag_21:\n    /* \"#utility.yul\":649:684   */\n  swap1\n  pop\n    /* \"#utility.yul\":594:690   */\n  swap2\n  swap1\n  pop\n  jump\t// out\n    /* \"#utility.yul\":696:822   */\ntag_22:\n    /* \"#utility.yul\":733:740   */\n  0x00\n    /* \"#utility.yul\":773:815   */\n  0xffffffffffffffffffffffffffffffffffffffff\n    /* \"#utility.yul\":766:771   */\n  dup3\n    /* \"#utility.yul\":762:816   */\n  and\n    /* \"#utility.yul\":751:816   */\n  swap1\n  pop\n    /* \"#utility.yul\":696:822   */\n  swap2\n  swap1\n  pop\n  jump\t// out\n    /* \"#utility.yul\":951:1068   */\ntag_15:\n    /* \"#utility.yul\":1060:1061   */\n  0x00\n    /* \"#utility.yul\":1057:1058   */\n  dup1\n    /* \"#utility.yul\":1050:1062   */\n  revert\n    /* \"#utility.yul\":1074:1196   */\ntag_11:\n    /* \"#utility.yul\":1147:1171   */\n  tag_28\n    /* \"#utility.yul\":1165:1170   */\n  dup2\n    /* \"#utility.yul\":1147:1171   */\n  tag_19\n  jump\t// in\ntag_28:\n    /* \"#utility.yul\":1140:1145   */\n  dup2\n    /* \"#utility.yul\":1137:1172   */\n  eq\n    /* \"#utility.yul\":1127:1190   */\n  tag_29\n  jumpi\n    /* \"#utility.yul\":1186:1187   */\n  0x00\n    /* \"#utility.yul\":1183:1184   */\n  dup1\n    /* \"#utility.yul\":1176:1188   */\n  revert\n    /* \"#utility.yul\":1127:1190   */\ntag_29:\n    /* \"#utility.yul\":1074:1196   */\n  pop\n  jump\t// out\n    /* \"contracts/Immutable.sol\":61:376  contract Immutable {... */\ntag_6:\n  shr(0x60, mload(0x80))\n  codecopy(0x00, dataOffset(sub_0), dataSize(sub_0))\n  0x00\n  assignImmutable(\"0xe455bf8ea6e7463a1046a0b52804526e119b4bf5136279614e0b1e8e296a4e2d\")\n  return(0x00, dataSize(sub_0))\nstop\n\nsub_0: assembly {\n        /* \"contracts/Immutable.sol\":61:376  contract Immutable {... */\n      mstore(0x40, 0x80)\n      callvalue\n      dup1\n      iszero\n      tag_1\n      jumpi\n      0x00\n      dup1\n      revert\n    tag_1:\n      pop\n      jumpi(tag_2, lt(calldatasize, 0x04))\n      shr(0xe0, calldataload(0x00))\n      dup1\n      0x0b2cb3bc\n      eq\n      tag_3\n      jumpi\n      dup1\n      0x17e02382\n      eq\n      tag_4\n      jumpi\n      dup1\n      0x424e072c\n      eq\n      tag_5\n      jumpi\n    tag_2:\n      0x00\n      dup1\n      revert\n        /* \"contracts/Immutable.sol\":86:158  address public constant con = 0x5B38Da6a701c568545dCfcB03FcB875f56beddC4 */\n    tag_3:\n      tag_6\n      tag_7\n      jump\t// in\n    tag_6:\n      mload(0x40)\n      tag_8\n      swap2\n      swap1\n      tag_9\n      jump\t// in\n    tag_8:\n      mload(0x40)\n      dup1\n      swap2\n      sub\n      swap1\n      return\n        /* \"contracts/Immutable.sol\":264:374  function immut() public view returns(uint) {... */\n    tag_4:\n      tag_10\n      tag_11\n      jump\t// in\n    tag_10:\n      mload(0x40)\n      tag_12\n      swap2\n      swap1\n      tag_13\n      jump\t// in\n    tag_12:\n      mload(0x40)\n      dup1\n      swap2\n      sub\n      swap1\n      return\n        /* \"contracts/Immutable.sol\":164:192  address public immutable imm */\n    tag_5:\n      tag_14\n      tag_15\n      jump\t// in\n    tag_14:\n      mload(0x40)\n      tag_16\n      swap2\n      swap1\n      tag_9\n      jump\t// in\n    tag_16:\n      mload(0x40)\n      dup1\n      swap2\n      sub\n      swap1\n      return\n        /* \"contracts/Immutable.sol\":86:158  address public constant con = 0x5B38Da6a701c568545dCfcB03FcB875f56beddC4 */\n    tag_7:\n        /* \"contracts/Immutable.sol\":116:158  0x5B38Da6a701c568545dCfcB03FcB875f56beddC4 */\n      0x5b38da6a701c568545dcfcb03fcb875f56beddc4\n        /* \"contracts/Immutable.sol\":86:158  address public constant con = 0x5B38Da6a701c568545dCfcB03FcB875f56beddC4 */\n      dup2\n      jump\t// out\n        /* \"contracts/Immutable.sol\":264:374  function immut() public view returns(uint) {... */\n    tag_11:\n        /* \"contracts/Immutable.sol\":301:305  uint */\n      0x00\n        /* \"contracts/Immutable.sol\":339:342  imm */\n      immutable(\"0xe455bf8ea6e7463a1046a0b52804526e119b4bf5136279614e0b1e8e296a4e2d\")\n        /* \"contracts/Immutable.sol\":325:342  msg.sender == imm */\n      0xffffffffffffffffffffffffffffffffffffffff\n      and\n        /* \"contracts/Immutable.sol\":325:335  msg.sender */\n      caller\n        /* \"contracts/Immutable.sol\":325:342  msg.sender == imm */\n      0xffffffffffffffffffffffffffffffffffffffff\n      and\n      eq\n        /* \"contracts/Immutable.sol\":317:347  require(msg.sender == imm, \"\") */\n      tag_18\n      jumpi\n      mload(0x40)\n      0x08c379a000000000000000000000000000000000000000000000000000000000\n      dup2\n      mstore\n      0x04\n      add\n      tag_19\n      swap1\n      tag_20\n      jump\t// in\n    tag_19:\n      mload(0x40)\n      dup1\n      swap2\n      sub\n      swap1\n      revert\n    tag_18:\n        /* \"contracts/Immutable.sol\":365:367  42 */\n      0x2a\n        /* \"contracts/Immutable.sol\":358:367  return 42 */\n      swap1\n      pop\n        /* \"contracts/Immutable.sol\":264:374  function immut() public view returns(uint) {... */\n      swap1\n      jump\t// out\n        /* \"contracts/Immutable.sol\":164:192  address public immutable imm */\n    tag_15:\n      immutable(\"0xe455bf8ea6e7463a1046a0b52804526e119b4bf5136279614e0b1e8e296a4e2d\")\n      dup2\n      jump\t// out\n        /* \"#utility.yul\":7:125   */\n    tag_22:\n        /* \"#utility.yul\":94:118   */\n      tag_24\n        /* \"#utility.yul\":112:117   */\n      dup2\n        /* \"#utility.yul\":94:118   */\n      tag_25\n      jump\t// in\n    tag_24:\n        /* \"#utility.yul\":89:92   */\n      dup3\n        /* \"#utility.yul\":82:119   */\n      mstore\n        /* \"#utility.yul\":7:125   */\n      pop\n      pop\n      jump\t// out\n        /* \"#utility.yul\":131:495   */\n    tag_26:\n        /* \"#utility.yul\":273:276   */\n      0x00\n        /* \"#utility.yul\":294:360   */\n      tag_28\n        /* \"#utility.yul\":358:359   */\n      0x00\n        /* \"#utility.yul\":353:356   */\n      dup4\n        /* \"#utility.yul\":294:360   */\n      tag_29\n      jump\t// in\n    tag_28:\n        /* \"#utility.yul\":287:360   */\n      swap2\n      pop\n        /* \"#utility.yul\":369:462   */\n      tag_30\n        /* \"#utility.yul\":458:461   */\n      dup3\n        /* \"#utility.yul\":369:462   */\n      tag_31\n      jump\t// in\n    tag_30:\n        /* \"#utility.yul\":487:488   */\n      0x00\n        /* \"#utility.yul\":482:485   */\n      dup3\n        /* \"#utility.yul\":478:489   */\n      add\n        /* \"#utility.yul\":471:489   */\n      swap1\n      pop\n        /* \"#utility.yul\":131:495   */\n      swap2\n      swap1\n      pop\n      jump\t// out\n        /* \"#utility.yul\":501:619   */\n    tag_32:\n        /* \"#utility.yul\":588:612   */\n      tag_34\n        /* \"#utility.yul\":606:611   */\n      dup2\n        /* \"#utility.yul\":588:612   */\n      tag_35\n      jump\t// in\n    tag_34:\n        /* \"#utility.yul\":583:586   */\n      dup3\n        /* \"#utility.yul\":576:613   */\n      mstore\n        /* \"#utility.yul\":501:619   */\n      pop\n      pop\n      jump\t// out\n        /* \"#utility.yul\":625:847   */\n    tag_9:\n        /* \"#utility.yul\":718:722   */\n      0x00\n        /* \"#utility.yul\":756:758   */\n      0x20\n        /* \"#utility.yul\":745:754   */\n      dup3\n        /* \"#utility.yul\":741:759   */\n      add\n        /* \"#utility.yul\":733:759   */\n      swap1\n      pop\n        /* \"#utility.yul\":769:840   */\n      tag_37\n        /* \"#utility.yul\":837:838   */\n      0x00\n        /* \"#utility.yul\":826:835   */\n      dup4\n        /* \"#utility.yul\":822:839   */\n      add\n        /* \"#utility.yul\":813:819   */\n      dup5\n        /* \"#utility.yul\":769:840   */\n      tag_22\n      jump\t// in\n    tag_37:\n        /* \"#utility.yul\":625:847   */\n      swap3\n      swap2\n      pop\n      pop\n      jump\t// out\n        /* \"#utility.yul\":853:1272   */\n    tag_20:\n        /* \"#utility.yul\":1019:1023   */\n      0x00\n        /* \"#utility.yul\":1057:1059   */\n      0x20\n        /* \"#utility.yul\":1046:1055   */\n      dup3\n        /* \"#utility.yul\":1042:1060   */\n      add\n        /* \"#utility.yul\":1034:1060   */\n      swap1\n      pop\n        /* \"#utility.yul\":1106:1115   */\n      dup2\n        /* \"#utility.yul\":1100:1104   */\n      dup2\n        /* \"#utility.yul\":1096:1116   */\n      sub\n        /* \"#utility.yul\":1092:1093   */\n      0x00\n        /* \"#utility.yul\":1081:1090   */\n      dup4\n        /* \"#utility.yul\":1077:1094   */\n      add\n        /* \"#utility.yul\":1070:1117   */\n      mstore\n        /* \"#utility.yul\":1134:1265   */\n      tag_39\n        /* \"#utility.yul\":1260:1264   */\n      dup2\n        /* \"#utility.yul\":1134:1265   */\n      tag_26\n      jump\t// in\n    tag_39:\n        /* \"#utility.yul\":1126:1265   */\n      swap1\n      pop\n        /* \"#utility.yul\":853:1272   */\n      swap2\n      swap1\n      pop\n      jump\t// out\n        /* \"#utility.yul\":1278:1500   */\n    tag_13:\n        /* \"#utility.yul\":1371:1375   */\n      0x00\n        /* \"#utility.yul\":1409:1411   */\n      0x20\n        /* \"#utility.yul\":1398:1407   */\n      dup3\n        /* \"#utility.yul\":1394:1412   */\n      add\n        /* \"#utility.yul\":1386:1412   */\n      swap1\n      pop\n        /* \"#utility.yul\":1422:1493   */\n      tag_41\n        /* \"#utility.yul\":1490:1491   */\n      0x00\n        /* \"#utility.yul\":1479:1488   */\n      dup4\n        /* \"#utility.yul\":1475:1492   */\n      add\n        /* \"#utility.yul\":1466:1472   */\n      dup5\n        /* \"#utility.yul\":1422:1493   */\n      tag_32\n      jump\t// in\n    tag_41:\n        /* \"#utility.yul\":1278:1500   */\n      swap3\n      swap2\n      pop\n      pop\n      jump\t// out\n        /* \"#utility.yul\":1506:1675   */\n    tag_29:\n        /* \"#utility.yul\":1590:1601   */\n      0x00\n        /* \"#utility.yul\":1624:1630   */\n      dup3\n        /* \"#utility.yul\":1619:1622   */\n      dup3\n        /* \"#utility.yul\":1612:1631   */\n      mstore\n        /* \"#utility.yul\":1664:1668   */\n      0x20\n        /* \"#utility.yul\":1659:1662   */\n      dup3\n        /* \"#utility.yul\":1655:1669   */\n      add\n        /* \"#utility.yul\":1640:1669   */\n      swap1\n      pop\n        /* \"#utility.yul\":1506:1675   */\n      swap3\n      swap2\n      pop\n      pop\n      jump\t// out\n        /* \"#utility.yul\":1681:1777   */\n    tag_25:\n        /* \"#utility.yul\":1718:1725   */\n      0x00\n        /* \"#utility.yul\":1747:1771   */\n      tag_44\n        /* \"#utility.yul\":1765:1770   */\n      dup3\n        /* \"#utility.yul\":1747:1771   */\n      tag_45\n      jump\t// in\n    tag_44:\n        /* \"#utility.yul\":1736:1771   */\n      swap1\n      pop\n        /* \"#utility.yul\":1681:1777   */\n      swap2\n      swap1\n      pop\n      jump\t// out\n        /* \"#utility.yul\":1783:1909   */\n    tag_45:\n        /* \"#utility.yul\":1820:1827   */\n      0x00\n        /* \"#utility.yul\":1860:1902   */\n      0xffffffffffffffffffffffffffffffffffffffff\n        /* \"#utility.yul\":1853:1858   */\n      dup3\n        /* \"#utility.yul\":1849:1903   */\n      and\n        /* \"#utility.yul\":1838:1903   */\n      swap1\n      pop\n        /* \"#utility.yul\":1783:1909   */\n      swap2\n      swap1\n      pop\n      jump\t// out\n        /* \"#utility.yul\":1915:1992   */\n    tag_35:\n        /* \"#utility.yul\":1952:1959   */\n      0x00\n        /* \"#utility.yul\":1981:1986   */\n      dup2\n        /* \"#utility.yul\":1970:1986   */\n      swap1\n      pop\n        /* \"#utility.yul\":1915:1992   */\n      swap2\n      swap1\n      pop\n      jump\t// out\n        /* \"#utility.yul\":1998:2112   */\n    tag_31:\n      pop\n      jump\t// out\n\n    auxdata: 0xa2646970667358221220d88d3eb42f23352f70f5a4d367d3716ff3d49aae8d8ac74cc2a909965a31cceb64736f6c63430008070033\n}\n",
				"bytecode": {
					"linkReferences": {},
					"object": "60a060405234801561001057600080fd5b506040516103b33803806103b383398181016040528101906100329190610084565b8073ffffffffffffffffffffffffffffffffffffffff1660808173ffffffffffffffffffffffffffffffffffffffff1660601b81525050506100ff565b60008151905061007e816100e8565b92915050565b60006020828403121561009a576100996100e3565b5b60006100a88482850161006f565b91505092915050565b60006100bc826100c3565b9050919050565b600073ffffffffffffffffffffffffffffffffffffffff82169050919050565b600080fd5b6100f1816100b1565b81146100fc57600080fd5b50565b60805160601c6102906101236000396000818160bc015261015101526102906000f3fe608060405234801561001057600080fd5b50600436106100415760003560e01c80630b2cb3bc1461004657806317e0238214610064578063424e072c14610082575b600080fd5b61004e6100a0565b60405161005b91906101b4565b60405180910390f35b61006c6100b8565b60405161007991906101ef565b60405180910390f35b61008a61014f565b60405161009791906101b4565b60405180910390f35b735b38da6a701c568545dcfcb03fcb875f56beddc481565b60007f000000000000000000000000000000000000000000000000000000000000000073ffffffffffffffffffffffffffffffffffffffff163373ffffffffffffffffffffffffffffffffffffffff1614610148576040517f08c379a000000000000000000000000000000000000000000000000000000000815260040161013f906101cf565b60405180910390fd5b602a905090565b7f000000000000000000000000000000000000000000000000000000000000000081565b61017c8161021b565b82525050565b600061018f60008361020a565b915061019a82610257565b600082019050919050565b6101ae8161024d565b82525050565b60006020820190506101c96000830184610173565b92915050565b600060208201905081810360008301526101e881610182565b9050919050565b600060208201905061020460008301846101a5565b92915050565b600082825260208201905092915050565b60006102268261022d565b9050919050565b600073ffffffffffffffffffffffffffffffffffffffff82169050919050565b6000819050919050565b5056fea2646970667358221220d88d3eb42f23352f70f5a4d367d3716ff3d49aae8d8ac74cc2a909965a31cceb64736f6c63430008070033",
					"opcodes": "PUSH1 0xA0 PUSH1 0x40 MSTORE CALLVALUE DUP1 ISZERO PUSH2 0x10 JUMPI PUSH1 0x0 DUP1 REVERT JUMPDEST POP PUSH1 0x40 MLOAD PUSH2 0x3B3 CODESIZE SUB DUP1 PUSH2 0x3B3 DUP4 CODECOPY DUP2 DUP2 ADD PUSH1 0x40 MSTORE DUP2 ADD SWAP1 PUSH2 0x32 SWAP2 SWAP1 PUSH2 0x84 JUMP JUMPDEST DUP1 PUSH20 0xFFFFFFFFFFFFFFFFFFFFFFFFFFFFFFFFFFFFFFFF AND PUSH1 0x80 DUP2 PUSH20 0xFFFFFFFFFFFFFFFFFFFFFFFFFFFFFFFFFFFFFFFF AND PUSH1 0x60 SHL DUP2 MSTORE POP POP POP PUSH2 0xFF JUMP JUMPDEST PUSH1 0x0 DUP2 MLOAD SWAP1 POP PUSH2 0x7E DUP2 PUSH2 0xE8 JUMP JUMPDEST SWAP3 SWAP2 POP POP JUMP JUMPDEST PUSH1 0x0 PUSH1 0x20 DUP3 DUP5 SUB SLT ISZERO PUSH2 0x9A JUMPI PUSH2 0x99 PUSH2 0xE3 JUMP JUMPDEST JUMPDEST PUSH1 0x0 PUSH2 0xA8 DUP5 DUP3 DUP6 ADD PUSH2 0x6F JUMP JUMPDEST SWAP2 POP POP SWAP3 SWAP2 POP POP JUMP JUMPDEST PUSH1 0x0 PUSH2 0xBC DUP3 PUSH2 0xC3 JUMP JUMPDEST SWAP1 POP SWAP2 SWAP1 POP JUMP JUMPDEST PUSH1 0x0 PUSH20 0xFFFFFFFFFFFFFFFFFFFFFFFFFFFFFFFFFFFFFFFF DUP3 AND SWAP1 POP SWAP2 SWAP1 POP JUMP JUMPDEST PUSH1 0x0 DUP1 REVERT JUMPDEST PUSH2 0xF1 DUP2 PUSH2 0xB1 JUMP JUMPDEST DUP2 EQ PUSH2 0xFC JUMPI PUSH1 0x0 DUP1 REVERT JUMPDEST POP JUMP JUMPDEST PUSH1 0x80 MLOAD PUSH1 0x60 SHR PUSH2 0x290 PUSH2 0x123 PUSH1 0x0 CODECOPY PUSH1 0x0 DUP2 DUP2 PUSH1 0xBC ADD MSTORE PUSH2 0x151 ADD MSTORE PUSH2 0x290 PUSH1 0x0 RETURN INVALID PUSH1 0x80 PUSH1 0x40 MSTORE CALLVALUE DUP1 ISZERO PUSH2 0x10 JUMPI PUSH1 0x0 DUP1 REVERT JUMPDEST POP PUSH1 0x4 CALLDATASIZE LT PUSH2 0x41 JUMPI PUSH1 0x0 CALLDATALOAD PUSH1 0xE0 SHR DUP1 PUSH4 0xB2CB3BC EQ PUSH2 0x46 JUMPI DUP1 PUSH4 0x17E02382 EQ PUSH2 0x64 JUMPI DUP1 PUSH4 0x424E072C EQ PUSH2 0x82 JUMPI JUMPDEST PUSH1 0x0 DUP1 REVERT JUMPDEST PUSH2 0x4E PUSH2 0xA0 JUMP JUMPDEST PUSH1 0x40 MLOAD PUSH2 0x5B SWAP2 SWAP1 PUSH2 0x1B4 JUMP JUMPDEST PUSH1 0x40 MLOAD DUP1 SWAP2 SUB SWAP1 RETURN JUMPDEST PUSH2 0x6C PUSH2 0xB8 JUMP JUMPDEST PUSH1 0x40 MLOAD PUSH2 0x79 SWAP2 SWAP1 PUSH2 0x1EF JUMP JUMPDEST PUSH1 0x40 MLOAD DUP1 SWAP2 SUB SWAP1 RETURN JUMPDEST PUSH2 0x8A PUSH2 0x14F JUMP JUMPDEST PUSH1 0x40 MLOAD PUSH2 0x97 SWAP2 SWAP1 PUSH2 0x1B4 JUMP JUMPDEST PUSH1 0x40 MLOAD DUP1 SWAP2 SUB SWAP1 RETURN JUMPDEST PUSH20 0x5B38DA6A701C568545DCFCB03FCB875F56BEDDC4 DUP2 JUMP JUMPDEST PUSH1 0x0 PUSH32 0x0 PUSH20 0xFFFFFFFFFFFFFFFFFFFFFFFFFFFFFFFFFFFFFFFF AND CALLER PUSH20 0xFFFFFFFFFFFFFFFFFFFFFFFFFFFFFFFFFFFFFFFF AND EQ PUSH2 0x148 JUMPI PUSH1 0x40 MLOAD PUSH32 0x8C379A000000000000000000000000000000000000000000000000000000000 DUP2 MSTORE PUSH1 0x4 ADD PUSH2 0x13F SWAP1 PUSH2 0x1CF JUMP JUMPDEST PUSH1 0x40 MLOAD DUP1 SWAP2 SUB SWAP1 REVERT JUMPDEST PUSH1 0x2A SWAP1 POP SWAP1 JUMP JUMPDEST PUSH32 0x0 DUP2 JUMP JUMPDEST PUSH2 0x17C DUP2 PUSH2 0x21B JUMP JUMPDEST DUP3 MSTORE POP POP JUMP JUMPDEST PUSH1 0x0 PUSH2 0x18F PUSH1 0x0 DUP4 PUSH2 0x20A JUMP JUMPDEST SWAP2 POP PUSH2 0x19A DUP3 PUSH2 0x257 JUMP JUMPDEST PUSH1 0x0 DUP3 ADD SWAP1 POP SWAP2 SWAP1 POP JUMP JUMPDEST PUSH2 0x1AE DUP2 PUSH2 0x24D JUMP JUMPDEST DUP3 MSTORE POP POP JUMP JUMPDEST PUSH1 0x0 PUSH1 0x20 DUP3 ADD SWAP1 POP PUSH2 0x1C9 PUSH1 0x0 DUP4 ADD DUP5 PUSH2 0x173 JUMP JUMPDEST SWAP3 SWAP2 POP POP JUMP JUMPDEST PUSH1 0x0 PUSH1 0x20 DUP3 ADD SWAP1 POP DUP2 DUP2 SUB PUSH1 0x0 DUP4 ADD MSTORE PUSH2 0x1E8 DUP2 PUSH2 0x182 JUMP JUMPDEST SWAP1 POP SWAP2 SWAP1 POP JUMP JUMPDEST PUSH1 0x0 PUSH1 0x20 DUP3 ADD SWAP1 POP PUSH2 0x204 PUSH1 0x0 DUP4 ADD DUP5 PUSH2 0x1A5 JUMP JUMPDEST SWAP3 SWAP2 POP POP JUMP JUMPDEST PUSH1 0x0 DUP3 DUP3 MSTORE PUSH1 0x20 DUP3 ADD SWAP1 POP SWAP3 SWAP2 POP POP JUMP JUMPDEST PUSH1 0x0 PUSH2 0x226 DUP3 PUSH2 0x22D JUMP JUMPDEST SWAP1 POP SWAP2 SWAP1 POP JUMP JUMPDEST PUSH1 0x0 PUSH20 0xFFFFFFFFFFFFFFFFFFFFFFFFFFFFFFFFFFFFFFFF DUP3 AND SWAP1 POP SWAP2 SWAP1 POP JUMP JUMPDEST PUSH1 0x0 DUP2 SWAP1 POP SWAP2 SWAP1 POP JUMP JUMPDEST POP JUMP INVALID LOG2 PUSH5 0x6970667358 0x22 SLT KECCAK256 0xD8 DUP14 RETURNDATACOPY 0xB4 0x2F 0x23 CALLDATALOAD 0x2F PUSH17 0xF5A4D367D3716FF3D49AAE8D8AC74CC2A9 MULMOD SWAP7 GAS BALANCE 0xCC 0xEB PUSH5 0x736F6C6343 STOP ADDMOD SMOD STOP CALLER "
				},
				"gasEstimates": {
					"creation": {
						"codeDepositCost": "131200",
						"executionCost": "infinite",
						"totalCost": "infinite"
					},
					"external": {
						"con()": "356",
						"imm()": "infinite",
						"immut()": "infinite"
					}
				},
				"methodIdentifiers": {
					"con()": "0b2cb3bc",
					"imm()": "424e072c",
					"immut()": "17e02382"
				}
			},
			"storageLayout": {
				"storage": [],
				"types": null
			},
			"userdoc": {
				"kind": "user",
				"methods": {},
				"version": 1
			}
		}
	}
}