{
	"data": {
		"bytecode": {
			"linkReferences": {},
			"object": "60a0604052735b38da6a701c568545dcfcb03fcb875f56beddc46000806101000a81548173ffffffffffffffffffffffffffffffffffffffff021916908373ffffffffffffffffffffffffffffffffffffffff16021790555034801561006457600080fd5b5060405161047a38038061047a833981810160405281019061008691906100d8565b8073ffffffffffffffffffffffffffffffffffffffff1660808173ffffffffffffffffffffffffffffffffffffffff1660601b8152505050610153565b6000815190506100d28161013c565b92915050565b6000602082840312156100ee576100ed610137565b5b60006100fc848285016100c3565b91505092915050565b600061011082610117565b9050919050565b600073ffffffffffffffffffffffffffffffffffffffff82169050919050565b600080fd5b61014581610105565b811461015057600080fd5b50565b60805160601c6103036101776000396000818160e5015261017a01526103036000f3fe608060405234801561001057600080fd5b506004361061004c5760003560e01c80630b2cb3bc1461005157806317e023821461006f578063424e072c1461008d578063465c9df4146100ab575b600080fd5b6100596100c9565b6040516100669190610201565b60405180910390f35b6100776100e1565b604051610084919061023c565b60405180910390f35b610095610178565b6040516100a29190610201565b60405180910390f35b6100b361019c565b6040516100c09190610201565b60405180910390f35b735b38da6a701c568545dcfcb03fcb875f56beddc481565b60007f000000000000000000000000000000000000000000000000000000000000000073ffffffffffffffffffffffffffffffffffffffff163373ffffffffffffffffffffffffffffffffffffffff1614610171576040517f08c379a00000000000000000000000000000000000000000000000000000000081526004016101689061021c565b60405180910390fd5b602a905090565b7f000000000000000000000000000000000000000000000000000000000000000081565b60008054906101000a900473ffffffffffffffffffffffffffffffffffffffff1681565b6101c981610268565b82525050565b60006101dc600683610257565b91506101e7826102a4565b602082019050919050565b6101fb8161029a565b82525050565b600060208201905061021660008301846101c0565b92915050565b60006020820190508181036000830152610235816101cf565b9050919050565b600060208201905061025160008301846101f2565b92915050565b600082825260208201905092915050565b60006102738261027a565b9050919050565b600073ffffffffffffffffffffffffffffffffffffffff82169050919050565b6000819050919050565b7f4572726f7221000000000000000000000000000000000000000000000000000060008201525056fea2646970667358221220e89c6132d50999bfb6e53817a9b158b44f5c13a4908c7a7f2d89c56eea9c757064736f6c63430008070033",
			"opcodes": "PUSH1 0xA0 PUSH1 0x40 MSTORE PUSH20 0x5B38DA6A701C568545DCFCB03FCB875F56BEDDC4 PUSH1 0x0 DUP1 PUSH2 0x100 EXP DUP2 SLOAD DUP2 PUSH20 0xFFFFFFFFFFFFFFFFFFFFFFFFFFFFFFFFFFFFFFFF MUL NOT AND SWAP1 DUP4 PUSH20 0xFFFFFFFFFFFFFFFFFFFFFFFFFFFFFFFFFFFFFFFF AND MUL OR SWAP1 SSTORE POP CALLVALUE DUP1 ISZERO PUSH2 0x64 JUMPI PUSH1 0x0 DUP1 REVERT JUMPDEST POP PUSH1 0x40 MLOAD PUSH2 0x47A CODESIZE SUB DUP1 PUSH2 0x47A DUP4 CODECOPY DUP2 DUP2 ADD PUSH1 0x40 MSTORE DUP2 ADD SWAP1 PUSH2 0x86 SWAP2 SWAP1 PUSH2 0xD8 JUMP JUMPDEST DUP1 PUSH20 0xFFFFFFFFFFFFFFFFFFFFFFFFFFFFFFFFFFFFFFFF AND PUSH1 0x80 DUP2 PUSH20 0xFFFFFFFFFFFFFFFFFFFFFFFFFFFFFFFFFFFFFFFF AND PUSH1 0x60 SHL DUP2 MSTORE POP POP POP PUSH2 0x153 JUMP JUMPDEST PUSH1 0x0 DUP2 MLOAD SWAP1 POP PUSH2 0xD2 DUP2 PUSH2 0x13C JUMP JUMPDEST SWAP3 SWAP2 POP POP JUMP JUMPDEST PUSH1 0x0 PUSH1 0x20 DUP3 DUP5 SUB SLT ISZERO PUSH2 0xEE JUMPI PUSH2 0xED PUSH2 0x137 JUMP JUMPDEST JUMPDEST PUSH1 0x0 PUSH2 0xFC DUP5 DUP3 DUP6 ADD PUSH2 0xC3 JUMP JUMPDEST SWAP2 POP POP SWAP3 SWAP2 POP POP JUMP JUMPDEST PUSH1 0x0 PUSH2 0x110 DUP3 PUSH2 0x117 JUMP JUMPDEST SWAP1 POP SWAP2 SWAP1 POP JUMP JUMPDEST PUSH1 0x0 PUSH20 0xFFFFFFFFFFFFFFFFFFFFFFFFFFFFFFFFFFFFFFFF DUP3 AND SWAP1 POP SWAP2 SWAP1 POP JUMP JUMPDEST PUSH1 0x0 DUP1 REVERT JUMPDEST PUSH2 0x145 DUP2 PUSH2 0x105 JUMP JUMPDEST DUP2 EQ PUSH2 0x150 JUMPI PUSH1 0x0 DUP1 REVERT JUMPDEST POP JUMP JUMPDEST PUSH1 0x80 MLOAD PUSH1 0x60 SHR PUSH2 0x303 PUSH2 0x177 PUSH1 0x0 CODECOPY PUSH1 0x0 DUP2 DUP2 PUSH1 0xE5 ADD MSTORE PUSH2 0x17A ADD MSTORE PUSH2 0x303 PUSH1 0x0 RETURN INVALID PUSH1 0x80 PUSH1 0x40 MSTORE CALLVALUE DUP1 ISZERO PUSH2 0x10 JUMPI PUSH1 0x0 DUP1 REVERT JUMPDEST POP PUSH1 0x4 CALLDATASIZE LT PUSH2 0x4C JUMPI PUSH1 0x0 CALLDATALOAD PUSH1 0xE0 SHR DUP1 PUSH4 0xB2CB3BC EQ PUSH2 0x51 JUMPI DUP1 PUSH4 0x17E02382 EQ PUSH2 0x6F JUMPI DUP1 PUSH4 0x424E072C EQ PUSH2 0x8D JUMPI DUP1 PUSH4 0x465C9DF4 EQ PUSH2 0xAB JUMPI JUMPDEST PUSH1 0x0 DUP1 REVERT JUMPDEST PUSH2 0x59 PUSH2 0xC9 JUMP JUMPDEST PUSH1 0x40 MLOAD PUSH2 0x66 SWAP2 SWAP1 PUSH2 0x201 JUMP JUMPDEST PUSH1 0x40 MLOAD DUP1 SWAP2 SUB SWAP1 RETURN JUMPDEST PUSH2 0x77 PUSH2 0xE1 JUMP JUMPDEST PUSH1 0x40 MLOAD PUSH2 0x84 SWAP2 SWAP1 PUSH2 0x23C JUMP JUMPDEST PUSH1 0x40 MLOAD DUP1 SWAP2 SUB SWAP1 RETURN JUMPDEST PUSH2 0x95 PUSH2 0x178 JUMP JUMPDEST PUSH1 0x40 MLOAD PUSH2 0xA2 SWAP2 SWAP1 PUSH2 0x201 JUMP JUMPDEST PUSH1 0x40 MLOAD DUP1 SWAP2 SUB SWAP1 RETURN JUMPDEST PUSH2 0xB3 PUSH2 0x19C JUMP JUMPDEST PUSH1 0x40 MLOAD PUSH2 0xC0 SWAP2 SWAP1 PUSH2 0x201 JUMP JUMPDEST PUSH1 0x40 MLOAD DUP1 SWAP2 SUB SWAP1 RETURN JUMPDEST PUSH20 0x5B38DA6A701C568545DCFCB03FCB875F56BEDDC4 DUP2 JUMP JUMPDEST PUSH1 0x0 PUSH32 0x0 PUSH20 0xFFFFFFFFFFFFFFFFFFFFFFFFFFFFFFFFFFFFFFFF AND CALLER PUSH20 0xFFFFFFFFFFFFFFFFFFFFFFFFFFFFFFFFFFFFFFFF AND EQ PUSH2 0x171 JUMPI PUSH1 0x40 MLOAD PUSH32 0x8C379A000000000000000000000000000000000000000000000000000000000 DUP2 MSTORE PUSH1 0x4 ADD PUSH2 0x168 SWAP1 PUSH2 0x21C JUMP JUMPDEST PUSH1 0x40 MLOAD DUP1 SWAP2 SUB SWAP1 REVERT JUMPDEST PUSH1 0x2A SWAP1 POP SWAP1 JUMP JUMPDEST PUSH32 0x0 DUP2 JUMP JUMPDEST PUSH1 0x0 DUP1 SLOAD SWAP1 PUSH2 0x100 EXP SWAP1 DIV PUSH20 0xFFFFFFFFFFFFFFFFFFFFFFFFFFFFFFFFFFFFFFFF AND DUP2 JUMP JUMPDEST PUSH2 0x1C9 DUP2 PUSH2 0x268 JUMP JUMPDEST DUP3 MSTORE POP POP JUMP JUMPDEST PUSH1 0x0 PUSH2 0x1DC PUSH1 0x6 DUP4 PUSH2 0x257 JUMP JUMPDEST SWAP2 POP PUSH2 0x1E7 DUP3 PUSH2 0x2A4 JUMP JUMPDEST PUSH1 0x20 DUP3 ADD SWAP1 POP SWAP2 SWAP1 POP JUMP JUMPDEST PUSH2 0x1FB DUP2 PUSH2 0x29A JUMP JUMPDEST DUP3 MSTORE POP POP JUMP JUMPDEST PUSH1 0x0 PUSH1 0x20 DUP3 ADD SWAP1 POP PUSH2 0x216 PUSH1 0x0 DUP4 ADD DUP5 PUSH2 0x1C0 JUMP JUMPDEST SWAP3 SWAP2 POP POP JUMP JUMPDEST PUSH1 0x0 PUSH1 0x20 DUP3 ADD SWAP1 POP DUP2 DUP2 SUB PUSH1 0x0 DUP4 ADD MSTORE PUSH2 0x235 DUP2 PUSH2 0x1CF JUMP JUMPDEST SWAP1 POP SWAP2 SWAP1 POP JUMP JUMPDEST PUSH1 0x0 PUSH1 0x20 DUP3 ADD SWAP1 POP PUSH2 0x251 PUSH1 0x0 DUP4 ADD DUP5 PUSH2 0x1F2 JUMP JUMPDEST SWAP3 SWAP2 POP POP JUMP JUMPDEST PUSH1 0x0 DUP3 DUP3 MSTORE PUSH1 0x20 DUP3 ADD SWAP1 POP SWAP3 SWAP2 POP POP JUMP JUMPDEST PUSH1 0x0 PUSH2 0x273 DUP3 PUSH2 0x27A JUMP JUMPDEST SWAP1 POP SWAP2 SWAP1 POP JUMP JUMPDEST PUSH1 0x0 PUSH20 0xFFFFFFFFFFFFFFFFFFFFFFFFFFFFFFFFFFFFFFFF DUP3 AND SWAP1 POP SWAP2 SWAP1 POP JUMP JUMPDEST PUSH1 0x0 DUP2 SWAP1 POP SWAP2 SWAP1 POP JUMP JUMPDEST PUSH32 0x4572726F72210000000000000000000000000000000000000000000000000000 PUSH1 0x0 DUP3 ADD MSTORE POP JUMP INVALID LOG2 PUSH5 0x6970667358 0x22 SLT KECCAK256 0xE8 SWAP13 PUSH2 0x32D5 MULMOD SWAP10 0xBF 0xB6 0xE5 CODESIZE OR 0xA9 0xB1 PC 0xB4 0x4F 0x5C SGT LOG4 SWAP1 DUP13 PUSH27 0x7F2D89C56EEA9C757064736F6C6343000807003300000000000000 "
		},
		"gasEstimates": {
			"creation": {
				"codeDepositCost": "154200",
				"executionCost": "infinite",
				"totalCost": "infinite"
			},
			"external": {
				"con()": "356",
				"cons()": "2555",
				"imm()": "infinite",
				"immut()": "infinite"
			}
		},
		"methodIdentifiers": {
			"con()": "0b2cb3bc",
			"cons()": "465c9df4",
			"imm()": "424e072c",
			"immut()": "17e02382"
		}
	},
	"abi": [
		{
			"inputs": [
				{
					"internalType": "address",
					"name": "_newImm",
					"type": "address"
				}
			],
			"stateMutability": "nonpayable",
			"type": "constructor"
		},
		{
			"inputs": [],
			"name": "con",
			"outputs": [
				{
					"internalType": "address",
					"name": "",
					"type": "address"
				}
			],
			"stateMutability": "view",
			"type": "function"
		},
		{
			"inputs": [],
			"name": "cons",
			"outputs": [
				{
					"internalType": "address",
					"name": "",
					"type": "address"
				}
			],
			"stateMutability": "view",
			"type": "function"
		},
		{
			"inputs": [],
			"name": "imm",
			"outputs": [
				{
					"internalType": "address",
					"name": "",
					"type": "address"
				}
			],
			"stateMutability": "view",
			"type": "function"
		},
		{
			"inputs": [],
			"name": "immut",
			"outputs": [
				{
					"internalType": "uint256",
					"name": "",
					"type": "uint256"
				}
			],
			"stateMutability": "view",
			"type": "function"
		}
	]
}