{
	"data": {
		"bytecode": {
			"linkReferences": {},
			"object": "60806040526002600055600360015560015460005461001e9190610059565b6002556000546002546100319190610102565b600355600154600354610044919061022a565b60045534801561005357600080fd5b506102c6565b600061006482610220565b915061006f83610220565b9250827fffffffffffffffffffffffffffffffffffffffffffffffffffffffffffffffff038211156100a4576100a361025b565b5b828201905092915050565b6000808291508390505b60018511156100f9578086048111156100d5576100d461025b565b5b60018516156100e45780820291505b80810290506100f2856102b9565b94506100b9565b94509492505050565b600061010d82610220565b915061011883610220565b92506101457fffffffffffffffffffffffffffffffffffffffffffffffffffffffffffffffff848461014d565b905092915050565b60008261015d5760019050610219565b8161016b5760009050610219565b8160018114610181576002811461018b576101ba565b6001915050610219565b60ff84111561019d5761019c61025b565b5b8360020a9150848211156101b4576101b361025b565b5b50610219565b5060208310610133831016604e8410600b84101617156101ef5782820a9050838111156101ea576101e961025b565b5b610219565b6101fc84848460016100af565b925090508184048111156102135761021261025b565b5b81810290505b9392505050565b6000819050919050565b600061023582610220565b915061024083610220565b9250826102505761024f61028a565b5b828206905092915050565b7f4e487b7100000000000000000000000000000000000000000000000000000000600052601160045260246000fd5b7f4e487b7100000000000000000000000000000000000000000000000000000000600052601260045260246000fd5b60008160011c9050919050565b61017a806102d56000396000f3fe608060405234801561001057600080fd5b50600436106100575760003560e01c80630c55699c1461005c578063297452621461007a5780634a4d59fa14610098578063853255cc146100b6578063a56dfe4a146100d4575b600080fd5b6100646100f2565b604051610071919061011f565b60405180910390f35b6100826100f8565b60405161008f919061011f565b60405180910390f35b6100a06100fe565b6040516100ad919061011f565b60405180910390f35b6100be610104565b6040516100cb919061011f565b60405180910390f35b6100dc61010a565b6040516100e9919061011f565b60405180910390f35b60005481565b60045481565b60035481565b60025481565b60015481565b6101198161013a565b82525050565b60006020820190506101346000830184610110565b92915050565b600081905091905056fea2646970667358221220cdc59c62859169bbc779731ce846b486d0dd5eb1999d3f5a7a14cff945e8778264736f6c63430008070033",
			"opcodes": "PUSH1 0x80 PUSH1 0x40 MSTORE PUSH1 0x2 PUSH1 0x0 SSTORE PUSH1 0x3 PUSH1 0x1 SSTORE PUSH1 0x1 SLOAD PUSH1 0x0 SLOAD PUSH2 0x1E SWAP2 SWAP1 PUSH2 0x59 JUMP JUMPDEST PUSH1 0x2 SSTORE PUSH1 0x0 SLOAD PUSH1 0x2 SLOAD PUSH2 0x31 SWAP2 SWAP1 PUSH2 0x102 JUMP JUMPDEST PUSH1 0x3 SSTORE PUSH1 0x1 SLOAD PUSH1 0x3 SLOAD PUSH2 0x44 SWAP2 SWAP1 PUSH2 0x22A JUMP JUMPDEST PUSH1 0x4 SSTORE CALLVALUE DUP1 ISZERO PUSH2 0x53 JUMPI PUSH1 0x0 DUP1 REVERT JUMPDEST POP PUSH2 0x2C6 JUMP JUMPDEST PUSH1 0x0 PUSH2 0x64 DUP3 PUSH2 0x220 JUMP JUMPDEST SWAP2 POP PUSH2 0x6F DUP4 PUSH2 0x220 JUMP JUMPDEST SWAP3 POP DUP3 PUSH32 0xFFFFFFFFFFFFFFFFFFFFFFFFFFFFFFFFFFFFFFFFFFFFFFFFFFFFFFFFFFFFFFFF SUB DUP3 GT ISZERO PUSH2 0xA4 JUMPI PUSH2 0xA3 PUSH2 0x25B JUMP JUMPDEST JUMPDEST DUP3 DUP3 ADD SWAP1 POP SWAP3 SWAP2 POP POP JUMP JUMPDEST PUSH1 0x0 DUP1 DUP3 SWAP2 POP DUP4 SWAP1 POP JUMPDEST PUSH1 0x1 DUP6 GT ISZERO PUSH2 0xF9 JUMPI DUP1 DUP7 DIV DUP2 GT ISZERO PUSH2 0xD5 JUMPI PUSH2 0xD4 PUSH2 0x25B JUMP JUMPDEST JUMPDEST PUSH1 0x1 DUP6 AND ISZERO PUSH2 0xE4 JUMPI DUP1 DUP3 MUL SWAP2 POP JUMPDEST DUP1 DUP2 MUL SWAP1 POP PUSH2 0xF2 DUP6 PUSH2 0x2B9 JUMP JUMPDEST SWAP5 POP PUSH2 0xB9 JUMP JUMPDEST SWAP5 POP SWAP5 SWAP3 POP POP POP JUMP JUMPDEST PUSH1 0x0 PUSH2 0x10D DUP3 PUSH2 0x220 JUMP JUMPDEST SWAP2 POP PUSH2 0x118 DUP4 PUSH2 0x220 JUMP JUMPDEST SWAP3 POP PUSH2 0x145 PUSH32 0xFFFFFFFFFFFFFFFFFFFFFFFFFFFFFFFFFFFFFFFFFFFFFFFFFFFFFFFFFFFFFFFF DUP5 DUP5 PUSH2 0x14D JUMP JUMPDEST SWAP1 POP SWAP3 SWAP2 POP POP JUMP JUMPDEST PUSH1 0x0 DUP3 PUSH2 0x15D JUMPI PUSH1 0x1 SWAP1 POP PUSH2 0x219 JUMP JUMPDEST DUP2 PUSH2 0x16B JUMPI PUSH1 0x0 SWAP1 POP PUSH2 0x219 JUMP JUMPDEST DUP2 PUSH1 0x1 DUP2 EQ PUSH2 0x181 JUMPI PUSH1 0x2 DUP2 EQ PUSH2 0x18B JUMPI PUSH2 0x1BA JUMP JUMPDEST PUSH1 0x1 SWAP2 POP POP PUSH2 0x219 JUMP JUMPDEST PUSH1 0xFF DUP5 GT ISZERO PUSH2 0x19D JUMPI PUSH2 0x19C PUSH2 0x25B JUMP JUMPDEST JUMPDEST DUP4 PUSH1 0x2 EXP SWAP2 POP DUP5 DUP3 GT ISZERO PUSH2 0x1B4 JUMPI PUSH2 0x1B3 PUSH2 0x25B JUMP JUMPDEST JUMPDEST POP PUSH2 0x219 JUMP JUMPDEST POP PUSH1 0x20 DUP4 LT PUSH2 0x133 DUP4 LT AND PUSH1 0x4E DUP5 LT PUSH1 0xB DUP5 LT AND OR ISZERO PUSH2 0x1EF JUMPI DUP3 DUP3 EXP SWAP1 POP DUP4 DUP2 GT ISZERO PUSH2 0x1EA JUMPI PUSH2 0x1E9 PUSH2 0x25B JUMP JUMPDEST JUMPDEST PUSH2 0x219 JUMP JUMPDEST PUSH2 0x1FC DUP5 DUP5 DUP5 PUSH1 0x1 PUSH2 0xAF JUMP JUMPDEST SWAP3 POP SWAP1 POP DUP2 DUP5 DIV DUP2 GT ISZERO PUSH2 0x213 JUMPI PUSH2 0x212 PUSH2 0x25B JUMP JUMPDEST JUMPDEST DUP2 DUP2 MUL SWAP1 POP JUMPDEST SWAP4 SWAP3 POP POP POP JUMP JUMPDEST PUSH1 0x0 DUP2 SWAP1 POP SWAP2 SWAP1 POP JUMP JUMPDEST PUSH1 0x0 PUSH2 0x235 DUP3 PUSH2 0x220 JUMP JUMPDEST SWAP2 POP PUSH2 0x240 DUP4 PUSH2 0x220 JUMP JUMPDEST SWAP3 POP DUP3 PUSH2 0x250 JUMPI PUSH2 0x24F PUSH2 0x28A JUMP JUMPDEST JUMPDEST DUP3 DUP3 MOD SWAP1 POP SWAP3 SWAP2 POP POP JUMP JUMPDEST PUSH32 0x4E487B7100000000000000000000000000000000000000000000000000000000 PUSH1 0x0 MSTORE PUSH1 0x11 PUSH1 0x4 MSTORE PUSH1 0x24 PUSH1 0x0 REVERT JUMPDEST PUSH32 0x4E487B7100000000000000000000000000000000000000000000000000000000 PUSH1 0x0 MSTORE PUSH1 0x12 PUSH1 0x4 MSTORE PUSH1 0x24 PUSH1 0x0 REVERT JUMPDEST PUSH1 0x0 DUP2 PUSH1 0x1 SHR SWAP1 POP SWAP2 SWAP1 POP JUMP JUMPDEST PUSH2 0x17A DUP1 PUSH2 0x2D5 PUSH1 0x0 CODECOPY PUSH1 0x0 RETURN INVALID PUSH1 0x80 PUSH1 0x40 MSTORE CALLVALUE DUP1 ISZERO PUSH2 0x10 JUMPI PUSH1 0x0 DUP1 REVERT JUMPDEST POP PUSH1 0x4 CALLDATASIZE LT PUSH2 0x57 JUMPI PUSH1 0x0 CALLDATALOAD PUSH1 0xE0 SHR DUP1 PUSH4 0xC55699C EQ PUSH2 0x5C JUMPI DUP1 PUSH4 0x29745262 EQ PUSH2 0x7A JUMPI DUP1 PUSH4 0x4A4D59FA EQ PUSH2 0x98 JUMPI DUP1 PUSH4 0x853255CC EQ PUSH2 0xB6 JUMPI DUP1 PUSH4 0xA56DFE4A EQ PUSH2 0xD4 JUMPI JUMPDEST PUSH1 0x0 DUP1 REVERT JUMPDEST PUSH2 0x64 PUSH2 0xF2 JUMP JUMPDEST PUSH1 0x40 MLOAD PUSH2 0x71 SWAP2 SWAP1 PUSH2 0x11F JUMP JUMPDEST PUSH1 0x40 MLOAD DUP1 SWAP2 SUB SWAP1 RETURN JUMPDEST PUSH2 0x82 PUSH2 0xF8 JUMP JUMPDEST PUSH1 0x40 MLOAD PUSH2 0x8F SWAP2 SWAP1 PUSH2 0x11F JUMP JUMPDEST PUSH1 0x40 MLOAD DUP1 SWAP2 SUB SWAP1 RETURN JUMPDEST PUSH2 0xA0 PUSH2 0xFE JUMP JUMPDEST PUSH1 0x40 MLOAD PUSH2 0xAD SWAP2 SWAP1 PUSH2 0x11F JUMP JUMPDEST PUSH1 0x40 MLOAD DUP1 SWAP2 SUB SWAP1 RETURN JUMPDEST PUSH2 0xBE PUSH2 0x104 JUMP JUMPDEST PUSH1 0x40 MLOAD PUSH2 0xCB SWAP2 SWAP1 PUSH2 0x11F JUMP JUMPDEST PUSH1 0x40 MLOAD DUP1 SWAP2 SUB SWAP1 RETURN JUMPDEST PUSH2 0xDC PUSH2 0x10A JUMP JUMPDEST PUSH1 0x40 MLOAD PUSH2 0xE9 SWAP2 SWAP1 PUSH2 0x11F JUMP JUMPDEST PUSH1 0x40 MLOAD DUP1 SWAP2 SUB SWAP1 RETURN JUMPDEST PUSH1 0x0 SLOAD DUP2 JUMP JUMPDEST PUSH1 0x4 SLOAD DUP2 JUMP JUMPDEST PUSH1 0x3 SLOAD DUP2 JUMP JUMPDEST PUSH1 0x2 SLOAD DUP2 JUMP JUMPDEST PUSH1 0x1 SLOAD DUP2 JUMP JUMPDEST PUSH2 0x119 DUP2 PUSH2 0x13A JUMP JUMPDEST DUP3 MSTORE POP POP JUMP JUMPDEST PUSH1 0x0 PUSH1 0x20 DUP3 ADD SWAP1 POP PUSH2 0x134 PUSH1 0x0 DUP4 ADD DUP5 PUSH2 0x110 JUMP JUMPDEST SWAP3 SWAP2 POP POP JUMP JUMPDEST PUSH1 0x0 DUP2 SWAP1 POP SWAP2 SWAP1 POP JUMP INVALID LOG2 PUSH5 0x6970667358 0x22 SLT KECCAK256 0xCD 0xC5 SWAP13 PUSH3 0x859169 0xBB 0xC7 PUSH26 0x731CE846B486D0DD5EB1999D3F5A7A14CFF945E8778264736F6C PUSH4 0x43000807 STOP CALLER "
		},
		"gasEstimates": {
			"creation": {
				"codeDepositCost": "75600",
				"executionCost": "infinite",
				"totalCost": "infinite"
			},
			"external": {
				"modulo()": "2429",
				"power()": "2451",
				"sum()": "2473",
				"x()": "2407",
				"y()": "2495"
			}
		},
		"methodIdentifiers": {
			"modulo()": "29745262",
			"power()": "4a4d59fa",
			"sum()": "853255cc",
			"x()": "0c55699c",
			"y()": "a56dfe4a"
		}
	},
	"abi": [
		{
			"inputs": [],
			"name": "modulo",
			"outputs": [
				{
					"internalType": "uint256",
					"name": "",
					"type": "uint256"
				}
			],
			"stateMutability": "view",
			"type": "function"
		},
		{
			"inputs": [],
			"name": "power",
			"outputs": [
				{
					"internalType": "uint256",
					"name": "",
					"type": "uint256"
				}
			],
			"stateMutability": "view",
			"type": "function"
		},
		{
			"inputs": [],
			"name": "sum",
			"outputs": [
				{
					"internalType": "uint256",
					"name": "",
					"type": "uint256"
				}
			],
			"stateMutability": "view",
			"type": "function"
		},
		{
			"inputs": [],
			"name": "x",
			"outputs": [
				{
					"internalType": "uint256",
					"name": "",
					"type": "uint256"
				}
			],
			"stateMutability": "view",
			"type": "function"
		},
		{
			"inputs": [],
			"name": "y",
			"outputs": [
				{
					"internalType": "uint256",
					"name": "",
					"type": "uint256"
				}
			],
			"stateMutability": "view",
			"type": "function"
		}
	]
}