{
	"data": {
		"bytecode": {
			"linkReferences": {},
			"object": "608060405260ff6000806101000a81548160ff021916908360ff16021790555034801561002b57600080fd5b5061011e8061003b6000396000f3fe6080604052348015600f57600080fd5b5060043610603c5760003560e01c80632baeceb71460415780639bebf254146049578063d09de08a146068575b600080fd5b60476070565b005b604f60a4565b604051808260ff16815260200191505060405180910390f35b606e60b5565b005b60008081819054906101000a900460ff16809291906001900391906101000a81548160ff021916908360ff16021790555050565b60008054906101000a900460ff1681565b60008081819054906101000a900460ff168092919060010191906101000a81548160ff021916908360ff1602179055505056fea26469706673582212201ac12a29bd8d831608d8fc1aa33c11d9f86fe0ebccd36cc8faf756adf1a74eb164736f6c63430007060033",
			"opcodes": "PUSH1 0x80 PUSH1 0x40 MSTORE PUSH1 0xFF PUSH1 0x0 DUP1 PUSH2 0x100 EXP DUP2 SLOAD DUP2 PUSH1 0xFF MUL NOT AND SWAP1 DUP4 PUSH1 0xFF AND MUL OR SWAP1 SSTORE POP CALLVALUE DUP1 ISZERO PUSH2 0x2B JUMPI PUSH1 0x0 DUP1 REVERT JUMPDEST POP PUSH2 0x11E DUP1 PUSH2 0x3B PUSH1 0x0 CODECOPY PUSH1 0x0 RETURN INVALID PUSH1 0x80 PUSH1 0x40 MSTORE CALLVALUE DUP1 ISZERO PUSH1 0xF JUMPI PUSH1 0x0 DUP1 REVERT JUMPDEST POP PUSH1 0x4 CALLDATASIZE LT PUSH1 0x3C JUMPI PUSH1 0x0 CALLDATALOAD PUSH1 0xE0 SHR DUP1 PUSH4 0x2BAECEB7 EQ PUSH1 0x41 JUMPI DUP1 PUSH4 0x9BEBF254 EQ PUSH1 0x49 JUMPI DUP1 PUSH4 0xD09DE08A EQ PUSH1 0x68 JUMPI JUMPDEST PUSH1 0x0 DUP1 REVERT JUMPDEST PUSH1 0x47 PUSH1 0x70 JUMP JUMPDEST STOP JUMPDEST PUSH1 0x4F PUSH1 0xA4 JUMP JUMPDEST PUSH1 0x40 MLOAD DUP1 DUP3 PUSH1 0xFF AND DUP2 MSTORE PUSH1 0x20 ADD SWAP2 POP POP PUSH1 0x40 MLOAD DUP1 SWAP2 SUB SWAP1 RETURN JUMPDEST PUSH1 0x6E PUSH1 0xB5 JUMP JUMPDEST STOP JUMPDEST PUSH1 0x0 DUP1 DUP2 DUP2 SWAP1 SLOAD SWAP1 PUSH2 0x100 EXP SWAP1 DIV PUSH1 0xFF AND DUP1 SWAP3 SWAP2 SWAP1 PUSH1 0x1 SWAP1 SUB SWAP2 SWAP1 PUSH2 0x100 EXP DUP2 SLOAD DUP2 PUSH1 0xFF MUL NOT AND SWAP1 DUP4 PUSH1 0xFF AND MUL OR SWAP1 SSTORE POP POP JUMP JUMPDEST PUSH1 0x0 DUP1 SLOAD SWAP1 PUSH2 0x100 EXP SWAP1 DIV PUSH1 0xFF AND DUP2 JUMP JUMPDEST PUSH1 0x0 DUP1 DUP2 DUP2 SWAP1 SLOAD SWAP1 PUSH2 0x100 EXP SWAP1 DIV PUSH1 0xFF AND DUP1 SWAP3 SWAP2 SWAP1 PUSH1 0x1 ADD SWAP2 SWAP1 PUSH2 0x100 EXP DUP2 SLOAD DUP2 PUSH1 0xFF MUL NOT AND SWAP1 DUP4 PUSH1 0xFF AND MUL OR SWAP1 SSTORE POP POP JUMP INVALID LOG2 PUSH5 0x6970667358 0x22 SLT KECCAK256 BYTE 0xC1 0x2A 0x29 0xBD DUP14 DUP4 AND ADDMOD 0xD8 0xFC BYTE LOG3 EXTCODECOPY GT 0xD9 0xF8 PUSH16 0xE0EBCCD36CC8FAF756ADF1A74EB16473 PUSH16 0x6C634300070600330000000000000000 "
		},
		"gasEstimates": {
			"creation": {
				"codeDepositCost": "57200",
				"executionCost": "20972",
				"totalCost": "78172"
			},
			"external": {
				"crit()": "1044",
				"decrement()": "21854",
				"increment()": "21895"
			}
		},
		"methodIdentifiers": {
			"crit()": "9bebf254",
			"decrement()": "2baeceb7",
			"increment()": "d09de08a"
		}
	},
	"abi": [
		{
			"inputs": [],
			"name": "crit",
			"outputs": [
				{
					"internalType": "uint8",
					"name": "",
					"type": "uint8"
				}
			],
			"stateMutability": "view",
			"type": "function"
		},
		{
			"inputs": [],
			"name": "decrement",
			"outputs": [],
			"stateMutability": "nonpayable",
			"type": "function"
		},
		{
			"inputs": [],
			"name": "increment",
			"outputs": [],
			"stateMutability": "nonpayable",
			"type": "function"
		}
	]
}